:1000000054060020A90400002D050000350500005D
:100010003D0500003D0500003D050000000000001A
:100020000000000000000000000000003D0500008E
:100030003D050000000000003D0500003D050000FA
:100040003D0500003D0500003D0500003D050000A8
:100050003D0500003D0500003D0500003D05000098
:100060003D0500003D0500003D0500003D05000088
:100070003D0500003D0500003D0500003D05000078
:100080003D0500003D0500003D0500003D05000068
:100090003D0500003D0500003D0500003D05000058
:1000A0003D0500003D0500003D0500003D05000048
:1000B0003D0500003D0500003D0500003D05000038
:1000C0003D0500003D0500003D0500003D05000028
:1000D0003D0500003D0500003D0500003D05000018
:1000E0003D05000000000000000000003D0500008C
:1000F0003D0500003D0500003D0500003D050000F8
:100100003D0500003D0500003D0500003D050000E7
:1001100000000000000000003D0500003D0500005B
:100120003D0500003D0500003D0500003D050000C7
:100130003D0500003D0500003D0500003D050000B7
:1001400000000000000000000000000000000000AF
:100150003D0500003D0500003D0500003D05000097
:10016000000000000000000000000000000000008F
:10017000000000000000000000000000000000007F
:10018000000000000000000000000000000000006F
:10019000000000000000000000000000000000005F
:1001A000000000000000000000000000000000004F
:1001B0003D0500003D0500003D0500003D05000037
:1001C0003D0500003D0500003D0500003D05000027
:1001D0003D0500003D0500003D0500003D05000017
:1001E0003D0500003D0500003D0500000000000049
:1001F000000000003D0500003D0500003D05000039
:100200003D0500003D05000000000000000000006A
:100210003D0500003D0500003D0500003D050000D6
:100220003D0500003D0500003D0500003D050000C6
:100230003D0500003D0500003D0500003D050000B6
:100240003D0500003D0500003D0500003D050000A6
:100250003D0500003D0500003D0500003D05000096
:0C0260003D0500003D0500003D050000CC
:10026C0010402DE928409FE50030D4E5000053E311
:10027C000500001A1C309FE5000053E318009F1581
:10028C0000F020130130A0E30030C4E51040BDE8BD
:10029C001EFF2FE13804002000000000380A000087
:1002AC0008402DE934309FE5000053E330009F15E2
:1002BC0030109F1500F020132C009FE5003090E5C6
:1002CC00000053E30300000A20309FE5000053E3D5
:1002DC000FE0A01113FF2F110840BDE81EFF2FE106
:1002EC0000000000380A00003C0400203404002008
:1002FC0000000000F0309FE5000053E3E4309F0560
:10030C0003D0A0E100200FE10F0012E31500000A5A
:10031C00D1F021E303D0A0E101AA4DE20A30A0E123
:10032C00D7F021E303D0A0E1013A43E2DBF021E373
:10033C0003D0A0E1013A43E2D2F021E303D0A0E1E3
:10034C00023A43E2D3F021E303D0A0E1023943E2C5
:10035C00FF30C3E3FF3CC3E3043003E5002053E963
:10036C00C02082E302F021E101A843E20010B0E3D7
:10037C0001B0A0E10170A0E178009FE578209FE535
:10038C00002052E0E80000EB60309FE5000053E3F2
:10039C000100000A0FE0A0E103F0A0E150309FE55E
:1003AC00000053E30100000A0FE0A0E103F0A0E11C
:1003BC000000B0E30010B0E30040A0E10150A0E168
:1003CC000000B0E334109FE50020B0E30030B0E350
:1003DC00580000EBB20000EB0400A0E10510A0E116
:1003EC00070000FA900000EB0000080058060020FF
:1003FC00000000000000000038040020540600201B
:10040C006C06000080B500AF4FF04403C0F200133F
:10041C001B6803F15C031B684FF01000C0F2C010A6
:10042C0098474FF04403C0F200131B6803F1180304
:10043C001B6840F60500CFF2000098474FF02003F0
:10044C00C0F200131B6803F13C031B684FF4A0407F
:10045C00C4F202004FF00E01984745F23803C4F283
:10046C0002034FF000021A604FF04403C0F2001375
:10047C001B6803F188031B6845F61060C0F25F002F
:10048C00984745F20803C4F2020345F20802C4F28D
:10049C000202126882F0FF021A60E5E780B582B0B2
:1004AC0000AF40F63023C0F200037B6040F2000343
:1004BC00C2F200033B600BE07B681A683B681A6071
:1004CC003B6803F104033B607B6803F104037B602E
:1004DC003A6840F23443C2F200039A42ECD30E481D
:1004EC000E494FF000028842B8BF40F8042BFFF6CB
:1004FC00FAAF4EF68853CEF200034EF68852CEF287
:10050C000002126842F470021A60FFF77BFF07F1D9
:10051C000807BD4680BD00003804002054060020AA
:10052C0080B400AFFEE700BF80B400AFFEE700BFB1
:10053C0080B400AFFEE700BFE4C09FE5F0412DE9B9
:10054C0000409CE548C194E500005CE353CF840275
:10055C0004509CE548C184051F0055E310D04DE2C2
:10056C000060A0E1150000DAB8009FE5000050E340
:10057C000100001A0000E0E3180000EA190EA0E3E5
:10058C000C108DE508208DE504308DE500F020E39E
:10059C0000C050E20C109DE508209DE504309DE55F
:1005AC00F3FFFF0A485194E50000A0E304008CE53A
:1005BC0000508CE548C184E588018CE58C018CE504
:1005CC00000056E304409CE50700001A023084E268
:1005DC00014084E203118CE704408CE50000A0E3A9
:1005EC0010D08DE2F041BDE81EFF2FE10100A0E329
:1005FC001004A0E104818CE0020056E388719CE5B4
:10060C00083188E58C319C05007087E1000083017E
:10061C000850A0E1882088E588718CE58C018C0558
:10062C00E9FFFFEA340A00000000000008402DE951
:10063C000010A0E30040A0E1820000EB18309FE521
:10064C00000093E53C3090E5000053E30FE0A0116F
:10065C0013FF2F110400A0E1E10000EB340A0000AD
:10066C0038402DE930509FE530409FE5044065E06F
:10067C004441B0E1045185100400000A043035E512
:10068C000FE0A0E113FF2FE1014054E2FAFFFF1A43
:10069C00DC0000EB3840BDE81EFF2FE1000000003D
:1006AC000000000070402DE96C509FE56C609FE5E8
:1006BC00066065E04661B0E1045045120040A013AD
:1006CC000500000A0430B5E5014084E20FE0A0E12A
:1006DC0013FF2FE1040056E1F9FFFF1A40509FE58C
:1006EC0040609FE5066065E0C00000EB4661B0E14C
:1006FC00045045120040A0130500000A0430B5E573
:10070C00014084E20FE0A0E113FF2FE1040056E169
:10071C00F9FFFF1A7040BDE81EFF2FE1000000003A
:10072C0000000000F4090000FC090000030010E3C5
:10073C0030002DE90030A0E13700000A000052E340
:10074C00012042E23200000AFF4001E2020000EA0E
:10075C00000052E3012042E22D00000A0140C3E4F4
:10076C00030013E303C0A0E1F8FFFF1A030052E3F8
:10077C002000009AFF4001E20F0052E3044484E1A0
:10078C00044884E10C30A0810250A0810E00009A34
:10079C00105045E20F0055E3004083E5044083E52B
:1007AC00084083E50C4083E5103083E2F7FFFF8AB5
:1007BC00103042E20F30C3E30F2002E2103083E22C
:1007CC00030052E303C08CE00A00009A0C50A0E135
:1007DC000230A0E1043043E2030053E3044085E41B
:1007EC00FBFFFF8A043042E20330C3E3043083E2B0
:1007FC00032002E203C08CE0000052E3FF10011260
:10080C0002208C100200000A0110CCE402005CE112
:10081C00FCFFFF1A3000BDE81EFF2FE100C0A0E175
:10082C00D1FFFFEA08402DE910309FE5000053E3AB
:10083C000C009F156200001B0840BDE81EFF2FE155
:10084C00000000006C060000F04F2DE968319FE5B8
:10085C00003093E514D04DE204308DE5523F83E235
:10086C0008008DE50C308DE50170A0E10180A0E35E
:10087C0004309DE5486193E5000056E30CB09DE51E
:10088C003300000A045096E5014055E288A08652D8
:10089C001F50855205518A500700005A290000EA62
:1008AC00003095E5070053E10500000A014044E2E1
:1008BC00010074E3045045E22200000A000057E3F3
:1008CC00F6FFFF1A043096E505206AE0013043E29A
:1008DC00022086E0040053E1783012E50010A013EA
:1008EC000440860578100215000053E3EEFFFF0A62
:1008FC001824A0E1881196E5010012E1049096E518
:10090C001600000A8C1196E5010012E11600001A7F
:10091C0008009DE5801015E50FE0A0E113FF2FE125
:10092C00043096E5090053E1D0FFFF1A00309BE537
:10093C00060053E1CDFFFF1A014044E2010074E3CD
:10094C00045045E2DCFFFF1A70109FE5000051E3F4
:10095C000900001A14D08DE2F04FBDE81EFF2FE104
:10096C000FE0A0E113FF2FE1ECFFFFEA800015E59B
:10097C000FE0A0E113FF2FE1E8FFFFEA043096E55A
:10098C00000053E3003096E50800001A000053E322
:10099C000600000A0600A0E100308BE500F020E321
:1009AC0000609BE5000056E3B5FFFF1AE8FFFFEA85
:1009BC0006B0A0E10360A0E1F9FFFFEA340A0000F1
:1009CC00000000000010A0E10000A0E308402DE9A9
:1009DC000020A0E10030A0E1D6FEFFEB0840BDE80E
:1009EC001EFF2FE1FEFFFFEAAC0200003008000002
:1009FC000DC0A0E1F8DF2DE904B04CE228D04BE2A9
:100A0C00F06F9DE81EFF2FE10DC0A0E1F8DF2DE98E
:100A1C0004B04CE26C02000028D04BE2F06F9DE871
:040A2C001EFF2FE199
:080A3000430000000800002053
:040A380000000000BA
:100A3C00000000000000000000000000F402002094
:100A4C005C030020C4030020000000000000000034
:100A5C00000000000000000000000000000000008A
:100A6C00000000000000000000000000300A000040
:100A7C00000000000000000000000000000000006A
:100A8C00000000000000000000000000000000005A
:100A9C00000000000000000000000000000000004A
:100AAC00000000000000000000000000000000003A
:100ABC00000000000000000000000000000000002A
:100ACC00000000000000000000000000000000001A
:100ADC00000000000000000000000000000000000A
:100AEC0001000000000000000E33CDAB34126DE6A7
:100AFC00ECDE05000B000000000000000000000010
:100B0C0000000000000000000000000000000000D9
:100B1C0000000000000000000000000000000000C9
:100B2C0000000000000000000000000000000000B9
:100B3C0000000000000000000000000000000000A9
:040E6C00080000205A
:040E7000000000007E
:080E74008CF4FF7F0100000077
:0400000300000300F6
:00000001FF
