:1020000000340020A1400000254100002D410000C7
:10201000354100003541000035410000000000005E
:10202000000000000000000000000000354100003A
:10203000354100000000000035410000B53C0000C3
:10204000593D000035410000354100003541000098
:1020500035410000354100003541000035410000A8
:102060003541000035410000354100003541000098
:102070003541000035410000354100003541000088
:10208000313300009D300000354100003541000033
:102090003541000045350000354100003541000064
:1020A0003541000035410000354100003541000058
:1020B0003541000035410000354100003541000048
:1020C0003541000035410000354100003541000038
:1020D0003541000035410000354100003541000028
:1020E0003541000000000000000000003541000004
:1020F000354100003541000035410000ED31000060
:1021000035410000354100003541000045310000F7
:1021100000000000000000003541000035410000D3
:1021200035410000354100003541000035410000D7
:1021300035410000354100003541000035410000C7
:10214000000000000000000000000000000000008F
:1021500035410000354100003541000035410000A7
:10216000000000000000000000000000000000006F
:10217000000000000000000000000000000000005F
:10218000000000000000000000000000000000004F
:10219000000000000000000000000000000000003F
:1021A000000000000000000000000000000000002F
:1021B0003541000035410000354100003541000047
:1021C0003541000035410000354100003541000037
:1021D0003541000035410000354100003541000027
:1021E000354100003541000035410000000000008D
:1021F000000000003541000035410000354100007D
:1022000035410000354100000000000000000000E2
:1022100035410000354100003541000035410000E6
:1022200035410000354100003541000035410000D6
:1022300035410000354100003541000035410000C6
:1022400035410000354100003541000035410000B6
:1022500035410000354100003541000035410000A6
:0C22600035410000354100003541000010
:10226C0010402DE928409FE50030D4E5000053E3F1
:10227C000500001A1C309FE5000053E318009F1561
:10228C0000F020130130A0E30030C4E51040BDE89D
:10229C001EFF2FE1000C002000000000E483000072
:1022AC0008402DE934309FE5000053E330009F15C2
:1022BC0030109F1500F020132C009FE5003090E5A6
:1022CC00000053E30300000A20309FE5000053E3B5
:1022DC000FE0A01113FF2F110840BDE81EFF2FE1E6
:1022EC0000000000E4830000040C002034040020F3
:1022FC0000000000F0309FE5000053E3E4309F0540
:10230C0003D0A0E100200FE10F0012E31500000A3A
:10231C00D1F021E303D0A0E101AA4DE20A30A0E103
:10232C00D7F021E303D0A0E1013A43E2DBF021E353
:10233C0003D0A0E1013A43E2D2F021E303D0A0E1C3
:10234C00023A43E2D3F021E303D0A0E1023943E2A5
:10235C00FF30C3E3FF3CC3E3043003E5002053E943
:10236C00C02082E302F021E101A843E20010B0E3B7
:10237C0001B0A0E10170A0E178009FE578209FE515
:10238C00002052E08C0B00EB60309FE5000053E323
:10239C000100000A0FE0A0E103F0A0E150309FE53E
:1023AC00000053E30100000A0FE0A0E103F0A0E1FC
:1023BC000000B0E30010B0E30040A0E10150A0E148
:1023CC000000B0E334109FE50020B0E30030B0E330
:1023DC00FC0A00EB560B00EB0400A0E10510A0E199
:1023EC00390600FA340B00EB00000800F03800202E
:1023FC000000000000000000000C0020F03800205D
:10240C00FC50000080B483B000AF78600B46FB70CA
:10241C00FB784FEA83031A467B68D318FA784FEAA5
:10242C00820211467A688A18126882F0FF021A60DA
:10243C0007F10C07BD4680BC704700BF80B483B069
:10244C0000AF78607B6803F138037A6802F13802D8
:10245C00126842F040021A6007F10C07BD4680BCBE
:10246C00704700BF80B483B000AF78607B6803F125
:10247C0038037A6802F13802126822F040021A60BE
:10248C0007F10C07BD4680BC704700BF80B500AF9C
:10249C0040F60500CFF2000004F09EFC4FF4A04083
:1024AC00C4F202004FF00E0103F011FE4FF00E00CB
:1024BC0000F016F880BD00BF80B483B000AF0346B7
:1024CC00FB71FB794FEA830303F1804303F514336B
:1024DC00FA791A6007F10C07BD4680BC704700BF43
:1024EC0080B483B000AF0346FB71FB794FEA8303E2
:1024FC0003F1804303F514334FF000021A6007F127
:10250C000C07BD4680BC704780B483B000AF034657
:10251C00FB71FB794FEA830303F1804303F514331A
:10252C001A46FB794FEA830303F1804303F5143316
:10253C001B6883F0FF03136007F10C07BD4680BCDA
:10254C00704700BF80B500AF4FF4A040C4F202004A
:10255C004FF00E014FF0020203F054FD48F28040A0
:10256C00C0F21E0004F072FD4FF4A040C4F2020051
:10257C004FF00E014FF0080203F044FD48F280408A
:10258C00C0F21E0004F062FD4FF4A040C4F2020041
:10259C004FF00E014FF0040203F034FD48F280407E
:1025AC00C0F21E0004F052FDCEE700BF80B582B031
:1025BC0000AF4FF4B01005F037F84FF0020004F004
:1025CC0045FD4FF48040CFF2000004F005FC04F010
:1025DC0043FF03464FEA13137B607A6844F6D353E8
:1025EC00C1F26203A3FB02134FEA931240F61C43A1
:1025FC00C2F200031A6040F60300CFF2000004F0B0
:10260C00EBFB4FF0020004F021FD4FF4E040C4F26C
:10261C0000004FF0010103F05AFD40F60400CFF228
:10262C00000004F0D9FB4FF0020004F00FFD4FF452
:10263C008040C4F202004FF0100103F048FD41F25B
:10264C000440C0F2040003F06DFE4FF48040C4F26D
:10265C0002004FF0200103F0AAFD40F60100CFF27A
:10266C00000004F0B9FB4FF0020004F0EFFC4FF453
:10267C00A040C4F200004FF0100103F028FD41F21D
:10268C000440C0F2010003F04DFE4FF4A040C4F230
:10269C0000004FF0200103F08AFD4FF40040C4F21B
:1026AC0002004FF0C0014FF0000204F08BF840F62E
:1026BC001C43C2F200031B684FF40040C4F202003A
:1026CC004FF0C0011A4604F097F84FF40040C4F2E2
:1026DC0002004FF0C5014FF0000204F0ADF84FF4CA
:1026EC000040C4F202004FF020014FF0000204F051
:1026FC00D8F84FF40040C4F202004FF080014FF0C4
:10270C00000204F05FF840F61C43C2F200031B68A1
:10271C004FF40040C4F202004FF080011A4604F05E
:10272C006BF84FF40040C4F202004FF083014FF0FD
:10273C00000204F081F84FF40040C4F202004FF0A4
:10274C0008014FF0000204F0ACF807F10807BD4691
:10275C0080BD00BF80B400AF47F20403C4F2000395
:10276C004FF001021A60BD4680BC704780B400AFC8
:10277C0047F20403C4F200034FF000021A60BD4696
:10278C0080BC704780B582B000AF78600B46FB70A0
:10279C00FB78002B07D178684FF010014FF0000246
:1027AC0003F030FC09E0FB78012B06D178684FF080
:1027BC0010014FF0100203F025FC07F10807BD468D
:1027CC0080BD00BF80B582B000AFFFF7C3FF4FF0F4
:1027DC000200FFF771FE4FF48040C4F202004FF08C
:1027EC000001FFF7CFFF4FF40040C4F202004FF09E
:1027FC00C00104F017F84FF00800FFF75DFE4FF032
:10280C000003FB7122E0FB7903F10103FB71FA7900
:10281C0040F61C43C2F200031B6803FB02F248F2B1
:10282C001F53C5F2EB13A3FB02134FEA53134FF4E0
:10283C000040C4F202004FF0C5011A4603F0FCFF41
:10284C004AF22010C0F2070004F000FCFB79632B65
:10285C00D9D94FF00800FFF743FE4FF06403FB712A
:10286C0022E0FB7903F1FF33FB71FA7940F61C434C
:10287C00C2F200031B6803FB02F248F21F53C5F2BD
:10288C00EB13A3FB02134FEA53134FF40040C4F2B3
:10289C0002004FF0C5011A4603F0CEFF4AF2201099
:1028AC00C0F2070004F0D2FBFB79002BD9D14FF416
:1028BC008040C4F202004FF00101FFF763FF4FF0BC
:1028CC000400FFF7F9FD4FF06403FB7122E0FB7984
:1028DC0003F1FF33FB71FA7940F61C43C2F200039B
:1028EC001B6803FB02F248F21F53C5F2EB13A3FB68
:1028FC0002134FEA53134FF40040C4F202004FF09E
:10290C00C5011A4603F098FF4AF22010C0F20700E6
:10291C0004F09CFBFB79002BD9D14FF00400FFF79E
:10292C00DFFD4FF00003FB7122E0FB7903F10103A3
:10293C00FB71FA7940F61C43C2F200031B6803FBDF
:10294C0002F248F21F53C5F2EB13A3FB02134FEA3A
:10295C0053134FF40040C4F202004FF0C5011A4665
:10296C0003F06AFF4AF22010C0F2070004F06EFB7D
:10297C00FB79632BD9D94FF4A040C4F200004FF07F
:10298C000001FFF7FFFE4FF40040C4F202004FF0CD
:10299C00800103F047FF4FF00800FFF78DFD4FF06B
:1029AC000003FB7122E0FB7903F10103FB71FA795F
:1029BC0040F61C43C2F200031B6803FB02F248F210
:1029CC001F53C5F2EB13A3FB02134FEA53134FF43F
:1029DC000040C4F202004FF083011A4603F02CFFB2
:1029EC004AF22010C0F2070004F030FBFB79632B95
:1029FC00D9D94FF00800FFF773FD4FF06403FB715A
:102A0C0022E0FB7903F1FF33FB71FA7940F61C43AA
:102A1C00C2F200031B6803FB02F248F21F53C5F21B
:102A2C00EB13A3FB02134FEA53134FF40040C4F211
:102A3C0002004FF083011A4603F0FEFE4AF220100A
:102A4C00C0F2070004F002FBFB79002BD9D14FF444
:102A5C00A040C4F200004FF00101FFF793FE4FF0CD
:102A6C000400FFF729FD4FF06403FB7122E0FB79B2
:102A7C0003F1FF33FB71FA7940F61C43C2F20003F9
:102A8C001B6803FB02F248F21F53C5F2EB13A3FBC6
:102A9C0002134FEA53134FF40040C4F202004FF0FC
:102AAC0083011A4603F0C8FE4AF22010C0F2070058
:102ABC0004F0CCFAFB79002BD9D14FF00400FFF7CE
:102ACC000FFD4FF00003FB7122E0FB7903F10103D2
:102ADC00FB71FA7940F61C43C2F200031B6803FB3E
:102AEC0002F248F21F53C5F2EB13A3FB02134FEA99
:102AFC0053134FF40040C4F202004FF083011A4606
:102B0C0003F09AFE4AF22010C0F2070004F09EFA7D
:102B1C00FB79632BD9D94FF4A040C4F200004FF0DD
:102B2C000001FFF72FFE4FF48040C4F202004FF07B
:102B3C000001FFF727FE4FF40040C4F202004FF0F3
:102B4C00800103F06FFE4FF40040C4F202004FF01E
:102B5C00C00103F067FE4FF00800FFF7ADFC4FF02B
:102B6C000003FB713BE0FB7903F10103FB71FA7984
:102B7C0040F61C43C2F200031B6803FB02F248F24E
:102B8C001F53C5F2EB13A3FB02134FEA53134FF47D
:102B9C000040C4F202004FF083011A4603F04CFED1
:102BAC00FA7940F61C43C2F200031B6803FB02F2E5
:102BBC0048F21F53C5F2EB13A3FB02134FEA531356
:102BCC004FF40040C4F202004FF0C5011A4603F066
:102BDC0033FE4AF22010C0F2070004F037FAFB79FA
:102BEC00632BC0D94FF00800FFF77AFC4FF0640359
:102BFC00FB713BE0FB7903F1FF33FB71FA7940F693
:102C0C001C43C2F200031B6803FB02F248F21F5381
:102C1C00C5F2EB13A3FB02134FEA53134FF400401E
:102C2C00C4F202004FF083011A4603F005FEFA7954
:102C3C0040F61C43C2F200031B6803FB02F248F28D
:102C4C001F53C5F2EB13A3FB02134FEA53134FF4BC
:102C5C000040C4F202004FF0C5011A4603F0ECFD2F
:102C6C004AF22010C0F2070004F0F0F9FB79002BB7
:102C7C00C0D14FF4A040C4F200004FF00101FFF7A7
:102C8C0081FD4FF48040C4F202004FF00101FFF7C8
:102C9C0079FD4FF40040C4F202004FF0800103F0C4
:102CAC00C1FD4FF40040C4F202004FF0C00103F02C
:102CBC00B9FD4FF00400FFF7FFFB4FF06403FB710D
:102CCC003BE0FB7903F1FF33FB71FA7940F61C43CF
:102CDC00C2F200031B6803FB02F248F21F53C5F259
:102CEC00EB13A3FB02134FEA53134FF40040C4F24F
:102CFC0002004FF083011A4603F09EFDFA7940F66C
:102D0C001C43C2F200031B6803FB02F248F21F5380
:102D1C00C5F2EB13A3FB02134FEA53134FF400401D
:102D2C00C4F202004FF0C5011A4603F085FD4AF2C9
:102D3C002010C0F2070004F089F9FB79002BC0D1F8
:102D4C004FF00400FFF7CCFB4FF00003FB713BE0AE
:102D5C00FB7903F10103FB71FA7940F61C43C2F2D3
:102D6C0000031B6803FB02F248F21F53C5F2EB137E
:102D7C00A3FB02134FEA53134FF40040C4F20200BA
:102D8C004FF083011A4603F057FDFA7940F61C43C5
:102D9C00C2F200031B6803FB02F248F21F53C5F298
:102DAC00EB13A3FB02134FEA53134FF40040C4F28E
:102DBC0002004FF0C5011A4603F03EFD4AF2201006
:102DCC00C0F2070004F042F9FB79632BC0D9FFF77E
:102DDC00CDFC4FF00200FFF783FB07F10807BD465F
:102DEC0080BD00BF80B582B000AF78600B46FB7031
:102DFC00FA7840F61C43C2F200031B6803FB02F294
:102E0C0048F21F53C5F2EB13A3FB02134FEA531303
:102E1C004FF40040C4F2020079681A4603F00CFD2E
:102E2C0007F10807BD4680BD80B584B000AFF860DF
:102E3C00B9607A60F86803F0CFFFB8684FF008010A
:102E4C0002F08CFCB8684FF003014FF005024FF014
:102E5C00000302F08AFB7B6843F06003B8684FF014
:102E6C0003014FF0000202F0A4FBB868FFF7E6FA8A
:102E7C00B8684FF0030102F06AFBB8684FF0030129
:102E8C0002F0C9FC07F11007BD4680BD80B500AF4C
:102E9C004FF48040C4F202004FF0050103F017F923
:102EAC004FF48040C4F202004FF005014FF00002D5
:102EBC0003F0A8F880BD00BF80B582B002AF40F629
:102ECC000400CFF2000003F087FF4FF48040C4F2FF
:102EDC0002004FF0020103F098F84FF48040C4F266
:102EEC0002004FF0080103F090F84FF46050CFF25D
:102EFC0000004FF40041C4F203014FF00202FFF74F
:102F0C0093FF43F60100CFF200004FF41041C4F2DE
:102F1C0003014FF00002FFF787FFFFF7B7FF4FF4F5
:102F2C004060CFF2000003F057FF04F08BFD41F23C
:102F3C000000C2F2000004F0BFFD4FF0110004F0DD
:102F4C000DFF4FF011004FF00E0104F0F9FD4FF0A2
:102F5C0011004FF0BA4104F041FE4FF49673009308
:102F6C004FF011004FF0010148F2A802C4F2030225
:102F7C0043F20843C2F2000304F042FE4FF01B0080
:102F8C00C0F2010004F0EAFE4FF01B004FF00E01FE
:102F9C0004F0D6FD4FF01B004FF0BA4104F01EFEBA
:102FAC004FF4967300934FF01B004FF0010149F260
:102FBC00A802C4F2030243F26063C2F2000304F0FD
:102FCC001FFE4FF0110004F055FD4FF01B0004F0F4
:102FDC0051FD4FF0210003F059FA4FF0430003F07C
:102FEC0055FA4FF03F0003F051FA4FF48060CFF2E6
:102FFC00000003F0F1FE4FF00000C4F203004FF0AC
:10300C00FF0104F0B8FB4FF00000C4F203004FF0D6
:10301C00220104F0B9FB04F01FFA03464FEA5312E5
:10302C0045F6C523C0F67C23A3FB02134FEAD3134A
:10303C004FF00000C4F203004FF0FF011A4604F0F9
:10304C0075FC4FF00000C4F203004FF0FF014FF08D
:10305C00010204F0DBFBBD4680BD00BF80B500AFB4
:10306C00FFF784FB40F62043C2F200034FF000024E
:10307C001A7048F2A060C0F2010003F0E7FF4FF0B5
:10308C000000C4F203004FF0FF0104F06BFB80BDA5
:10309C0080B584B002AF4FF40040C4F203004FF08F
:1030AC0003014FF0010202F033FA78604FF4004054
:1030BC00C4F20300796802F046FA4FF0110004F0F4
:1030CC001BFE38603B68002B32D14FF00000C4F27D
:1030DC0003004FF0FF0104F04EFB4FF49673009386
:1030EC004FF011004FF0010148F2A802C4F20302A4
:1030FC0043F20843C2F2000304F082FD4FF01100CA
:10310C0004F0B8FC40F62043C2F200031B7803F134
:10311C000103DAB240F62043C2F200031A7040F603
:10312C002043C2F200031B78022B01D1FFF712FBE4
:10313C0007F10807BD4680BD80B584B002AF4FF4DF
:10314C001040C4F203004FF003014FF0010202F0F3
:10315C00DFF978604FF41040C4F20300796802F094
:10316C00F2F94FF01B0004F0C7FD38603B68002BF0
:10317C0032D14FF00000C4F203004FF0FF0104F015
:10318C00FAFA4FF4967300934FF01B004FF00101C5
:10319C0049F2A802C4F2030243F26063C2F20003D4
:1031AC0004F02EFD4FF01B0004F064FC40F62043AD
:1031BC00C2F200031B7803F10103DAB240F620439C
:1031CC00C2F200031A7040F62043C2F200031B78CF
:1031DC00022B01D1FFF7BEFA07F10807BD4680BDEF
:1031EC0080B582B000AF04F039FC78607B68002BAE
:1031FC000DD004F039FC40F62443C2F200031B68E6
:10320C0003F1010240F62443C2F200031A6007F1F5
:10321C000807BD4680BD00BF80B582B002AF40F646
:10322C000300CFF2000003F0D7FD4FF0020003F0D3
:10323C000DFF4FF4E040C4F200004FF0020102F029
:10324C00E4FE4FF40040C4F203004FF002014FF0D3
:10325C0000024FF0010302F088F94FF40040C4F271
:10326C0003004FF002014FF000024FF0660302F032
:10327C00A0F94FF40040C4F203004FF0020102F039
:10328C0066F94FF40040C4F203004FF0020102F063
:10329C005AF94FF44060CFF2000003F09DFD04F0AA
:1032AC00D1FB41F20000C2F2000004F005FC4FF02B
:1032BC00100004F053FD4FF010004FF00E0104F01D
:1032CC003FFC4FF010004FF05D4104F087FC4FF0D5
:1032DC00010300934FF010004FF0010148F28802F7
:1032EC00C4F2030243F6C603C2F2000304F088FCE6
:1032FC004FF0100004F0BEFB4FF0200003F0C6F8B6
:10330C004FF03F0003F0C2F8BD4680BD80B500AF62
:10331C004FF40040C4F203004FF0020102F0B1F987
:10332C0080BD00BF80B584B002AF4FF40040C4F242
:10333C0003004FF002014FF0010202F0E9F878604F
:10334C004FF40040C4F20300796802F0FCF84FF02F
:10335C00100004F0D1FC38603B68002B14D14FF006
:10336C00010300934FF010004FF0010148F2880266
:10337C00C4F2030243F6C603C2F2000304F040FC9D
:10338C004FF0100004F076FB07F10807BD4680BD36
:10339C0080B582B000AF4FF4B01004F045F94FF097
:1033AC00020003F053FE44F20100CFF2000003F0E0
:1033BC0013FD4FF0020003F049FE45F22053C4F216
:1033CC00020344F24B32C4F64F421A6045F22453C6
:1033DC00C4F2020345F22452C4F20202126842F013
:1033EC0001021A6045F22053C4F202034FF00002AE
:1033FC001A6004F031F803464FEA13137B607A68C5
:10340C0041F6F113C0F27653A3FB02134FEA1323D8
:10341C003B604FF0051002F085FF4FF4A040C4F262
:10342C0002004FF001014FF0020202F039FC4FF4A0
:10343C00A040C4F202004FF001014FF066024FF0C1
:10344C00080302F0A8FC4FF41040C4F202004FF045
:10345C00C0014FF0000203F0B5F94FF41040C4F274
:10346C0002004FF0C0013A6803F0C6F93B684FEA1E
:10347C0053034FF41040C4F202004FF0C4011A463B
:10348C0003F0DAF940F20140CFF2000003F0A4FCA3
:10349C004FF48050C4F203004FF0FF0104F06BF9BD
:1034AC004FF48050C4F203004FF0210104F06CF98A
:1034BC0003F0D2FF024641F25973CDF2B713A3FBCE
:1034CC0002134FEA13334FF48050C4F203004FF051
:1034DC00FF011A4604F02AFA02F065FF4FF48050FF
:1034EC00C4F203004FF0010104F07DFA4FF0250007
:1034FC0002F0CCFF07F10807BD4680BD80B500AFD8
:10350C004FF41040C4F202004FF010014FF00102D2
:10351C0003F0C7F94FF41040C4F202004FF0C001A1
:10352C0003F080F94FF48050C4F203004FF0FF0118
:10353C0004F018F980BD00BF80B500AF4FF4805087
:10354C00C4F203004FF0010104F05BFA4FF4104099
:10355C00C4F202004FF0C00103F069F94FF41040BF
:10356C00C4F202004FF0040103F099F94FF410403B
:10357C00C4F202004FF010014FF0000203F091F979
:10358C0080BD00BF80B584B000AF4FF001033B712C
:10359C004FF00003FB714FF004037B724FF00803F4
:1035AC003B724FF00F03FB724FF0F003BB724FF006
:1035BC0000037B714FF00603BB714FF005033B73A7
:1035CC004FF001037B734FF00003BB7307F104034F
:1035DC00184600F0AFFE4FF000004FF0000101F074
:1035EC0053FC4FF000004FF0010101F0DDFB43F6FE
:1035FC00BC03C2F200034FF0DE021A7043F6BC03A8
:10360C00C2F200034FF0AD025A7043F6BC03C2F293
:10361C0000034FF0BE029A7043F6CC03C2F20003D3
:10362C004FF00E021A7043F6CC03C2F200034FF0B7
:10363C00AC025A7043F6CC03C2F200034FF0C10245
:10364C009A704FF0000043F6BC01C2F2000101F089
:10365C001FFA43F6CC00C2F2000001F037F901F07A
:10366C00C5FA07F11007BD4680BD00BF80B58EB00E
:10367C0000AF78604FF4A040C4F202004FF00E018E
:10368C004FF0080202F0BEFC43F6D003C2F2000376
:10369C005B787B637B6B4FEA032243F6D003C2F269
:1036AC0000039B78D3187B637B6B4FEA032243F6B2
:1036BC00D003C2F20003DB78D3187B637B6B4FEA39
:1036CC00032243F6D003C2F200031B79D3187B63A9
:1036DC004FF000033B634FF0000043F6CC01C2F205
:1036EC00000101F0D5F901F06FFA4FF0400001F044
:1036FC0077F801F0A9F94FF00F0001F039FC4FF009
:10370C00F00001F015FC42F2F840C0F2010000F0AC
:10371C00F9FD4FF00003FB6210E07A683B6BD318A5
:10372C001A7807F10C01FB6ACB181A703B6B03F18A
:10373C0001033B63FB6A03F10103FB62FA6A7B6BD7
:10374C009A4202D2FB6A1F2BE7D9FB6ADAB207F165
:10375C000C031046194601F0E9F801F08DF900E070
:10376C0000BF4FF040204FF0800102F048FC0346B0
:10377C00002BF5D14FF0200000F0FAFF0346002B90
:10378C0015D14FF0100000F0F3FF0346002BE7D0EB
:10379C004FF0100001F024F84FF0000043F6BC018C
:1037AC00C2F2000101F074F901F020FA20E000BF30
:1037BC004FF0200001F014F87B6B202B04D97B6BAD
:1037CC00A3F120037B639EE74FF0000043F6BC019E
:1037DC00C2F2000101F05CF901F008FA4FF4A040CC
:1037EC00C4F202004FF00E014FF0020202F00AFC8C
:1037FC0007F13807BD4680BD80B500AF4DF2900093
:10380C00C0F2030000F07EFD1FE04FF4A040C4F2B4
:10381C0002004FF004014FF0040202F0F3FB45F6F6
:10382C001060C0F25F0000F06DFD4FF4A040C4F2D8
:10383C0002004FF004014FF0000202F0E3FB45F6EA
:10384C001060C0F25F0000F05DFD01F041FA03462C
:10385C00002BDAD180BD00BF80B584B000AF4FF42F
:10386C00A040C4F202004FF00E014FF0080202F02B
:10387C00C9FB43F6D003C2F200035B78FB60FB6824
:10388C004FEA0323FB60FB684FEA032243F6D003A5
:10389C00C2F200039B781343FB60FB684FEA0322E0
:1038AC0043F6D003C2F20003DB781343FB60FB68E2
:1038BC004FEA032243F6D003C2F200031B791343F1
:1038CC00FB604FF00003FB724FF0400000F088FFEC
:1038DC0000BF4FF0400000F04BFF0346002BF8D028
:1038EC0001F01AF90346FB70FB78184643F6D00139
:1038FC00C2F2000101F02EF94FF000037B601CE0D6
:10390C0043F6D003C2F200037A689B181B78FA7A4C
:10391C009A420AD04FF4A040C4F202004FF00201C8
:10392C004FF0020202F06EFB21E0FB7A03F101037F
:10393C00FB727B6803F101037B607A68FB689A4237
:10394C0002D27B681F2BDBD9FB68202B04D9FB68C8
:10395C00A3F12003FB60B7E74FF4A040C4F20200D0
:10396C004FF00E014FF0020202F04CFB00BF07F1CA
:10397C001007BD4680BD00BF80B5ADF5187D00AF0A
:10398C004FF00003C7F85C320EE0D7F85C3299B206
:10399C0007F10403D7F85C2223F81210D7F85C3235
:1039AC0003F10103C7F85C32D7F85C2240F22B1309
:1039BC009A42EAD907F104031846FFF757FE07F5B8
:1039CC001877BD4680BD00BF80B500AF4FF40060D6
:1039DC00CFF2000003F030FA4FF48040CFF2000039
:1039EC0003F02AFA40F60300CFF2000003F024FAA9
:1039FC0040F60100CFF2000003F01EFA4FF0170062
:103A0C00C8F2000003F0D6FA4FF0010003F0EAFA16
:103A1C004FF001004FF03201C4F2000103F0D0FD71
:103A2C004FF40060CFF2000003F036FA4FF01200B2
:103A3C00C8F2000003F0CAFA4FF0230003F0D8FAE2
:103A4C004FF0010003F058FA40F20403C2F20003F5
:103A5C004FF001021A7080BD80B500AF43F6110023
:103A6C0003F066FC4FF00E00FEF73AFD4FF0080035
:103A7C00FEF722FD03F0CAFA4FF00800FEF730FD06
:103A8C0080BD00BF80B500AF4FF00E00FEF728FDE3
:103A9C0003F0BEFA80BD00BF80B500AF40F2040356
:103AAC00C2F200031B785BB2022B05D14FF4A86065
:103ABC00C0F2C01003F03CFC40F20403C2F200035D
:103ACC004FF001021A7080BD80B500AF4FF4B040CA
:103ADC00CFF2000003F080F900BF01F00BFF0346AA
:103AEC00002BFAD14FF0040002F072F843F6C00339
:103AFC00C2F200034FF000021A6080BD80B582B0A4
:103B0C0000AF43F6D003C2F200035B784FEA0363C5
:103B1C007B6043F6D003C2F200039B784FEA034369
:103B2C007B6043F6D003C2F20003DB784FEA032339
:103B3C007B6043F6D003C2F200031B797A6813430F
:103B4C007B607B684FEA83037B6043F6D003C2F251
:103B5C0000035B794FEA03633B6043F6D003C2F288
:103B6C0000039B794FEA03433A6813433B6043F6E7
:103B7C00D003C2F20003DB794FEA03233A68134304
:103B8C003B6043F6D003C2F200031B7A3A6813433E
:103B9C003B603868796801F067FF02F057F803461C
:103BAC00002B03D14FF0040002F036F807F10807A0
:103BBC00BD4680BD80B582B000AF43F6C003C2F2F3
:103BCC0000031B683A46104619464FF0040201F0F8
:103BDC00C5FE3B68DBB23B713B684FEA1323DBB29B
:103BEC007B713B684FEA1343DBB2BB713B684FEA16
:103BFC001363DBB2FB7107F104031846FFF736FDC4
:103C0C0007F10807BD4680BD80B500AF4FF0080036
:103C1C00FEF752FC43F6D003C2F200035B784FEA86
:103C2C0003631A4643F6C003C2F200031A6043F65C
:103C3C00D003C2F200039B784FEA03431A4643F6C3
:103C4C00C003C2F200031A6043F6D003C2F20003B1
:103C5C00DB784FEA03231A4643F6C003C2F2000393
:103C6C001A6043F6D003C2F200031B791A4643F6DE
:103C7C00C003C2F200031B681A4343F6C003C2F22E
:103C8C0000031A6043F6C003C2F200031B684FEA3C
:103C9C00830243F6C003C2F200031A604FF008001F
:103CAC00FEF71EFC80BD00BF80B400AF43F6B80326
:103CBC00C2F200031B6803F1010243F6B803C2F21F
:103CCC0000031A60BD4680BC704700BF80B500AFD2
:103CDC004FF4A860C0F2C01003F02AFBFFF7F4FE0B
:103CEC00FEF7D4FBFEF762FCFFF74CFCFFF7E4F8A1
:103CFC00FFF74EFBFFF790FAFFF766FE40F2040366
:103D0C00C2F200031B785BB2022B02D0032B03D050
:103D1C0005E0FFF7A1FE17E0FFF7B4FE14E045F64F
:103D2C001060C0F25F0000F0EDFA4FF00200FEF7F9
:103D3C00C3FB45F61060C0F25F0000F0E3FA4FF0F1
:103D4C000200FEF7CDFB00BFD8E700BF80B582B004
:103D5C0000AF4FF040204FF0010102F02EF9034666
:103D6C00002B00F092814FF0700000F001FD034633
:103D7C00FB71FB7903F02003002B05D04FF02000E2
:103D8C0000F02EFD00F032FFFB7903F01003002B46
:103D9C0005D04FF0100000F023FD00F027FFFB7959
:103DAC0003F04003002B00F05B8100F0B5FE0346EE
:103DBC00BB71BB79184643F6D001C2F2000100F08A
:103DCC00C9FE43F6D003C2F200031B78C12B58D0B6
:103DDC00C12B26DCA02B00F0FB80A02B0FDC022BD0
:103DEC0000F01D81022B03DC012B00F02B8133E151
:103DFC00032B00F01C81042B00F021812CE1A42B5F
:103E0C0000F0B080A42B06DCA12B00F0E880A32BE3
:103E1C0000F0EC8020E1A52B00F0BF80C02B27D058
:103E2C001AE1C72B00F01B81C72B0EDCC42B34D03E
:103E3C00C42B05DCC22B00F0E980C32B2AD00BE18C
:103E4C00C52B1BD0C62B16D006E1E02B00F0D5807D
:103E5C00E02B06DCC82B00F0DC80C92B00F0DC80EA
:103E6C00FAE0E12B00F0CC80E22B00F0CC80F3E008
:103E7C00FFF7F2FCF4E0FFF77FFDF1E0FFF7BCFC8D
:103E8C00EEE04FF4A040C4F202004FF00E01FEF73A
:103E9C00B9FAE5E0FEF796FCE2E0FEF767FC4FF4BA
:103EAC000040C4F202004FF0C00102F0C0FC4FF41D
:103EBC000040C4F202004FF0800102F0B8FC43F65F
:103ECC00D003C2F200035B784FF48040C4F20200CE
:103EDC001946FEF757FC43F6D003C2F200039B7859
:103EEC004FF0C5001946FEF77DFF43F6D003C2F232
:103EFC000003DB784FF4A040C4F200001946FEF733
:103F0C0041FC43F6D003C2F200031B794FF083004F
:103F1C001946FEF767FF4FF40040C4F202004FF061
:103F2C00C00102F07FFC4FF40040C4F202004FF0DD
:103F3C00800102F077FC4FF40040C4F202004FF015
:103F4C0020014FF0010202F0ACFC4FF40040C4F22F
:103F5C0002004FF008014FF0010202F0A2FCFEF744
:103F6C00F9FB7DE04FF40040C4F202004FF0C001B9
:103F7C0002F05DFC4FF48040C4F202004FF00001EF
:103F8C00FEF700FC4FF40040C4F202004FF0200199
:103F9C004FF0000202F085FC62E04FF40040C4F2E6
:103FAC0002004FF0800102F042FC4FF4A040C4F23A
:103FBC0000004FF00001FEF7E5FB4FF40040C4F2A7
:103FCC0002004FF008014FF0000202F06AFC47E0DB
:103FDC0043F20840C2F20000FFF748FB40E043F216
:103FEC006060C2F20000FFF741FB39E043F6C60007
:103FFC00C2F20000FFF73AFB32E0FFF7DBFD2FE0E7
:10400C00FFF77CFD2CE0FFF7FFFD29E0FFF726F81A
:10401C0026E0FFF773FA23E0FFF778F920E040F28F
:10402C000403C2F200034FF002021A7018E040F2CF
:10403C000403C2F200034FF003021A7010E0FFF702
:10404C002BFD0DE04EF60C53CEF200034FF00402A4
:10405C00C0F2FA521A6003E0FEF774FA00E000BFF7
:10406C0000F0DCFD0346002B0FD04FF0400000F0B9
:10407C00B7FB4FF040204FF0800101F0A5FF4FF04F
:10408C0040204FF0800101F09FFF07F10807BD466B
:10409C0080BD00BF80B582B000AF47F61C63C0F294
:1040AC0000037B6040F20003C2F200033B600BE0B4
:1040BC007B681A683B681A603B6803F104033B6039
:1040CC007B6803F104037B603A6840F23443C2F22C
:1040DC0000039A42ECD30E480E494FF0000288427E
:1040EC00B8BF40F8042BFFF6FAAF4EF68853CEF269
:1040FC0000034EF68852CEF20002126842F47002AF
:10410C001A60FFF7E3FD07F10807BD4680BD00000C
:10411C00000C0020F038002080B400AFFEE700BF98
:10412C0080B400AFFEE700BF80B400AFFEE700BF75
:10413C0080B586B002AF0346FB714FF40060CFF23E
:10414C00000002F049FE4FF0010000F0DBF84FF4E4
:10415C00E050CFF2000002F03FFE4FF0030000F001
:10416C00D1F84FF40040C4F2000002F0CDFC4FF047
:10417C00020000F0C7F840F6020002F0D3F841F25A
:10418C00020002F0CFF841F2024002F0CBF84FF0FF
:10419C0040204FF0340102F026F803F05DF902469E
:1041AC0048F28043C0F21E0300934FF008030193C2
:1041BC004FF40040C4F2000011464FF000024FF0E3
:1041CC00000302F077FC4FF040204FF0800101F02B
:1041DC0070FF4FF040204FF0080101F078FF4FF0D6
:1041EC0040204FF0400101F072FFFB79002B19D0F9
:1041FC004FF040204FF0800101F0D2FE4FF04020F4
:10420C004FF080014FF0000201F073FD02F0CBF88B
:10421C004FF0100002F03AF94FF010004FF000018F
:10422C0002F012F94FF40040C4F2000002F067FCF7
:10423C0000BF07F10C034FF40040C4F20000194614
:10424C0002F0A5FC0346002BF3D107F11007BD4685
:10425C0080BD00BF80B500AF4FF040204FF008018B
:10426C004FF0080201F0CEFE80BD00BF80B500AF5C
:10427C004FF040204FF008014FF0000201F0C2FE59
:10428C0080BD00BF80B500AF4FF040204FF0400123
:10429C004FF0400201F0B6FE43F20043C2F20003BD
:1042AC004FF001021A7080BD80B500AF4FF0402076
:1042BC004FF040014FF0000201F0A4FE43F2004326
:1042CC00C2F200034FF000021A7080BD80B584B0BA
:1042DC0000AF78604FF40040C4F20000796802F03F
:1042EC0040FC07F10C034FF40040C4F200001946E7
:1042FC0002F046FCFB68DBB2184607F11007BD461E
:10430C0080BD00BF80B582B000AF7860786802F0E5
:10431C009DFE07F10807BD4680BD00BF80B400AF0D
:10432C0043F20043C2F200031B781846BD4680BC22
:10433C00704700BF80B584B000AF78607B685B7A53
:10434C001846FFF7F5FEFFF785FFFFF7ADFF4FF0BF
:10435C001403FB7309E04DF29000C0F20300FFF769
:10436C00D1FFFB7B03F1FF33FB73FB7B002BF2D103
:10437C004FF0700000F034FA00F000FD7B689B7980
:10438C00184600F0D5FD7B68DB79184600F0F0FD8F
:10439C007B685A787B689B781343DAB27B689B7A8C
:1043AC001343DBB2184600F0E1F87B68DB78184663
:1043BC0000F0ECF87B681B78184600F0F9F843F233
:1043CC000443C2F200034FF000021A707B681B7AA0
:1043DC00184600F01DF800F013FB00F0F5FB7B68AD
:1043EC001A797B685B791343DAB243F20143C2F268
:1043FC0000031A707B681B7803F10203DAB243F2F4
:10440C000243C2F200031A7007F11007BD4680BDCB
:10441C0080B582B000AF0346FB7143F20443C2F295
:10442C0000031A78FB791340DBB2FA799A4223D055
:10443C0043F20443C2F200031A78FB791343DAB255
:10444C0043F20443C2F200031A7043F20443C2F273
:10445C0000031B7803F00703DAB243F20443C2F201
:10446C0000031A7043F20443C2F200031B784FF0AE
:10447C001D00194600F008FA07F10807BD4680BD7B
:10448C0080B582B000AF0346FB7143F20443C2F225
:10449C0000031A78FB791340DBB2002B1CD0FB799C
:1044AC006FEA0303DBB2DAB243F20443C2F2000355
:1044BC001B78DBB21340DBB2DAB243F20443C2F234
:1044CC0000031A7043F20443C2F200031B784FF04E
:1044DC001D00194600F0D8F907F10807BD4680BD4C
:1044EC0080B500AF4FF0080000F0ACF903464FEA7E
:1044FC001313DBB2184680BD80B582B000AF4FF00D
:10450C00030000F09FF90346FB71FB7903F0FC03F9
:10451C00002B07D1FB7903F00303002B02D04FF0E3
:10452C00010301E04FF00003DBB2184607F1080766
:10453C00BD4680BD80B582B000AF0346FB71FB79F0
:10454C0003F07F03DBB24FF00000194600F09CF93A
:10455C0007F10807BD4680BD80B500AF4FF00000E5
:10456C0000F070F90346184680BD00BF80B582B0DC
:10457C0000AF0346FB71FB794FF00600194600F0C3
:10458C0083F907F10807BD4680BD00BF80B582B036
:10459C0000AF0346FB71FB7903F07F03DBB24FF0F6
:1045AC000500194600F070F907F10807BD4680BDFB
:1045BC0080B582B000AF0346FB71FB7903F00303B7
:1045CC00FB71FB794FF00300194600F05DF907F120
:1045DC000807BD4680BD00BF80B582B000AFFFF7B5
:1045EC008BFF0346002B02D14FF0000337E04FF056
:1045FC00000000F027F90346FB71FB7903F002037E
:10460C00002B02D14FF0010329E0FFF787FE034690
:10461C00002B02D14FF0020321E0FB7903F00103E0
:10462C00002B0ED04FF0060000F00CF9034603F0FF
:10463C009003002B02D04FF0200310E04FF010033A
:10464C000DE04FF0170000F0FDF8034603F01003E7
:10465C00002B02D04FF0040301E04FF00803184682
:10466C0007F10807BD4680BD80B500AFFFF71CFE03
:10467C0043F20143C2F200031B7843F00103DBB2A7
:10468C001846FFF757FF80BD80B582B000AF4FF0E2
:10469C00000000F0D7F80346FB71FFF705FEFB792D
:1046AC0003F00203002B21D1FB7903F00103002B53
:1046BC000BD043F20143C2F200031B7843F0030317
:1046CC00DBB21846FFF736FF0AE043F20143C2F2B1
:1046DC0000031B7843F00203DBB21846FFF72AFFF6
:1046EC004DF29000C0F20300FFF70CFE07F1080733
:1046FC00BD4680BD80B584B000AF40F2FF33FB6097
:10470C004FF00003BB60FFF767FF0346FB71FB79BB
:10471C00102B1BD000F06AFA18E04FF0090000F0E3
:10472C0091F80346002B03D0BB6803F10103BB6077
:10473C0041F66410FFF7E6FD00F046FA4FF040003A
:10474C0000F04EF8FB6803F1FF33FB60FB68002BB5
:10475C00E3DCFB79102B01D0FFF796FFBB684FEA27
:10476C009303DBB2184607F11007BD4680BD00BFAE
:10477C0080B582B000AF0346FB71FFF777FD4FF0B9
:10478C00FF00FFF7A3FD03461A4643F20343C2F2B0
:10479C0000031A70FFF75EFD43F20343C2F20003FD
:1047AC001B7803F07003DAB243F20343C2F2000346
:1047BC001A7043F20343C2F200031A78FB791340D8
:1047CC00DAB243F20343C2F200031A7043F203431A
:1047DC00C2F200031B78184607F10807BD4680BDDE
:1047EC0080B582B000AF0346FB71FFF73FFD4FF081
:1047FC002700FFF76BFD03461A4643F20343C2F250
:10480C0000031A7043F20343C2F200031B7803F057
:10481C000F03DAB243F20343C2F200031A7043F2FD
:10482C000343C2F200031A78FB791343FB71FB7943
:10483C001846FFF74BFDFFF70DFD07F10807BD46C6
:10484C0080BD00BF80B584B000AF0346FB71FFF79D
:10485C000DFDFB7903F01F031846FFF737FD0346E8
:10486C001A4643F20343C2F200031A704FF0FF00E2
:10487C00FFF72CFD0346FB73FFF7ECFCFB7B1846A4
:10488C0007F11007BD4680BD80B582B000AF02466F
:10489C000B46FA71BB71FFF7E9FCFB7903F01F03C0
:1048AC0043F020031846FFF711FD03461A4643F266
:1048BC000343C2F200031A70BB791846FFF706FDDA
:1048CC00FFF7C8FC07F10807BD4680BD80B584B072
:1048DC0000AF7860FFF7CAFC4FF03000FFF7F6FC32
:1048EC0003461A4643F20343C2F200031A704FF018
:1048FC000003FB730BE097F90F307A68D3181B7821
:10490C001846FFF7E3FCFB7B03F10103FB7397F9FC
:10491C000F2043F20243C2F200031B789A42EADBF7
:10492C00FFF798FC07F11007BD4680BD80B584B039
:10493C0000AF03463960FB714FF00003FB73FFF7C8
:10494C0095FC4FF0A000FFF7C1FC03461A4643F25A
:10495C000343C2F200031A704FF00003FB730AE02A
:10496C00FB7B3A68D3181B781846FFF7AFFCFB7B30
:10497C0003F10103FB73FA7BFB799A42F0D3FFF747
:10498C0069FC07F11007BD4680BD00BF80B584B03F
:10499C0000AF03463960FB714FF00003FB7343F229
:1049AC000443C2F200031B7803F00103002B22D056
:1049BC00FFF75CFC4FF0B000FFF788FC03461A468B
:1049CC0043F20343C2F200031A704FF00003FB736F
:1049DC000AE0FB7B3A68D3181B781846FFF776FC85
:1049EC00FB7B03F10103FB73FA7BFB799A42F0D357
:1049FC00FFF730FC00E000BF07F11007BD4680BD9B
:104A0C0080B500AFFFF732FC4FF0E100FFF75EFC22
:104A1C0003461A4643F20343C2F200031A70FFF72F
:104A2C0019FC80BD80B500AFFFF720FC4FF0E30010
:104A3C00FFF74CFC03461A4643F20343C2F2000351
:104A4C001A70FFF707FC80BD80B500AFFFF71CFEA6
:104A5C00FFF7D6FF43F20143C2F200031B7843F089
:104A6C000203DBB21846FFF765FD4FF03000FFF78D
:104A7C00B7FEFFF719FC80BD80B500AFFFF702FC55
:104A8C0040F2EE20FFF73EFCFFF70EFC80BD00BFAE
:104A9C0080B584B000AF03463960FB71FB79052B00
:104AAC0035D8FFF7E3FBFB7903F10A0343F020034E
:104ABC001846FFF70BFC03461A4643F20343C2F2B7
:104ACC0000031A70FB79012B05D93B681B7818463B
:104ADC00FFF7FCFB18E04FF00003FB730BE097F9BA
:104AEC000F303A68D3181B781846FFF7EFFBFB7BA7
:104AFC0003F10103FB7397F90F2043F20243C2F257
:104B0C0000031B789A42EADBFFF7A4FB00E000BF2E
:104B1C0007F11007BD4680BD80B582B000AFFFF72E
:104B2C00A5FB4FF06000FFF7D1FB03461A4643F29A
:104B3C000343C2F200031A704FF0FF00FFF7C6FBED
:104B4C000346FB71FFF786FBFB79184607F1080754
:104B5C00BD4680BD90B585B000AF03463960FB7192
:104B6C00FFF784FB4FF06100FFF7B0FB03461A46DA
:104B7C0043F20343C2F200031A704FF00003FB73BD
:104B8C000CE0FB7B3A68D4184FF0FF00FFF79EFB5C
:104B9C0003462370FB7B03F10103FB73FA7BFB7968
:104BAC009A42EED3FFF756FB43F20343C2F20003E3
:104BBC001B7803F00E034FEA6303DBB2184607F1D0
:104BCC001407BD4690BD00BF80B500AFFFF74EFB8C
:104BDC004FF0E200FFF77AFB03461A4643F2034319
:104BEC00C2F200031A70FFF735FB80BD80B500AF31
:104BFC00FFF74AFDFFF7E8FF4FF04000FFF7F0FD2D
:104C0C0043F20143C2F200031B7843F00303DBB20F
:104C1C001846FFF78FFCFFF735FB80BD80B582B0DF
:104C2C0000AF4FF01700FFF70DFE0346FB71FB7949
:104C3C0003F00103002B02D04FF0010301E04FF011
:104C4C000003184607F10807BD4680BD80B584B047
:104C5C0000AF0B463A600246FA71BB71FB79052B2B
:104C6C002ED843F20443C2F200031B7803F0020374
:104C7C00002B27D0FFF7FAFAFB7963F05703DBB26E
:104C8C001846FFF723FB03461A4643F20343C2F2CE
:104C9C0000031A704FF00003FB730AE0FB7B3A68C9
:104CAC00D3181B781846FFF711FBFB7B03F10103AC
:104CBC00FB73FA7BBB799A42F0D3FFF7CBFA02E095
:104CCC0000BF00E000BF07F11007BD4680BD00BF6C
:104CDC0080B582B000AF4FF00900FFF7B3FD03467B
:104CEC00FB71FB7903F00103002B0CBF00230123A4
:104CFC00DBB2184607F10807BD4680BD80B584B00D
:104D0C0000AF0346FB71FB79052B32D84FF0020044
:104D1C00FFF798FD0346FB734FF00100FFF792FD80
:104D2C000346BB73FB794FF0010202FA03F3DBB2CB
:104D3C006FEA0303DAB2FB7B1340DBB2FB73FB7944
:104D4C004FF0010202FA03F3DBB26FEA0303DAB2AB
:104D5C00BB7B1340DBB2BB73FB7B4FF002001946ED
:104D6C00FFF792FDBB7B4FF001001946FFF78CFD5E
:104D7C0000E000BF07F11007BD4680BD80B500AF55
:104D8C004FF002004FF00001FFF77EFD4FF00100E5
:104D9C004FF00001FFF778FD4FF01C004FF00001C1
:104DAC00FFF772FD80BD00BF80B584B000AF024636
:104DBC000B46FA71BB714FF00200FFF743FD03463F
:104DCC00BB734FF00100FFF73DFD0346FB73BB794E
:104DDC00002B0AD0FB794FF0010202FA03F3DAB28E
:104DEC00FB7B1343DBB2FB730CE0FB794FF001024E
:104DFC0002FA03F3DBB26FEA0303DAB2FB7B134074
:104E0C00DBB2FB73FB794FF0010202FA03F3DAB267
:104E1C00BB7B1343DBB2BB73BB7B4FF00200194669
:104E2C00FFF732FDFB7B4FF001001946FFF72CFD1D
:104E3C0007F11007BD4680BD80B584B000AF0346B6
:104E4C00FB71FB79052B02D94FF0000316E04FF0F4
:104E5C000200FFF7F7FC0346FB73FB794FF00102EE
:104E6C0002FA03F2F97BFB794FF0010000FA03F32D
:104E7C000B409A4214BF00230123DBB2184607F102
:104E8C001007BD4680BD00BF80B584B000AF0246A0
:104E9C000B46FA71BB714FF01C00FFF7D3FC0346B5
:104EAC00FB73BB79002B1BD143F20443C2F200030A
:104EBC001B7803F00403002B35D0FA7BFB7942FA04
:104ECC0003F303F00103002B26D1FB794FF0010211
:104EDC0002FA03F3DAB2FB7B1343DBB2FB731BE086
:104EEC00FB794FF0010202FA03F3DBB26FEA030322
:104EFC00DAB2FB7B1340DBB2FB73BB79202B02D9FC
:104F0C004FF02003BB71FB7903F11103DAB2BB79CB
:104F1C0010461946FFF7B8FCFB7B4FF01C001946F6
:104F2C00FFF7B2FC00E000BF07F11007BD4680BDE3
:104F3C0080B584B000AF0346FB71FB7923F00F03FF
:104F4C00FB714FF00400FFF77DFC0346FB73FB7B0A
:104F5C0003F00F03FB73FA79FB7B1343DBB24FF0C7
:104F6C0004001946FFF790FC07F11007BD4680BD01
:104F7C0080B584B000AF0346FB71FB7903F00F03DF
:104F8C00FB714FF00400FFF75DFC0346FB73FB7BEA
:104F9C0023F00F03FB73FA79FB7B1343DBB24FF067
:104FAC0004001946FFF770FC07F11007BD4680BDE1
:104FBC0080B500AF4FF00800FFF744FC034603F048
:104FCC000F03DBB2184680BDE4C09FE5F0412DE92C
:104FDC0000409CE548C194E500005CE353CF84029B
:104FEC0004509CE548C184051F0055E310D04DE2E8
:104FFC000060A0E1150000DAB8009FE5000050E366
:10500C000100001A0000E0E3180000EA190EA0E30A
:10501C000C108DE508208DE504308DE500F020E3C3
:10502C0000C050E20C109DE508209DE504309DE584
:10503C00F3FFFF0A485194E50000A0E304008CE55F
:10504C0000508CE548C184E588018CE58C018CE529
:10505C00000056E304409CE50700001A023084E28D
:10506C00014084E203118CE704408CE50000A0E3CE
:10507C0010D08DE2F041BDE81EFF2FE10100A0E34E
:10508C001004A0E104818CE0020056E388719CE5D9
:10509C00083188E58C319C05007087E100008301A4
:1050AC000850A0E1882088E588718CE58C018C057E
:1050BC00E9FFFFEA207E00000000000008402DE917
:1050CC000010A0E30040A0E1820000EB18309FE547
:1050DC00000093E53C3090E5000053E30FE0A01195
:1050EC0013FF2F110400A0E1E10000EB207E000073
:1050FC0038402DE930509FE530409FE5044065E095
:10510C004441B0E1045185100400000A043035E537
:10511C000FE0A0E113FF2FE1014054E2FAFFFF1A68
:10512C00330B00EB3840BDE81EFF2FE10000000000
:10513C000000000070402DE96C509FE56C609FE50D
:10514C00066065E04661B0E1045045120040A013D2
:10515C000500000A0430B5E5014084E20FE0A0E14F
:10516C0013FF2FE1040056E1F9FFFF1A40509FE5B1
:10517C0040609FE5066065E0170B00EB4661B0E10F
:10518C00045045120040A0130500000A0430B5E598
:10519C00014084E20FE0A0E113FF2FE1040056E18F
:1051AC00F9FFFF1A7040BDE81EFF2FE10000000060
:1051BC0000000000E07D0000E87D0000030010E32B
:1051CC0030002DE90030A0E13700000A000052E366
:1051DC00012042E23200000AFF4001E2020000EA34
:1051EC00000052E3012042E22D00000A0140C3E41A
:1051FC00030013E303C0A0E1F8FFFF1A030052E31E
:10520C002000009AFF4001E20F0052E3044484E1C5
:10521C00044884E10C30A0810250A0810E00009A59
:10522C00105045E20F0055E3004083E5044083E550
:10523C00084083E50C4083E5103083E2F7FFFF8ADA
:10524C00103042E20F30C3E30F2002E2103083E251
:10525C00030052E303C08CE00A00009A0C50A0E15A
:10526C000230A0E1043043E2030053E3044085E440
:10527C00FBFFFF8A043042E20330C3E3043083E2D5
:10528C00032002E203C08CE0000052E3FF10011285
:10529C0002208C100200000A0110CCE402005CE138
:1052AC00FCFFFF1A3000BDE81EFF2FE100C0A0E19B
:1052BC00D1FFFFEA08402DE910309FE5000053E3D1
:1052CC000C009F156200001B0840BDE81EFF2FE17B
:1052DC0000000000FC500000F04F2DE968319FE504
:1052EC00003093E514D04DE204308DE5523F83E25B
:1052FC0008008DE50C308DE50170A0E10180A0E384
:10530C0004309DE5486193E5000056E30CB09DE543
:10531C003300000A045096E5014055E288A08652FD
:10532C001F50855205518A500700005A290000EA87
:10533C00003095E5070053E10500000A014044E206
:10534C00010074E3045045E22200000A000057E318
:10535C00F6FFFF1A043096E505206AE0013043E2BF
:10536C00022086E0040053E1783012E50010A0130F
:10537C000440860578100215000053E3EEFFFF0A87
:10538C001824A0E1881196E5010012E1049096E53D
:10539C001600000A8C1196E5010012E11600001AA5
:1053AC0008009DE5801015E50FE0A0E113FF2FE14B
:1053BC00043096E5090053E1D0FFFF1A00309BE55D
:1053CC00060053E1CDFFFF1A014044E2010074E3F3
:1053DC00045045E2DCFFFF1A70109FE5000051E31A
:1053EC000900001A14D08DE2F04FBDE81EFF2FE12A
:1053FC000FE0A0E113FF2FE1ECFFFFEA800015E5C1
:10540C000FE0A0E113FF2FE1E8FFFFEA043096E57F
:10541C00000053E3003096E50800001A000053E347
:10542C000600000A0600A0E100308BE500F020E346
:10543C0000609BE5000056E3B5FFFF1AE8FFFFEAAA
:10544C0006B0A0E10360A0E1F9FFFFEA207E0000B6
:10545C00000000000010A0E10000A0E308402DE9CE
:10546C000020A0E10030A0E1D6FEFFEB0840BDE833
:10547C001EFF2FE1FEFFFFEA0D4A0E4B10B514681C
:10548C0004EA03030C4CA34209D01268094B02EA4C
:10549C0003030A4A934208D1094B984202D101F105
:1054AC001E0010BD01F13E0010BD002010BD00BF5C
:1054BC0000E00F400000FF700000051000000A1013
:1054CC000080034070B51546FFF7D6FF2946044609
:1054DC0000F078FF2046BDE8704000F0D7BF10B553
:1054EC00FFF7CAFF044601F001F82046BDE8104062
:1054FC0000F080BF836801228A4023EA02038360A4
:10550C00704701238B40C3608268134383607047EC
:10551C003AB1C3684FF0011010FA01F101EA03002F
:10552C00704743680120884040F48030184010F4E4
:10553C00803F07D04FF4803340F4702013FA01F110
:10554C0020EA0100704701238B40C3607047036859
:10555C0001228A4042EA0303036070470368012278
:10556C008A4023EA020303607047F0B58C000F25D4
:10557C004769A540ED4302F00F0605EA0707A64070
:10558C0047EA06064661066A03F0030313FA04F4BD
:10559C00354025430562C469C90030238B4002F0B5
:1055AC00300224EA030312FA01F143EA0101C1615A
:1055BC00F0BD02314901F0B592000F260D5896400E
:1055CC00F64303F00F07974006EA05053D430C1818
:1055DC000D5003F47061A069090A3040914040EA13
:1055EC000101A161606803F0F001090930409140AC
:1055FC0040EA01016160E06903F47001090D91401A
:10560C00304040EA010113F4702FE1610FD0616961
:10561C0003F4E0231B0C934001EA06061E4366616B
:10562C002369012111FA02F243EA020205E023691F
:10563C00012111FA02F223EA02022261F0BD036990
:10564C00012088401840704701238B40036170474C
:10565C008369012088401840704701238B40836187
:10566C007047023149010918002003E08B6842F8A9
:10567C00043B0130CB6813F4807F01D10828F5D1AD
:10568C007047826A0B0C1B0442EA030301F00F0102
:10569C00012212FA01F10B43836270475208002376
:1056AC0001E001335208002AFBD1014A53547047E0
:1056BC0005340020F0B58C1C640120181A4C615C78
:1056CC0004248C40624303F47066012403F0F0055B
:1056DC0014FA01F1360A2D0923E00F2407689440CF
:1056EC00E44304EA070C03F00F0797404CEA070762
:1056FC000760876906FA02FC04EA070747EA0C0709
:10570C00876147683C4015FA02F73C430129446025
:10571C0005D047680624944027EA04044460043208
:10572C0001390029D9D1F0BD05340020F0B58C1C0D
:10573C00640120180DE0084C675C0126BE40002572
:10574C0002E08468013E2D19002EFAD1FD4042F88A
:10575C00045B013BEFD2F0BD053400204908002367
:10576C0001E0013349080029FBD10363704700F5C0
:10577C00606040F82120704700F5646042EA034302
:10578C0040F82130704710B522B101F1100201240C
:10579C0014FA02F21BB1012313FA01F10A43C0F807
:1057AC00002D10BD83684FF480328A4023EA020337
:1057BC008360704783684FF480328A4042EA030367
:1057CC0083607047406B704741637047836823EA7E
:1057DC0001038360704783680B438360704709B192
:1057EC00C0687047406810F4803F18BF40F47020C8
:1057FC007047C3680B43C3607047836B23F003038C
:10580C000B4383637047806B00F003007047416269
:10581C007047406A704703684FF480728A4042EACE
:10582C0003030360704703684FF480728A4023EAD5
:10583C000203036070470068C0F3004070470B0917
:10584C00013A01F00F0103F00F0341EA0211C0F815
:10585C00C43FC0F8C81F7047D0F8C83F21B103F44B
:10586C007C731B0901330B60D0F8C40F000100F0EE
:10587C00F0007047024B1B6813F0010FFAD1704710
:10588C0018F00A4070B50A20094C01F0DFFB032325
:10589C0023600A2001F0DAFB064B00250A201D606C
:1058AC0001F0D4FB0A202560BDE8704001F0CEBBAE
:1058BC00FCD00F40C0E20A4070B5C00901258540FC
:1058CC000A4C0A2001F0C2FB032323600A2001F0DA
:1058DC00BDFB074BED431D600A2001F0B7FB002315
:1058EC000A202360BDE8704001F0B0BBFCD00F4033
:1058FC00C0E20A4010B50D4C022001F0A7FBFFF7E7
:10590C00B9FF236813F00C0F0DD1094801F040FAD0
:10591C00022001F09BFBFFF7ADFF206810F00C009C
:10592C0018BF022010BD022010BD00BF1CF00A40A1
:10593C00005800F0024B186880B28000704700BF1E
:10594C0000F00A40034B04481B6803EA0000000CFB
:10595C00704700BF00F00A400000FF0710B50C4B69
:10596C008C09890801F00F011C60920859600CE049
:10597C00084B1B68013A40F8043B08D0064B1B68E7
:10598C001BB9034B196801311960002AF0D110BD05
:10599C0004F00A4014F00A4008F00A40F8B50C462E
:1059AC002A4B1B6813F0010FFAD1294BA10919607E
:1059BC00A10801F00F0159609508064633E0254A0D
:1059CC00254B116801EA030324498B4205D1136866
:1059DC009BB213B92046FFF76FFF56F8042B204BF0
:1059EC000A201A6001F032FB184B1F6817F0010FE8
:1059FC00FAD117F0100F0DD0164A174B116801EAA7
:105A0C00030316498B421FD113689BB2E3B9FFF70E
:105A1C0039FF19E0013D08D0124B1B681BB90C4B28
:105A2C001A6801321A60002DC9D10A4A0A4B116852
:105A3C0001EA030309498B4204D113689BB20BB9E9
:105A4C00FFF720FF014B1F683846F8BD18F00A40DD
:105A5C0004F00A4000E00F400000FF700000051049
:105A6C0014F00A4008F00A400D4A38B50D460D4BAB
:105A7C00116801EA03030C498B42044605D11368F3
:105A8C009BB213B92846FFF717FF084BAA09AD08BC
:105A9C0005F00F051A605D601C61586938BD00BFC8
:105AAC0000E00F400000FF700000051004F00A40F9
:105ABC000E4A08B511680E4B01EA03030D498B42DF
:105ACC0004D113689BB20BB9FFF7DCFE0A4A0B4BEF
:105ADC001A60FFF7CFFE0A4801F05AF9022001F0D4
:105AEC00B5FAFFF7C7FE074B186808BD00E00F407A
:105AFC000000FF700000051001007BE380F00A40FD
:105B0C00005800F018F00A40014B1860D86A704732
:105B1C0004F00A40044B1860D962044B1A6812F066
:105B2C00010FFAD11868704704F00A4018F00A40C7
:105B3C00094B1860303309E051F8040B43F8040B9F
:105B4C00013A0648006810F0010FFAD1002AF3D18F
:105B5C00024B1868704700BF04F00A4018F00A4066
:105B6C00034B4FF0FF321860DA61D869704700BF01
:105B7C0004F00A40084B18604FF0FF30D86113183E
:105B8C0001EB830303E053F80419013A0160034865
:105B9C00002AF8D10068704704F00A4020F00A404F
:105BAC000123024A83401360704700BF50F00A4043
:105BBC00054B1A6842F001021A60044B1A6842F055
:105BCC0004021A60704700BF40F00A4010D00F402A
:105BDC00054B1A6822F004021A60044B1A6822F072
:105BEC0001021A60704700BF10D00F4040F00A400D
:105BFC0020B1074B186800F004007047054B18687B
:105C0C0000F0010000280CBF04200020704700BFEA
:105C1C0014D00F4018F00A40084B04221A60084AAE
:105C2C00084B116801EA030307498B4204D113683E
:105C3C009BB20BB9FFF726BE704700BF14D00F40C4
:105C4C0000E00F400000FF7000000510014B1868C9
:105C5C00704700BF18F00A400C4B0D491A680D4BE9
:105C6C0010B502EA03030C4C0C4AA34218BF0A46B7
:105C7C000023D458844202EB030101D1486810BDC3
:105C8C000833C02BF5D1002010BD00BF00E00F4041
:105C9C00747F00000000FF7000000A10247E0000DA
:105CAC00D0F8003412F0010F10B500F5806414BF69
:105CBC000B438B43236012F0020FD0F8202400F525
:105CCC00846314BF114322EA0101196010BD012342
:105CDC008B4010B5D0F80044D0F82024DBB223421E
:105CEC000CBF0021012113400CBF184602200843B1
:105CFC0010BDD0F8083410B512F0010F00F5816416
:105D0C0014BF0B438B432360D0F8044400F580632D
:105D1C0012F0020F03F1040314BF0C438C431C60FC
:105D2C00D0F80C4400F5806312F0040F03F10C035F
:105D3C0014BF214324EA01011960D0F8383512F45C
:105D4C00803F00F5A76214BF43F0010323F0010369
:105D5C00136010BD012370B58B40D0F80864D0F8E7
:105D6C000454D0F80C44D0F83825DBB233420CBFC5
:105D7C00002101211D4018BF02251C4018BF04241E
:105D8C000D4345EA040302F001021A430CBF10460E
:105D9C004FF4803070BDF0B5560906F003060024B0
:105DAC0051FA04F515F0010F11D0D0F8C47F65003D
:105DBC004FF0030C0CFA05FC27EA0C07C0F8C47F63
:105DCC00D0F8C47F16FA05F53D43C0F8C45F013422
:105DDC00082CE5D1D0F8004512F0010F00F5A065B4
:105DEC0014BF0C438C432C60D0F8045500F5A06410
:105DFC0012F0020F04F1040414BF0D438D4325600F
:105E0C00D0F8084512F0040F00F5A16514BF0C433F
:105E1C008C432C60D0F8184512F0080F00F5A365E0
:105E2C0014BF0C438C432C60D0F83C4512F0100F7F
:105E3C0000F5A66202F10C0214BF0C438C431460F3
:105E4C00D0F80C4500F5A06213F0010F02F10C0222
:105E5C0014BF0C438C431460D0F8102513F0020FC0
:105E6C0000F5A26414BF0A438A432260D0F814459B
:105E7C0000F5A26213F0040F02F1040214BF0C43EC
:105E8C008C431460D0F81C4500F5A26213F0080F87
:105E9C0002F10C0214BF0C438C431460D0F844453F
:105EAC0000F5A86213F4007F02F1040214BF0C4346
:105EBC008C431460D0F8402513F4407F00F5A8649F
:105ECC0014BF0A438A43226000F5A56223B9D0F8B7
:105EDC00283543EA010103E0D0F8283523EA010113
:105EEC001160F0BD2DE9F04301248C40D0F8001571
:105EFC00E4B20C42D0F804150CBF00270127214056
:105F0C000CBF8C464FF0020CD0F8081521400CBF8A
:105F1C0088464FF00408D0F8181521400CBF0E46E7
:105F2C000826D0F83C15D0F8C49F21400CBF0D4674
:105F3C001025610029FA01F101F0030147EA411132
:105F4C0041EA0C0141EA0801314329431160D0F8C0
:105F5C000C25D0F8101514420CBF0025012514EAAD
:105F6C000102D0F8141518BF0222214018BF0421D9
:105F7C002A430A43D0F81C15214018BF08210A43B4
:105F8C00D0F840150C4208D0D0F844150C420CBF88
:105F9C004FF480714FF400710A431A60BDE8F0832E
:105FAC00D0F810340B43C0F810347047D0F81034CC
:105FBC0023EA0103C0F81034704711B1D0F818046B
:105FCC007047D0F814047047C0F81C14704770B5B3
:105FDC000D46FFF741FE2946044600F0F3F9204632
:105FEC00BDE8704000F052BA10B5FFF735FE04461C
:105FFC0000F07CFA2046BDE8104000F0FBB950F8E8
:10600C002100704740F82120704770B500220546EA
:10601C000C46FFF745FE2846214601220023BDE829
:10602C007040FFF7B8BE70B5022205460C46FFF76C
:10603C0037FE2846214666220823BDE87040FFF74C
:10604C00AABE70B5002205460C46FFF729FE28466D
:10605C00214601220023BDE87040FFF79CBE70B5BD
:10606C00022205460C46FFF71BFE284621466622F7
:10607C000823BDE87040FFF78EBE70B502220546BE
:10608C000C46FFF70DFE2846214666220823BDE884
:10609C007040FFF780BE70B5022205460C46FFF734
:1060AC00FFFD2846214666220823BDE87040FFF715
:1060BC0072BE70B5002205460C46FFF7F1FD28466E
:1060CC00214601220823BDE87040FFF764BE70B57D
:1060DC000122082305460C46FFF75DFE28462146A3
:1060EC000122BDE87040FFF7DBBD70B5012209232A
:1060FC0005460C46FFF74FFE284621460122BDE817
:10610C007040FFF7CDBD70B5022205460C46FFF777
:10611C00C7FD2846214601220923BDE87040FFF740
:10612C003ABE70B5022205460C46FFF7B9FD28466B
:10613C00214601220823BDE87040FFF72CBE70B544
:10614C00022205460C46FFF7ABFD28462146662287
:10615C000823BDE87040FFF71EBE70B5022205464D
:10616C000C46FFF79DFD2846214666220823BDE814
:10617C007040FFF710BE70B5002205460C46FFF7C5
:10618C008FFD2846214601220023BDE87040FFF711
:10619C0002BE70B5022205460C46FFF781FD28466B
:1061AC00214601220823BDE87040FFF7F4BD70B50D
:1061BC00022205460C46FFF773FD284621460122B4
:1061CC000823BDE87040FFF7E6BD70B50222054616
:1061DC000C46FFF765FD2846214601220A23BDE83F
:1061EC007040FFF7D8BD70B5022205460C46FFF78C
:1061FC0057FD2846214601220823BDE87040FFF7D1
:10620C00CABD70B5022205460C46FFF749FD28466B
:10621C00214601220823BDE87040FFF7BCBD70B5D4
:10622C00022205460C46FFF73BFD2846214601227B
:10623C000823BDE87040FFF7AEBD70B500220546DF
:10624C000C46FFF72DFD2846214601220023BDE810
:10625C007040FFF7A0BD70B5022205460C46FFF753
:10626C001FFD2846214601220823BDE87040FFF798
:10627C0092BD70B5002205460C46FFF711FD28466D
:10628C00214601224FF40273BDE87040FFF783BD35
:10629C0070B5002205460C46FFF702FD2846214644
:1062AC0001224FF48473BDE87040FFF774BD70B5E4
:1062BC00022205460C46FFF7F3FC28462146012234
:1062CC000823BDE87040FFF766BD70B50222054695
:1062DC000C46FFF7E5FC2846214601220A23BDE8BF
:1062EC007040FFF758BD70B5022205460C46FFF70B
:1062FC00D7FC2846214666220823BDE87040FFF7EC
:10630C004ABD70B5022205460C46FFF7C9FC28466B
:10631C00214601220823BDE87040FFF73CBD00F583
:10632C00A9607047104B020C1B6802F0FF020121A0
:10633C00914019424FEA420218BF01320B4B53F8FD
:10634C002230020A10B502F0FF02D3F82C450F21BF
:10635C00914000F00F0024EA010110FA02F241EA28
:10636C000202C3F82C2510BD6CE00F40E47E000047
:10637C00D0F834350B43C0F834357047D0F8343589
:10638C0023EA0103C0F834357047D0F830350B439D
:10639C00C0F830357047D0F8303523EA0103C0F827
:1063AC0030357047FEE708B501F007FD003818BF1F
:1063BC00012008BD08B501F0F9FC003818BF012018
:1063CC0008BD0000094B0A4A70B51C68944214467B
:1063DC0009D01D6800235E59E6500433B3F51B7FCA
:1063EC00F9D1024B1A6044F8201070BD08ED00E0A2
:1063FC0000080020024A034B43F82020704700BFDE
:10640C00B163000000080020044B054A53F820300B
:10641C0043F0BE6343F420231360704734800000C4
:10642C000CED00E0064B1A68064B02F4E06200200B
:10643C0053F8041F8A4202D001300828F8D1704763
:10644C000CED00E0308000008208084B53F822303D
:10645C0000F0030010B5C0001C68FF22824024EA43
:10646C00020211FA00F002431A6010BD7C80000099
:10647C008208054B53F8223000F003001B68C00063
:10648C0033FA00F0C0B270477C800000042804D1BD
:10649C00134B1A6842F4803205E0052805D1104BE5
:1064AC001A6842F400321A607047062804D10C4B6B
:1064BC001A6842F48022F6E70F2804D1094B1A68B7
:1064CC0042F00202EFE70AD910384209064B00F0FD
:1064DC001F0053F82230012212FA00F018607047A6
:1064EC0024ED00E010E000E018810000042804D145
:1064FC00134B1A6822F4803205E0052805D1104BA5
:10650C001A6822F400321A607047062804D10C4B2A
:10651C001A6822F48022F6E70F2804D1094B1A6876
:10652C0022F00202EFE70AD910384209064B00F0BC
:10653C001F0053F82230012212FA00F01860704745
:10654C0024ED00E010E000E054800000042804D1A9
:10655C00144B186800F480307047052804D1114B97
:10656C00186800F400307047062804D10D4B1868E9
:10657C0000F4802070470F2804D10B4B186800F0F2
:10658C00020070470CD910384209084B53F82230DE
:10659C0000F01F001B68012212FA00F0184070472F
:1065AC000020704724ED00E010E000E018810000AE
:1065BC00022804D1104B1A6842F0004205E00E2864
:1065CC0005D10D4B1A6842F080521A6070470F28A3
:1065DC0004D1094B1A6842F08062F6E70AD91038E8
:1065EC004209064B00F01F0053F82230012212FA28
:1065FC0000F01860704700BF04ED00E068800000F8
:10660C000E2804D10C4B1A6842F0006205E00F28EA
:10661C0005D1094B1A6842F000721A6070470AD90A
:10662C0010384209054B00F01F0053F822300122AC
:10663C0012FA00F01860704704ED00E02C810000A5
:10664C0001F0C1BB01F0C2BB014B103818607047A0
:10665C0000EF00E0404B0918994241D009D8803B2B
:10666C00994227D0403399422FD0803B99426ED12A
:10667C000EE03A4B994249D003D8403B994266D13F
:10668C0039E0374B99424CD0403399425FD153E0BB
:10669C00344A354B116801EA030334498B4258D014
:1066AC001268314B324802EA030383420CBF1A20B2
:1066BC00002070472B4B2E481A682B4B02EA030321
:1066CC0083420CBF1B2000207047264B28481A68B9
:1066DC00254B02EA030383420CBF1C2000207047A9
:1066EC00204B23481A68204B02EA030383420CBF59
:1066FC003B20002070471B4B1C481A681A4B02EABF
:10670C00030383420CBF962000207047154B17489B
:10671C001A68154B02EA030383420CBF9720002032
:10672C007047104B11481A680F4B02EA030383425F
:10673C000CBF9820002070470A4B0C481A680A4B73
:10674C0002EA030383420CBF99200020704700200B
:10675C0070471A20704700BF0081024080900240B1
:10676C00C090024000E00F400000FF7000000510D8
:10677C0000000A100E4A0F4B116801EA03030E4980
:10678C008B4205D10D4B984214BF9A2019207047AB
:10679C001268084B02EA0303094A934205D1074BDE
:1067AC0098420CBF1920002070470020704700BF92
:1067BC0000E00F400000FF70000005100080024058
:1067CC0000000A1030B50D580A4C05EA04041443B5
:1067DC0012F0020F01EB00030C5004D0B0221A622D
:1067EC004FF4306203E08C221A6240F60C025A62BB
:1067FC0030BD00BF0100F8FF0B18095811F0020F53
:10680C0001D0520800E0013A1A6170470A5812F0A0
:10681C00020F01EB000302D01869400070471869A1
:10682C00013070470B5843F001030B5070470B5865
:10683C0023F001030B50704710B521F03F042318CF
:10684C00205810F0020F186918BF5208821A11F064
:10685C00010F14BFDA619A6110BD10B521F03F042D
:10686C002218034611F0010F106914BFD269926906
:10687C00E358801A13F0020F18BF400010BD09181E
:10688C00CA620B638B6A43F001038B62704728303A
:10689C00435823F001034350704701607047416037
:1068AC0070471AB1836843EA010102E0836823EA66
:1068BC000101816070471AB1C36843EA010102E02B
:1068CC00C36823EA0101C16070471AB1436A43EA05
:1068DC00010102E0436A23EA0101416270471AB1E7
:1068EC00036943EA010102E0036923EA0101016142
:1068FC00704770B51546FFF7ADFE29460446FFF705
:10690C0061FD2046BDE87040FFF7C0BD10B5FFF734
:10691C00A1FE0446FFF7EAFD2046BDE81040FFF754
:10692C0069BD70B50D46FFF725FF29460446FFF7F4
:10693C0049FD2046BDE87040FFF7A8BD10B5FFF734
:10694C0019FF0446FFF7D2FD2046BDE81040FFF7C3
:10695C0051BD0430435813434350704704304358DF
:10696C0023EA02034350704709180AB1C8687047FC
:10697C00886870470C304250704743690B43436141
:10698C007047436923EA0103436170474FF4803336
:10699C00C361704709B1C069704780697047C161B4
:1069AC00704710B500F13C0400F50060625001F135
:1069BC000041403940F8113010BD0AB9343000E0C4
:1069CC0038304350704712B9343040587047383023
:1069DC004058704701F1004100F5006040391AB988
:1069EC00043050F811007047083050F8110070470F
:1069FC0001F1004100F5006040390AB9043000E0B3
:106A0C00083040F811307047D0F8C83F23F4827337
:106A1C0023F003030B43C0F8C83F7047D0F8C83FBE
:106A2C0013F4807306D0D0F8C83F40F2071003EA85
:106A3C0000007047184670470023F0B51C461D46F1
:106A4C0001260E4205D012FA03F73C4303279F4060
:106A5C003D430233102B01D07600F2E7836A23EA20
:106A6C00050545EA04048462F0BD00000C4B0D4999
:106A7C001A680D4B10B502EA03030C4C0C4AA342E6
:106A8C0018BF0A460023D458844202EB030101D1FB
:106A9C00486810BD0833202BF5D1002010BD00BF75
:106AAC0000E00F40408100000000FF7000000A1061
:106ABC0060810000022B10B502D023B1002300E04E
:106ACC000823042400E01C4623434360029BB1FBD3
:106ADC00F3F100230233B1FBF3F4013CFF2CF9D8A2
:106AEC000361930103F0FF0302F0300243EA020258
:106AFC00039B013B1A4342EA0424046010BD436823
:106B0C0043F0020343607047436823F00203436081
:106B1C00704770B50D46FFF7A9FF29460446FFF7ED
:106B2C0051FC2046BDE87040FFF7B0BC10B5FFF734
:106B3C009DFF0446FFF7DAFC2046BDE81040FFF746
:106B4C0059BC43690B4343617047436923EA010312
:106B5C004361704709B1C069704780697047016231
:106B6C007047C36813F0020FFBD081607047C36895
:106B7C0013F0020302D08160012070471846704761
:106B8C00C36813F0040FFBD083680B607047C368B5
:106B9C0013F0040303D0836801200B607047184680
:106BAC007047436A0B4343627047436A23EA01030D
:106BBC0043627047C068C0F300107047C0F8C81F2C
:106BCC007047D0F8C80F7047436823F4E0730B4349
:106BDC0043607047C36813F0020FFBD0436843F463
:106BEC000063436081607047C36813F0020306D0F2
:106BFC00436843F40063436081600120704718468A
:106C0C007047436843F4806343607047436823F4E0
:106C1C00806343607047000010B50023064A52F8A9
:106C2C003340D900A04202D85218506810BD01332D
:106C3C00062BF3D1002010BDA8820000024B18686F
:106C4C0001300002704700BFC4DF0F400A4B1A68C6
:106C5C000A4B02EA03030A4A934206D1094B18680D
:106C6C0080B2C00200F500607047074B186880B214
:106C7C000130C002704700BF00E00F400000FF7001
:106C8C000000051008E00F40C0DF0F400A4B1A68E7
:106C9C000A4B02EA03030A4A934209D1094B1868CA
:106CAC0000F4E020000C0A30012313FA00F07047C6
:106CBC004FF48060704700BF00E00F400000FF7091
:106CCC0000000A10C0DF0F400B4B00F47F4200F0B5
:106CDC00FF0003EB1223800003F0704240F00070C1
:106CEC0023F07F43104323F4700340EA43131868E6
:106CFC00003818BF0120704700E30F400B4B00F425
:106D0C007F4200F0FF0003EB1223800003F070427F
:106D1C0040F0007023F07F43104323F4700340EAEB
:106D2C0043131868003818BF0120704700EA0F4061
:106D3C000A4B00F47F4200F0FF0003EB12238000AB
:106D4C0003F0704240F0007023F07F43104323F4B3
:106D5C00700340EA431301221A60704700E90F40A8
:106D6C000A4B00F47F4200F0FF0003EB122380007B
:106D7C0003F0704240F0007023F07F43104323F483
:106D8C00700340EA431300221A60704700E90F4079
:106D9C0000F47F420F4B120A00F0FF00D318800062
:106DAC0003F0704240F0007023F07F43104323F453
:106DBC00700340EA431301221A6082B0013A01E0E9
:106DCC00019A01320192019A0F2AF9D900221A6014
:106DDC0002B0704700E50F400A4B00F47F4200F010
:106DEC00FF0003EB1223800003F0704240F00070B0
:106DFC0023F07F43104323F4700340EA4313012232
:106E0C001A60704700E60F400A4B00F47F4200F016
:106E1C00FF0003EB1223800003F0704240F000707F
:106E2C0023F07F43104323F4700340EA4313002202
:106E3C001A60704700E60F400A4B00F47F4200F0E6
:106E4C00FF0003EB1223800003F0704240F000704F
:106E5C0023F07F43104323F4700340EA43130122D1
:106E6C001A60704700E70F400A4B00F47F4200F0B5
:106E7C00FF0003EB1223800003F0704240F000701F
:106E8C0023F07F43104323F4700340EA43130022A2
:106E9C001A60704700E70F400A4B00F47F4200F085
:106EAC00FF0003EB1223800003F0704240F00070EF
:106EBC0023F07F43104323F4700340EA4313012271
:106ECC001A60704700E80F400A4B00F47F4200F054
:106EDC00FF0003EB1223800003F0704240F00070BF
:106EEC0023F07F43104323F4700340EA4313002242
:106EFC001A60704700E80F400E4B1A680E4B02EAFE
:106F0C0003030E4A934209D10D4B18B11A6842F093
:106F1C0000620CE01A6822F0006208E0094B18B11C
:106F2C001A6842F0005202E01A6822F000521A600D
:106F3C00704700BF00E00F400000FF70000005101C
:106F4C0060E00F40B0E00F4010B501462C20FFF779
:106F5C0039FA2C20BDE81040FFF798BA10B52C2058
:106F6C00FFF7C4FA2C20BDE81040FFF743BA00002D
:106F7C00024B1A6840EA02021A60704754E00F4054
:106F8C00024B1A6822EA00021A60704754E00F4064
:106F9C00014B1860704700BF58E00F4010B1034B15
:106FAC0018687047024B1868704700BF58E00F40D4
:106FBC0050E00F40014B1860704700BFB4E10F4028
:106FCC00014B1868704700BFB4E10F40014B1860CB
:106FDC00704700BFBCE10F40014B1868704700BF01
:106FEC00BCE10F40014B1860704700BF88E10F40B7
:106FFC00014B1860704700BF8CE10F40014A024BF7
:10700C001A60FEE70400FA050CED00E000F0D9BEB2
:10701C0010B5064C236843F00403236000F0D1FE46
:10702C00236823F00403236010BD00BF10ED00E0C3
:10703C00014B1868704700BF5CE00F40024B1A68A8
:10704C0022EA00021A6070475CE00F400138FDD163
:10705C0070470000014B1860704700BF7CE00F4088
:10706C00104B00EA03033BB10F4A00F000431360DE
:10707C000E4B00EA030313600B4B10F4007F1860F7
:10708C000DD00B4B1A6812F4407FFAD0186800F43C
:10709C004070A0F58073584240EB0300704701200C
:1070AC00704700BF0001008050E10F407F0000805E
:1070BC0054E10F40014B1860704700BFD8E10F40FE
:1070CC00014B1868704700BFD8E10F402DE9F84319
:1070DC00864B1A68864B02EA0303864A93420C4697
:1070EC0000F0FC8000F03803102B1BD000F4F86784
:1070FC00BF09302B1AD0382B1DD00BBBA7F10902BE
:10710C00112A00F2ED807C4A7C4952F827600A680B
:10711C00062F22F01C02C8BF42F010020A604FF08A
:10712C004C750FE00025764E15270BE04FF400153B
:10713C0047F2305606E04FF480054FF4004601E06C
:10714C0000252E4610F4605240F09B8013B1102B9A
:10715C0040F0C880000E00F007086A48FFF75CFD9D
:10716C00694B6A4A18601168694B01EA030343F0E2
:10717C0000431360674B093F1868674B122101FBF2
:10718C00087103EBC10252689042184609D1DFF82E
:10719C0090E153F83130DEF800E043F400039E45F3
:1071AC0015D05A4B196845EA010119601221C3F830
:1071BC00B42001FB0877D3F8B02050F8371002F454
:1071CC0000020A43C3F8B0204FF0010901E04FF070
:1071DC000009524B524F53F828304E49621E02EBB5
:1071EC0003083A684F4BB8FBF4F802EA03033A6819
:1071FC0008680C6804F01F040134D90BB6FBF4F6D4
:10720C0001FB06F44901C1EB932373439B0A03EB87
:10721C005414920500F4F853920D1B0A013302FB2F
:10722C000646B6FBF3F4B4FBF8F42046FFF7F4FC87
:10723C00354B18603B6813F4000F08D0B9F1000F00
:10724C0009D0324B1A6842F080421A6003E03B6866
:10725C0043F400033B604FF40043334A126812F0CE
:10726C00010F02D1013BF8D13AE0284B1A6808F122
:10727C00FF3842F0104242EA080848EA05051D6052
:10728C0031E01F48FFF7C8FC1F4B1860D3F8A02053
:10729C0022F40002C3F8A0201C4A244B116801EA16
:1072AC00030343F0004313603CB1B6FBF4F707B1A2
:1072BC00013F7C1CB6FBF4F400E027462046FFF7A8
:1072CC00ABFC114B186053F8102C42F0004242EA10
:1072DC00050545EA872743F8107C04E0002402E00A
:1072EC001C4600E014462046BDE8F88300E00F4041
:1072FC000000FF7000000510D88200007CE00F40F9
:10730C000024F40040787D01C0E00F40B0E00F4055
:10731C0000FC0FE064E10F4080810000A0820000BF
:10732C0060E10F4000FC0F0068E10F40FF0300EF2D
:10733C004149F0B5414E0D68346845F4006525F4BB
:10734C00800344F4006415F0010F0B60346016D018
:10735C0010F0010F13D160F001021340384A4FF4C2
:10736C00807515600B604FF4002201E0013A62D089
:10737C003449096811F4807FF8D0002A5BD000F4FE
:10738C00FE6223F4FE6330492D4E134324F0004279
:10739C0000EA010122F0700241EA020200F0080149
:1073AC0042EAC102244C2549236000F400550A60CE
:1073BC0023F4005322F400522B4340272A43376016
:1073CC004EBF0A6023600A60204948BF236023F047
:1073DC00F86300EA010123F001030B4322F0FC5295
:1073EC0000F0FC5110F0804F42EA010208D018491D
:1073FC0022F4800200EA010143F480030A4301E015
:10740C0022F0804210F4006F0CD14FF4004111486F
:10741C00006810F0010F01D10139F8D123F4006399
:10742C0022F4006204490B60044B10201A60BDE882
:10743C00F040FFF70BBEF0BD60E00F4070E00F4076
:10744C0058E00F4050E00F40300000800100C007B2
:10745C000000404068E10F40494B19681A69002A46
:10746C00B4BF02F0700301F03003202B30B519D0FB
:10747C0004D853B1102B40F0818004E0302B0BD09A
:10748C00702B7BD10BE03F4B0DE001F4F8608009D1
:10749C003D4B53F8203006E047F2305303E04FF4F5
:1074AC00004300E0394B002A02DA12F4006F01E0CD
:1074BC0011F4006F3DD136480568043041F4800169
:1074CC00006800F01F0400F4F8500134000A640056
:1074DC00013060432F4C05EA0404B3FBF0F3A40A1B
:1074EC005C43A805800DA40A00FB03432A480068EE
:1074FC0000F47040B0F5405F13D006D8B0F5805F53
:10750C001AD0B0F5005F14D109E0B0F5E04F0CD003
:10751C00B0F5104F0BD0B0F5804F0AD103E01F48E7
:10752C000BE01F4809E01F4807E01F4805E01F4813
:10753C0003E04FF0FF3000E01D4811F4800F19D02C
:10754C00002A11DA12F0804F07D012F4006F04D128
:10755C0002F0FE525B00920D02E002F0FC52D20DE2
:10756C000132B3FBF2F305E001F0F061C90D01311A
:10757C00B3FBF1F3834238BF184630BD002030BD59
:10758C0060E00F400024F400D882000000093D00A8
:10759C0060E10F4000FC0F0010E00F40AA40F9031F
:1075AC0080F0FA02005A620240787D01002D310110
:1075BC0000B4C404014B1860704700BF44E10F4095
:1075CC00154B1A68154B02EA0303154A934200F156
:1075DC00FF3004D121F0FC5141EAC05018E001F019
:1075EC007003302B05D0702B06D03BB940F4401003
:1075FC0004E040F4001001E040F4800011F0020FB0
:10760C0018BF40F0004011F0804F18BF40F0804090
:10761C00044B1860704700BF00E00F400000FF7083
:10762C000000051044E10F40034B1A6822F4F012DD
:10763C0040EA02021A60704760E00F40044B186881
:10764C0010F480101CBF186800F4F010704700BFD5
:10765C0060E00F40054B00F00F001A68012111FA91
:10766C0000F040EA02021A60704700BF6CE00F4065
:10767C00054B00F00F001A68012111FA00F022EA04
:10768C0000021A60704700BF6CE00F40024B1A6892
:10769C0022F480421A60704770E00F40024B1A6867
:1076AC0042F480421A60704770E00F40014B186042
:1076BC00704700BF38E00F40014B1868704700BF9F
:1076CC0060E00F40024B1A6840EA02021A607047F1
:1076DC0060E00F40014B1868704700BF64E00F403A
:1076EC00024B1A6822EA00021A60704764E00F40ED
:1076FC00013901F0FF01024B01431960704700BFD3
:10770C0048E10F40014B1860704700BF38E10F4053
:10771C000F4B1A680F4B02EA03030F4A93420F4AAE
:10772C000F4B30B508BF13460CBF08240C240022A5
:10773C001D68854205D1B1F57F4F586806D10130DF
:10774C0030BD01320833A242F2D3002030BD00BF5D
:10775C0000E00F400000FF7000000A10448300009E
:10776C0084830000C26840F2011301EA030342EA79
:10777C000303C3607047C26840F2011301EA0303BC
:10778C0022EA0303C3607047C36823F4807323F0B9
:10779C000103C3600B0E0360114B1A68114B02EA14
:1077AC000303114A934201F0FF030ED101F470223E
:1077BC0043F4007343EA1213436001F47003090AA3
:1077CC0001F0FF0141EA132105E043F40073090ABB
:1077DC00436001F0FF0141F400718160704700BF0C
:1077EC0000E00F400000FF7000000A1044F240035C
:1077FC0001EA030300F10C011AB1C26842EA030367
:10780C0002E0C26822EA03030B607047134B30B5E9
:10781C001C68134B04EA0303124CA3420ED140F232
:10782C00011301EA030300F170041AB1056F45EA74
:10783C00030302E0056F25EA0303236042F22003F1
:10784C0001EA030300F10C011AB1C26842EA030316
:10785C0002E0C26822EA03030B6030BD00E00F4077
:10786C000000FF7000000A1040F60C4301EA03030D
:10787C00C16821EA030102EA03031943C16070479E
:10788C0040F2022301EA030300F10C011AB1C268B1
:10789C0042EA030302E0C26822EA03030B6070476A
:1078AC0011F0FF0F08D01AB1436843F0400302E017
:1078BC00436823F04003436011F47F4F09D022B199
:1078CC00836843F0400383607047836823F0400370
:1078DC0083607047C36843F01003C3607047C3688C
:1078EC0023F01003C3607047C0F8C81F7047D0F86E
:1078FC00C80F704711F0FF0F18BF826311F47F4F50
:10790C0018BFC2637047FF290CBF806BC06B7047F8
:10791C0011F0FF0F18BF026411F47F4F18BF4264BF
:10792C007047FF290CBF006C406C704711F0FF0FC3
:10793C0018BF826211F47F4F18BFC2627047FF29D3
:10794C000CBF806AC06A7047C3628262704710B510
:10795C00C16A846AC36A9942FAD100222243104652
:10796C0010BDFF290CBF806CC06C704710B5C16C8A
:10797C00846CC36C9942FAD100222243104610BD8C
:10798C0011F0FF0F18BF026311F47F4F18BF426351
:10799C007047FF290CBF006B406B70474363026359
:1079AC00704710B5416B046B436B9942FAD10022BE
:1079BC002243104610BD70B51546FFF7A9FE2946A7
:1079CC000446FEF7FFFC2046BDE87040FEF75EBDA6
:1079DC0010B5FFF79DFE0446FEF788FD2046BDE876
:1079EC001040FEF707BD83690B43836170478369C1
:1079FC0023EA01038361704709B1006A7047C069CB
:107A0C007047416270470161704701677047006FB2
:107A1C007047C1667047C06E704701F0FF03FF2BC3
:107A2C0004D1436823F4A0631343436001F47F4102
:107A3C00B1F57F4F05D1836823F4A06343EA0202BA
:107A4C0082607047014B01221A60704704F00F40AE
:107A5C00014B00221A60704704F00F40014B18686C
:107A6C00704700BF4CF00F40014B01221A60704769
:107A7C004CF00F40012300F01F0013FA00F0014BF3
:107A8C001860704728F00F40012300F01F0013FA14
:107A9C0000F0014B186070472CF00F40054B012291
:107AAC001B6800F01F0012FA00F018420CBF0020F7
:107ABC000120704728F00F40014B1860704700BF41
:107ACC0008F00F40014B1868704700BF08F00F40DA
