:10200000E00A00203148000037480000394800004D
:102010003B4800003B4800003B4800000000000037
:102020000000000000000000000000003B4800002D
:102030003B480000000000003B480000D13D00008C
:10204000233E00003B4800003B4800003B480000A6
:102050003B4800003B4800003B4800003B48000074
:102060003B4800003B4800003B4800003B48000064
:102070003B4800003B4800003B4800003B48000054
:102080003B4800008F2F00003B4800003B48000009
:102090003B480000593000003B4800003B4800002E
:1020A0003B4800003B4800003B4800003B48000024
:1020B0003B4800003B4800003B4800003B48000014
:1020C0003B4800003B4800003B4800003B48000004
:1020D0003B4800003B4800003B4800003B480000F4
:1020E0003B48000000000000000000003B480000EA
:1020F0003B4800003B4800003B4800003F300000E8
:102100003B4800003B4800003B480000E72F000030
:1021100000000000000000003B4800003B480000B9
:102120003B4800003B4800003B4800003B480000A3
:102130003B4800003B4800003B4800003B48000093
:10214000000000000000000000000000000000008F
:102150003B4800003B4800003B4800003B48000073
:10216000000000000000000000000000000000006F
:10217000000000000000000000000000000000005F
:10218000000000000000000000000000000000004F
:10219000000000000000000000000000000000003F
:1021A000000000000000000000000000000000002F
:1021B0003B4800003B4800003B4800003B48000013
:1021C0003B4800003B4800003B4800003B48000003
:1021D0003B4800003B4800003B4800003B480000F3
:1021E0003B4800003B4800003B4800000000000066
:1021F000000000003B4800003B4800003B48000056
:102200003B4800003B4800000000000000000000C8
:102210003B4800003B4800003B4800003B480000B2
:102220003B4800003B4800003B4800003B480000A2
:102230003B4800003B4800003B4800003B48000092
:102240003B4800003B4800003B4800003B48000082
:102250003B4800003B4800003B4800003B48000072
:0C2260003B4800003B4800003B480000E9
:10226C000EB500900098407A01F074FB02F07DFAF4
:10227C0002F07EF914208DF804009DF8040058B18A
:10228C00BC4802F0A0F89DF80400401E8DF8040034
:10229C009DF804000028F3D1702000F04EF900F0F6
:1022AC0020FB0098807900F0C9FB0098C07900F001
:1022BC00E2FB009A0099009852788978807A114351
:1022CC00084300F06CF80098C07800F077F800989C
:1022DC00007800F07EF8BA49002008700098007A67
:1022EC0000F011F800F0C2F900F063FA00990098C0
:1022FC000A794079C649104308700098C54900789E
:10230C00801C08700EBD08B58DF80000AC490A7829
:10231C009DF800009DF80010104081420FD0A84994
:10232C009DF800000A7810430870A549087800F061
:10233C0007000870A24801781D2001F0D5FF08BDE8
:10234C0008B58DF800009E489DF8001000780142F9
:10235C000AD09B499DF80020087890430870984853
:10236C0001781D2001F0C0FF08BD08B5082001F060
:10237C00A1FFC0F3031008BD08B5032001F09AFFBC
:10238C008DF800009DF80010002011F0FC0F05D115
:10239C009DF8001011F0030F00D0012008BD08B506
:1023AC008DF800009DF8000000F00F008DF8000083
:1023BC009DF80010062001F097FF08BD08B58DF8B8
:1023CC0000009DF80010052001F07F0101F08CFF4A
:1023DC0008BD08B58DF800009DF8000000F0030062
:1023EC008DF800009DF80010032001F07DFF08BD62
:1023FC0008B5FFF7C1FF08B9002025E0002001F067
:10240C0059FF8DF800009DF80000800801D20120D2
:10241C001AE002F001FA08B9022015E09DF800005C
:10242C00400809D3062001F045FF10F0900F01D0B1
:10243C00202009E0102007E0172001F03BFF4009A5
:10244C0001D3042000E0082008BD08B502F090F884
:10245C006F48007840F0010002F0F4F808BD08B5B0
:10246C00002001F027FF8DF8000002F081F89DF8A4
:10247C000000800813D29DF80000400806D3644881
:10248C00007840F0030002F0DDF805E060480078C9
:10249C0040F0020002F0D6F8364801F094FF08BD77
:1024AC000EB540F2FF30009000200190FFF7A0FF26
:1024BC008DF808009DF80800102801D000F084F970
:1024CC000098002815DD092001F0F4FE10B10198E8
:1024DC00401C019041F6641001F075FF00F069F9A1
:1024EC00402000F02AF80098401E00900098002828
:1024FC00E9DC9DF80800102801D0FFF7B0FF019827
:10250C008008C0B20EBD08B58DF8000002F025F9A8
:10251C00FF2001F04BFFCA49087002F026F9C849A8
:10252C00087800F070000870C5499DF800000A7822
:10253C0010400870C248007808BD08B58DF800003E
:10254C0002F00BF9272001F031FFBD490870BC499E
:10255C00087800F00F000870B9489DF8001000785A
:10256C0008438DF800009DF8000001F01FFF02F0F9
:10257C00FCF808BD90D003000EB5009002F0EDF809
:10258C00302001F013FFAE49087022480078401E3D
:10259C008DF804009DF9040000280ED400989DF9D4
:1025AC000410085C01F002FF9DF90400401E8DF838
:1025BC0004009DF904000028F0D502F0D6F80EBDF9
:1025CC00DB0800200EB501918DF8000000208DF87D
:1025DC00080002F0C2F8A02001F0E8FE984908704B
:1025EC0000208DF808000AE001989DF80810085C9E
:1025FC0001F0DCFE9DF80800401C8DF808009DF8E9
:10260C0000009DF808108842EEDC02F0AEF80EBD1A
:10261C00DA080020D90800200EB501918DF80000D1
:10262C0000208DF80800D248007840081DD302F035
:10263C0094F8B02001F0BAFE8149087000208DF8A2
:10264C0008000AE001989DF80810085C01F0AEFE45
:10265C009DF80800401C8DF808009DF800009DF8BE
:10266C0008108842EEDC02F080F80EBD08B502F0CE
:10267C0074F8E12001F09AFE7149087002F075F8C7
:10268C0008BD08B502F069F8E32001F08FFE6C4933
:10269C00087002F06AF808BD08B5FFF7E0FEFFF716
:1026AC00E5FFC348007840F0020001F0CBFF30207A
:1026BC00FFF743FF01F05CFF08BD08B501F074FFA4
:1026CC0040F2EE2001F07FFE01F052FF08BD0EB586
:1026DC0001918DF800009DF8000005282DDC02F01A
:1026EC003CF89DF800000A3040F0200001F05EFE3E
:1026FC00534908709DF80000012804DD019800780A
:10270C0001F054FE17E0CC480078401E8DF808000C
:10271C009DF9080000280ED401989DF90810085C5A
:10272C0001F044FE9DF90800401E8DF808009DF94B
:10273C0008000028F0D502F018F80EBD08B502F01C
:10274C000CF8602001F032FE3D490870FF2001F0CA
:10275C002DFE8DF8000002F008F89DF8000008BD71
:10276C000EB501918DF8000001F0F7FF612001F02A
:10277C001DFE3349087000208DF808000BE0FF2087
:10278C0001F014FE01999DF8082050549DF80800A2
:10279C00401C8DF808009DF800009DF80810884238
:1027AC00EDDC01F0E2FF2648007800F00E0040104E
:1027BC000EBD08B501F0D1FFE22001F0F7FD204974
:1027CC00087001F0D2FF08BD08B5FFF748FEFFF70F
:1027DC00F0FF4020FFF7B1FE7548007840F0030091
:1027EC0001F030FF01F0E0FE08BD08B5172001F044
:1027FC0061FD8DF800009DF80000400801D3012018
:10280C0000E0002008BD0EB501928DF801108DF886
:10281C0000009DF80000052827DC5548007880084A
:10282C0023D301F09AFF9DF8000040F0A80001F0BE
:10283C00BDFD0349087000208DF808000DE0C0466E
:10284C00DC08002001989DF80810085C01F0AEFD32
:10285C009DF80800401C8DF808009DF801009DF8BB
:10286C0008108842EEDC01F080FF0EBD08B509208F
:10287C0001F020FD8DF800009DF8001000204908A3
:10288C0000D3012008BD08B58DF800009DF80000AC
:10289C00052825DC022001F00DFD8DF8010001203A
:1028AC0001F008FD8DF802009DF800209DF8011044
:1028BC000120904081438DF801109DF800209DF877
:1028CC0002100120904081438DF802109DF80110F8
:1028DC00022001F009FD9DF80210012001F004FD19
:1028EC0008BD08B50220002101F0FEFC01200021EA
:1028FC0001F0FAFC1C20002101F0F6FC08BD08B523
:10290C008DF801108DF80000022001F0D3FC8DF839
:10291C000200012001F0CEFC8DF803009DF80100AF
:10292C0048B19DF800209DF8031001209040084309
:10293C008DF8030008E09DF800209DF8031001209D
:10294C00904081438DF803109DF800209DF80210F3
:10295C000120904008438DF802009DF802100220DF
:10296C0001F0C2FC9DF80310012001F0BDFC08BD74
:10297C00DB0800201CB58DF800009DF80000052830
:10298C0001DD002013E0022001F094FC8DF8010021
:10299C009DF800409DF800309DF8010001210122B6
:1029AC00A1409A4001400020914200D101201CBD61
:1029BC00DA08002008B58DF801108DF800001C20F5
:1029CC0001F078FC8DF802009DF80100002815DC60
:1029DC003B480078C0082ED39DF800109DF80220CB
:1029EC0001208840024221D19DF800209DF8021060
:1029FC000120904008438DF8020017E09DF800205C
:102A0C009DF802100120904081438DF802109DF832
:102A1C000100202802DD20208DF801009DF8000027
:102A2C009DF801101130C0B201F05EFC9DF802104F
:102A3C001C2001F059FC08BDD908002008B58DF800
:102A4C0000009DF8000000F0F0008DF8000004205C
:102A5C0001F030FC8DF801009DF8010000F00F0032
:102A6C008DF801009DF800009DF801100143042031
:102A7C0001F03AFC08BD08B58DF800009DF8000087
:102A8C0000F00F008DF80000042001F013FC8DF80D
:102A9C0001009DF8010000F0F0008DF801009DF898
:102AAC0000009DF801100143042001F01DFC08BD3D
:102ABC0008B5082001F0FEFB00F00F0008BDC04671
:102ACC00DB08002008B501F0A1FE022001F030FD6A
:102ADC00D748002101F053FCD648C02101F084FEF8
:102AEC00082001F025FD00208DF800009DF8000065
:102AFC00642817DA9DF80000401C8DF80000E148AE
:102B0C009DF80020006864215043B0FBF1F2C948E5
:102B1C00C52101F01DFDDC4801F0C2FE9DF800004E
:102B2C006428E7DB082001F05BFD64208DF80000D1
:102B3C009DF80000002817DD9DF80000401E8DF860
:102B4C000000D0489DF80020006864215043B0FB81
:102B5C00F1F2B848C52101F0FBFCCB4801F0A0FE16
:102B6C009DF800000028E7DCB148012101F007FCCA
:102B7C00042001F0DDFC64208DF800009DF80000BD
:102B8C00002817DD9DF80000401E8DF80000BD48A0
:102B9C009DF80020006864215043B0FBF1F2A54879
:102BAC00C52101F0D5FCB84801F07AFE9DF8000073
:102BBC000028E7DC042001F013FD00208DF8000054
:102BCC009DF80000642817DA9DF80000401C8DF871
:102BDC000000AC489DF80020006864215043B0FB15
:102BEC00F1F29448C52101F0B3FCA74801F058FE5E
:102BFC009DF800006428E7DBBE48002101F0BFFB14
:102C0C008C48802101F0F0FD082001F091FC00209F
:102C1C008DF800009DF80000642817DA9DF800007C
:102C2C00401C8DF8000097489DF800200068642136
:102C3C005043B0FBF1F27F48832101F089FC9248AC
:102C4C0001F02EFE9DF800006428E7DB082001F05F
:102C5C00C7FC64208DF800009DF80000002817DDEB
:102C6C009DF80000401E8DF8000086489DF800205D
:102C7C00006864215043B0FBF1F26E48832101F0EF
:102C8C0067FC814801F00CFE9DF800000028E7DC91
:102C9C009848012101F073FB042001F049FC6420E9
:102CAC008DF800009DF80000002817DD9DF800004D
:102CBC00401E8DF8000073489DF8002000686421C8
:102CCC005043B0FBF1F25B48832101F041FC6E48AC
:102CDC0001F0E6FD9DF800000028E7DC042001F07F
:102CEC007FFC00208DF800009DF80000642817DAA6
:102CFC009DF80000401C8DF8000062489DF80020F3
:102D0C00006864215043B0FBF1F24A48832101F082
:102D1C001FFC5D4801F0C4FD9DF800006428E7DB52
:102D2C007448002101F02BFB4148002101F027FBE6
:102D3C004048802101F058FD3E48C02101F054FD6F
:102D4C00082001F0F5FB00208DF800009DF8000034
:102D5C00642823DA9DF80000401C8DF800004948D7
:102D6C009DF80020006864215043B0FBF1F231481B
:102D7C00832101F0EDFB43489DF80020006864219D
:102D8C005043B0FBF1F22B48C52101F0E1FB3E486A
:102D9C0001F086FD9DF800006428DBDB082001F0C3
:102DAC001FFC64208DF800009DF80000002823DD36
:102DBC009DF80000401E8DF8000032489DF8002060
:102DCC00006864215043B0FBF1F21A48832101F0F2
:102DDC00BFFB2C489DF80020006864215043B0FBD9
:102DEC00F1F21448C52101F0B3FB274801F058FD5E
:102DFC009DF800000028DBDC3E48012101F0BFFA01
:102E0C000B48012101F0BBFA0A48802101F0ECFCCF
:102E1C000848C02101F0E8FC042001F089FB642083
:102E2C008DF800009DF8000000282FDD04E0C0465E
:102E3C0000400240008002409DF80000401E8DF8CA
:102E4C00000010489DF80020006864215043B0FB3E
:102E5C00F1F22948832101F07BFB0A489DF8002000
:102E6C00006864215043B0FBF1F22348C52101F006
:102E7C006FFB054801F014FD9DF800000028DBDC19
:102E8C0004E0C046D408002020A10700042001F073
:102E9C00A7FB00208DF800009DF80000642823DAC1
:102EAC009DF80000401C8DF8000014489DF800208F
:102EBC00006864215043B0FBF1F20F48832101F00C
:102ECC0047FB0E489DF80020006864215043B0FB7E
:102EDC00F1F20948C52101F03BFB094801F0E0FC87
:102EEC009DF800006428DBDB01F08AFC022001F075
:102EFC0077FB08BD0050004000800240D408002041
:102F0C0020A1070008B592480E21022201F0C5FC51
:102F1C00904801F0C5FC8E480E21082201F0BDFC42
:102F2C008C4801F0BDFC8A480E21042201F0B5FC4E
:102F3C00884801F0B5FCE6E70EB5029201910090CD
:102F4C00009801F0EBF90198082101F0A5FB01981C
:102F5C0003210522002301F06FF9029B0198032144
:102F6C00002243F0600300F0ADFE019801F05BF825
:102F7C000198032101F00AFC0198032101F0DDFB0B
:102F8C000EBD0EB574480321012201F0E1F9019048
:102F9C007148019901F05EFC112001F05FFA02907A
:102FAC000298C8B96D48FF2101F062FB6C4A6D4B69
:102FBC004FF4967001210090112000F0C3FE1120F7
:102FCC0001F034FB68490878401C087066480078AA
:102FDC00022801D101F01AFC0EBD0EB56348032185
:102FEC00012201F0B5F901906048019901F032FC21
:102FFC001B2001F033FA02900298C8B95748FF2100
:10300C0001F036FB5A4A5B4B4FF49670012100904D
:10301C001B2000F097FE1B2001F008FB524908789A
:10302C00401C087050480078022801D101F0EEFBDA
:10303C000EBD08B501F008FC0090009828B101F015
:10304C00FDFB4D490868401C086008BD08B54B489D
:10305C00012101F02BFC4A48C02101F0BFFB08BD47
:10306C0000B5ADF1340D009039480E21082201F065
:10307C0014FC4448007801900198000201904248E9
:10308C000199007800EB01200190404800780199EB
:10309C0000EB012001903E480078019900EB0120E3
:1030AC00019000200A90FFF784FB4020FFF745FABF
:1030BC00FFF7F2FA0F20FFF7DEFC0020FFF7BEFC53
:1030CC0000200B900BE000990A9A0B98515C684415
:1030DC0001720A98401C0A900B98401C0B900198A6
:1030EC000B99884202D90B982028ECD39DF82C0020
:1030FC0002A9FFF767FAFFF7E0FA4FF040208021B2
:10310C0001F0C8FB0028F8D12020FFF7FCF950B9DA
:10311C001020FFF7F8F90028EFD01020FFF70DFA78
:10312C00FFF752FB11E02020FFF707FA0198202847
:10313C0003D9019820380190C2E7FFF745FB0448FA
:10314C000E21022201F0A9FBFFE70DB000BDC04625
:10315C000050024080841E000080034000000340A9
:10316C00A880034000040020E00C002000900340E5
:10317C00A890034058060020E40C002000100340E7
:10318C0000900240B1080020B2080020B3080020D3
:10319C00B40800200EB57020FFF7B5F98DF80000CB
:1031AC009DF80000800904D32020FFF7C6F9FFF733
:1031BC000BFB9DF80000400904D31020FFF7BDF96C
:1031CC00FFF702FB9DF80000C00977D3FFF7B6FAB2
:1031DC008DF804003F499DF80400FFF7C1FA4CE05C
:1031EC0000F026FC6AE001F007F867E03A480E218F
:1031FC0000F009FF62E0FFF765FC5FE001F000FB07
:10320C003648C02101F0EAFA3448802101F0E6FA90
:10321C003348012101F0B3F83248012101F0AFF835
:10322C0031480178832001F0D7F830480178C52067
:10323C0001F0D2F82948C02101F0D6FA27488021A4
:10324C0001F0D2FA01F0E2FA38E001F014F835E0BE
:10325C002748FFF705FF31E02648FFF701FF2DE077
:10326C0001F056F92AE001F0ADF927E02348224994
:10327C00086023E0FFF746FE20E016480078401E69
:10328C00F4D09F38E4D0401EE6D01F380828F1D87F
:10329C0001A151F820008746ED310000F931000002
:1032AC006D3200000332000009320000F3310000DF
:1032BC0057320000C932000073320000FFF795FA54
:1032CC0038B14020FFF739F94FF04020802101F050
:1032DC00DEFA0EBDB0080020005002400080024013
:1032EC000050004000400240B1080020B20800200D
:1032FC0000040020580600200CED00E00400FA0544
:10330C00F8B5844600254FF0010E03270EFA05F0A0
:10331C0001420FD0DCF8C44F6E0007FA06F084436C
:10332C00CCF8C44FDCF8C40FC2F34114B4400443CE
:10333C00CCF8C44F6D1C082DE8DB500827BFDCF817
:10334C0000050843DCF800058843CCF8000590081C
:10335C0027BFDCF804050843DCF804058843CCF8E7
:10336C000405D00827BFDCF808050843DCF808057D
:10337C008843CCF80805100927BFDCF8180508436A
:10338C00DCF818058843CCF81805500927BFDCF881
:10339C003C050843DCF83C058843CCF83C05580850
:1033AC0027BFDCF80C050843DCF80C058843CCF887
:1033BC000C05980827BFDCF810050843DCF810054D
:1033CC008843CCF81005D80827BFDCF8140508434F
:1033DC00DCF814058843CCF81405180927BFDCF871
:1033EC001C050843DCF81C058843CCF81C05980A1E
:1033FC0027BFDCF844050843DCF84405884313F484
:10340C00407FCCF8440519BFDCF840050843DCF8D4
:10341C0040058843002BCCF8400519BFDCF8280583
:10342C0020EA0101DCF828050143CCF82815F8BD89
:10343C0008B5394800F072FF3848022101F035F91F
:10344C003648082101F031F9354836490222FFF798
:10345C0073FD354835490022FFF76EFD01F096F8F3
:10346C00334800F05BFF01F089F9324801F0E0F9D4
:10347C00112000F0C7FF11200E2100F033FE1120A7
:10348C004FF0BA4101F010F82B4A2C4B4FF49670C8
:10349C0001210090112000F055FC294800F0B2FFEA
:1034AC001B200E2100F01EFE1B204FF0BA4100F035
:1034BC00FBFF244A244B4FF49670012100901B20F3
:1034CC0000F040FC112001F0B1F81B2001F0AEF827
:1034DC00212000F0B3FC432000F0B0FC3F2000F0B2
:1034EC00ADFC1A4800F01AFF1948FF2101F0C0F892
:1034FC001748222100F002FD00F02EF81549B0FB10
:10350C00F1F21348FF2101F006F91148FF210122C5
:10351C0000F022FD08BDC046040800F00040024047
:10352C00003800F000800340013800F000900340A8
:10353C00000C00F000000020A880034000040020D4
:10354C001B000100A890034058060020000400F066
:10355C0000000340A0860100F8B53F4D2B6D2A6E8C
:10356C0010082CBF02F0700103F0300191B13B4800
:10357C00103914D010390BD0103906D0403918BF7F
:10358C00002067D14FF4004009E047F2305006E0CC
:10359C00800804E03249180900F07C000858110832
:1035AC004FF0FF3402D2190B02D33CE0110B3AD28C
:1035BC00D5F85071D5F85411C1F30426761C01F0DE
:1035CC001F01B6B2491C89B271434900B0FBF1F03E
:1035DC00C7F30906C7F389214143704300EB9120DF
:1035EC00296801F470461F4943F48003B6F58056F0
:1035FC0018D0B6F5805613D01B4DB6F580560DD0AD
:10360C00B6F5805608D0B6F5405603D0B6F5005640
:10361C0009D10D466C0806E00C4604E02C4602E08D
:10362C00124C00E04C00D90D11D311080AD3D10F64
:10363C0005D3110B3CBFC2F38651400004D3C2F337
:10364C00C55101E0C3F3C351491CB0FBF1F0A042DA
:10365C0088BF201CF8BDC04610E00F400024F400C9
:10366C00584A0000005A620280F0FA02AA40F9039C
:10367C0008B54FF4B01000F0F1FF022001F010F982
:10368C00324800F04BFEFFF767FF0009009030490D
:10369C0000984FF47A72B0FBF2F008602D4800F0FD
:1036AC003DFE022001F0FCF82B48012100F0A6FFA2
:1036BC002A4800F033FE022001F0F2F828481021CD
:1036CC0000F09CFF274800F0C5FC2548202100F0A5
:1036DC00FEFF254800F022FE022001F0E1F823480D
:1036EC00102100F08BFF224800F0B4FC1F48202171
:1036FC0000F0EDFF1F48C021002200F0E7FE144946
:10370C001C480A68C02101F020F81A48C521002283
:10371C0000F01EFF17482021012200F0EAFF154897
:10372C008021002200F0D2FE094912480A6880214B
:10373C0001F00BF80F488321002200F009FF0D481F
:10374C000821012200F0D5FF08BDC046004000F062
:10375C00D4080020030800F000700040040800F0BA
:10376C000040024004140400010800F00050004026
:10377C00041401000080024038B53A4A60321168E6
:10378C00136941F4006121F4800143F4006311607A
:10379C004C08136115D3440813D26FF00104044391
:1037AC0021404FF4807442F8084C4FF4002411600F
:1037BC0052F8105C6D0A02D2641EF9D138BD002C8F
:1037CC0046D0041164F30A11224C1160A4F1A10536
:1037DC001D4000F0080321F4005104402C4344EA3E
:1037EC00C30400F400531461194324F4005423431C
:1037FC00402442F8084C1C0839BF11601361136156
:10380C001160164C0C40144901402143C41564F35B
:10381C00DC53C40F38BF23F0804306D3104C23F481
:10382C00800341F4800104402343000B0BD24FF47E
:10383C000040D2F80841640801D2401EF9D121F4AD
:10384C00006123F4006311601020136101F028F86B
:10385C0038BDC046300000800100C007FEFF3FF8B5
:10386C000000404000E00F400EB54FF4B01000F0E7
:10387C00F5FE022001F014F82E4800F04FFD022056
:10388C0001F00EF82D482C4908602D49086840F0CD
:10389C0001000860284900200860FFF75DFE000960
:1038AC000090009842F6E061B0FBF1F001904FF00F
:1038BC00051000F0CFFB23480121022200F0B8FDD7
:1038CC002048012166220823FFF71AFD1E48C0215B
:1038DC00002200F0FBFD1C48019AC02100F035FFCE
:1038EC00019842081848C42100F032FE16481021F5
:1038FC00012200F0FEFE154800F010FD1448FF21D7
:10390C0000F0B6FE1248212100F0F8FAFFF724FE71
:10391C0041F28831B0FBF1F20D48FF2100F0FBFEC3
:10392C0000F09DFF0A48012100F0ADFF252000F0BA
:10393C0085FA0EBD014000F0205502404B434F4C20
:10394C00245502400050024000900240010400F057
:10395C000010034000B5ADF1140D8DF8080030488F
:10396C0000F0DCFC012000F02EFDFFE72D4800F0FC
:10397C00D5FC032000F027FD2B4800F07AFF022035
:10398C0000F021FD40F6020000F064FB41F2020061
:10399C0000F060FB41F2024000F05CFB4FF0402075
:1039AC00342100F09DFEFFF7D7FD01461F48009023
:1039BC00082001901C480022002300F0FBFB4FF074
:1039CC004020802100F07AFE4FF04020082100F0CA
:1039DC0015FE4FF04020402100F010FE9DF808002D
:1039EC0098B14FF04020802100F0F2FE4FF04020C3
:1039FC008021002200F0DCFA00F031FF102000F0F2
:103A0C001DFA1020002100F03DFD074800F036FFA4
:103A1C00054803A900F076FE0028F9D105B000BDD9
:103A2C00000800F0001C00F00080004080841E00A4
:103A3C000EB52F480E21082200F02FFF2D480078DC
:103A4C0000900098000200902B480099007840EA02
:103A5C000120009029480078009940EA012000904C
:103A6C0027480078009940EA0120009000208DF84A
:103A7C0005004020FEF761FD4020FEF744FD0028C4
:103A8C00FAD0FEF75BFE8DF804001E499DF8040089
:103A9C00FEF766FE0020029014E00299194A9DF888
:103AAC000500515C884205D011480221022200F029
:103ABC00F4FE1BE09DF80500401C8DF805000298F3
:103ACC00401C029000980299884202D90298202842
:103ADC00E3D30098202803D9009820380090C8E739
:103AEC0003480E21022200F0D8FEFFE70EBDC046AF
:103AFC0000500240B1080020B2080020B30800209A
:103B0C00B4080020B0080020002A4AD05FEA000C5C
:103B1C008B071CD1830722D1102A08D370B4103A1A
:103B2C0078C978C0103AFBD270BC103238D0042A55
:103B3C002CD3082A05D30C2A24BF08C908C008C9ED
:103B4C0008C008C908C092072AD0920F22E00B784F
:103B5C000370491C401C521E22D08B07F7D1C3079F
:103B6C0014D18307D8D0121F12D308C903801B0CA1
:103B7C004380001D121FF8D20AE008C903701B0A0B
:103B8C0043701B0A83701B0AC370001D121FF4D2F2
:103B9C00121D05D00B780370491C401C521EF9D124
:103BAC0060467047F0B51E480127F84201D000F07E
:103BBC00BDFA1E4D1E4F1F4EBD4206D203CD0478DA
:103BCC00A4003459401CA047F6E7164D164FBD42D1
:103BDC0002D210CDA047FAE7F0BD03251BE04168E7
:103BEC0008300A1C2A400BD11A1C2A40AB4305D0C2
:103BFC00046804300C600431043BF9D1131C05D06B
:103C0C00047801300C700131013BF9D1021C2A40BF
:103C1C0001D0A84304300368002BE0D17047C046A4
:103C2C00FFFFFFFF0000000000000000F84A00004A
:103C3C00084B0000E04A000000B5ADF1140D012066
:103C4C008DF8000000208DF8030004208DF805008D
:103C5C0008208DF804000F208DF8070030208DF817
:103C6C00060000208DF8010006208DF802000520CA
:103C7C008DF8080001208DF8090001208DF80A004C
:103C8C006846FEF7EDFA00200021FEF793FE0020B7
:103C9C000121FEF734FE0A48018882780DF10B00F1
:103CAC000180827000200DF10B01FEF710FD0DF16B
:103CBC000B00FEF761FCFEF787FD05B000BDC046AA
:103CCC00C44A000038B500EB411094004030026843
:103CDC000F21A140C94301EA020503F00F02A240E3
:103CEC002A430260826901EA0205C3F30322A2405F
:103CFC002A438261426801EA0205C3F30312A2401F
:103D0C002A434260C26913F4702F01EA0205C3F31F
:103D1C00035202FA04F242EA0502C26105D10269B9
:103D2C000121A14022EA01010AE042690A40C3F3E1
:103D3C000241A1401143416102690121A14011439B
:103D4C00016138BDF8B51E4C443CD4F800C0069D4A
:103D5C001A4C00F03F000CEB0017BE68344086098B
:103D6C0004D3042914BF062941F001012E01103E91
:103D7C00264341EA060404F04066B6F1406F04D0D5
:103D8C00B60E05FA06F6B618721E3A6004F04042FA
:103D9C00B2F1404F0ED0042906D0062904D0900F62
:103DAC008540ED186B1E05E0000140F400700CEB33
:103DBC0000030C337B60BC60F8BDC04608C0FFFF3D
:103DCC004CF00F4019490868401C0860704708B552
:103DDC001748FFF7D1FC00F08BFBFFF749FCFFF70E
:103DEC002BFFFFF725FBFFF73FFD12480E210222A8
:103DFC0000F053FD104800F0E6FA0E480E210222A6
:103E0C0000F04BFD0C4800F0DEFA0A480E210022AF
:103E1C0000F043FDEEE708B54FF04020012100F023
:103E2C00BCFC08B1FFF7B6F908BDC046D0080020AD
:103E3C001000C00100500240105E5F0015490428BC
:103E4C0020D0052819D0062812D00F280BD00F2807
:103E5C001DD91038012100F01F02914042090E4873
:103E6C0050F8220012E00A48016841F002010DE00E
:103E7C000846016841F4802108E00846016841F4D5
:103E8C00003103E00846016841F48031016070475D
:103E9C0010E000E024ED00E0084A000070B510F8D6
:103EAC00014B1BE0401C5AB11D0A09D1022510F828
:103EBC00016B6D1E46EA0323F9D101E0042B02D3FA
:103ECC0010F8015B03E0254601E001F8015B5B1E85
:103EDC00B3F1FF3FF9D101E001F8013B10F8013BD0
:103EEC009C42F9D110F8013B002BE7D110F8015B93
:103EFC0003782D025B19D5D170BD0000C368124A3E
:103F0C001A40C2600A0E0260114A13680F4A1A4026
:103F1C00104B93421CBF01F0FF03C1F307210BD1DF
:103F2C000A0901F0FF03090A02F47042134301F479
:103F3C00704201F0FF01114343F40073436041F4FC
:103F4C00007181607047C046FEFEFFFF0000FF70ED
:103F5C0000E00F4000000A1010B5124B1C68104B0B
:103F6C002340114C9C420ED140F20113002A03EA6B
:103F7C0001031CBF046F234304D10C4B046F63EA91
:103F8C0001032340036742F22003002A03EA0101E4
:103F9C0019BFC2680A43C2688A43C26010BDC046DA
:103FAC000000FF7000E00F4000000A10FEFEFFFF53
:103FBC00530827BFD0F808340B43D0F808348B4390
:103FCC00C0F80834930827BFD0F804340B43D0F85A
:103FDC0004348B43C0F80434D30827BFD0F80C3416
:103FEC000B43D0F80C348B43510CC0F80C3427BF66
:103FFC00D0F8381541F00101D0F8381521F0010145
:10400C00C0F838157047ADF1080D8DF8041000900C
:10401C009DF80410009800EB8100016881F0FF010D
:10402C00016002B07047ADF1080D00900098009946
:10403C00806B40F04000886302B07047ADF1080D12
:10404C00009000980099806B20F04000886302B0CB
:10405C007047000010B50F4B1C68C0F307410122DC
:10406C008A400D4B224208BF53F8311004D0042271
:10407C0002EBC10219468958D1F82C35C0F307243C
:10408C000F2200F00F00A240A04093431843C1F848
:10409C002C0510BD6CE00F40584900004EF68851BD
:1040AC00CEF2000108684FF0F00340EA03400860CC
:1040BC0009488546094885446F4607208743BD4615
:1040CC0007486F460760FFF76DFD00F0A3FA01206B
:1040DC0000F054F8FEE7C046E008002000040000A1
:1040EC00F80C002010B5104A4B0800F01F0004D348
:1040FC00012314468340083423608B0804D3012326
:10410C001446834020342360CB0804D30123144687
:10411C00834028342360090904D3012114468140CB
:10412C001034216010BDC04614F00F4070B50F4D17
:10413C0006467388002416E0A00000EBC40030187B
:10414C004168C26880684AB92A6852B10A7855F841
:10415C0022304A1C01461046984701E0FFF7D4FC78
:10416C007388641CA4B2A342E6DC70BDE04A000074
:10417C0000BF704708B5FFF7FBFFFEE738B50546F3
:10418C00094800688047094C201D006810B10146A1
:10419C0028468847206800B180470548006880475A
:1041AC00FFF7E8FF38BDC046E80C0020F00C0020FB
:1041BC00EC0C002010B5022B0CBF082400240BB112
:1041CC0044F004044460029BB1FBF3F400239B1CF9
:1041DC00B4FBF3F1491EFF29F9D8036102F0030384
:1041EC009C01039B02F030025B1E43EA01231A433D
:1041FC001443046010BD000008B50C4800F0E3F84F
:10420C000FE00B480421042200F047FB094800F0A2
:10421C00DAF807480421002200F03FFB054800F0C3
:10422C00D2F8FEF723FB0028EBD108BD90D0030099
:10423C0000500240105E5F0070B544698D000F2184
:10424C00A940C94301EA040602F00F04AC40344310
:10425C004461046A03F00303AB4021400B43036247
:10426C00C36902F030026C003021A240A1408B43A4
:10427C001A43C26170BD00B5ADF5FE7DADF1600DA8
:10428C00002000900098B0F5967F0CD20099BDF8F4
:10429C0000000DEB410188800098401C00900098B4
:1042AC00B0F5967FF2D301A8FEF7DAFE7FB018B016
:1042BC0000BD000008B58DF8000000F04EFA9DF826
:1042CC00000000F01F0000F071F806490870FF2094
:1042DC0000F06CF88DF8010000F047FA9DF8010031
:1042EC0008BDC046DC08002008B58DF801108DF81B
:1042FC00000000F032FA9DF8000000F01F0040F0C2
:10430C00200000F053F8044908709DF8010000F0FB
:10431C004DF800F02AFA08BDDC0800200B49C0F368
:10432C00072289180A0FC10801F4FF5100F0FF00A1
:10433C00A1F5503121F07E4141EA027141EA800140
:10434C0041F00070012101607047C04600E60F404B
:10435C0072B9406801228A4042F480320240500C0B
:10436C000BD34FF4803042F470228840824304E037
:10437C00C0684FF001128A400240104670470EB5DB
:10438C008DF8041000909DF8040028B900981021B5
:10439C00002200F082FA08E09DF80400012804D104
:1043AC0000981021102200F078FA0EBD0EB5009086
:1043BC000848009900F058FA064801A900F01AFACA
:1043CC009DF804000EBD08B50090009800F068FA46
:1043DC0008BDC046008000400EB58DF8041000905A
:1043EC0006489DF80420006864215043B0FBF1F2AC
:1043FC000348009900F0ACF80EBDC046D40800206C
:10440C000080024010B500F0FF0101F0070294009B
:10441C004A08064922F0030289180B68000CA040D8
:10442C000F22A24093431843086010BD10F50F40B3
:10443C00530827BFD0F800340B43D0F800348B431B
:10444C009208C0F8003427BFD0F820240A43D0F8D3
:10445C0020248A43C0F820247047000008490C39F6
:10446C00096800F03F0001EB0010806800F00700C5
:10447C0020F00101042914BF062920F00100704727
:10448C0014F00F4010B5074B820853F822301A680D
:10449C0000F00300C400FF20A140A0408243114360
:1044AC00196010BDBC480000074A03460C3A10685E
:1044BC00044A03F03F0300EB031083681A401143D6
:1044CC0081607047F73FFC0014F00F404018016802
:1044DC006FF3520111430160910839BF8C2240F6F1
:1044EC000C01B0224FF4306102624162704700004F
:1044FC0008B50548FFF712FF04480E2100F07EF8BE
:10450C000E2000F06DF808BD050800F000500240C8
:10451C0008B500F075F90449002008700348FF2124
:10452C0000F042F908BDC046E00C0020000003403A
:10453C00ADF1080D8DF8000004489DF800209DF8A1
:10454C00001040F8221002B07047C04600500240E4
:10455C0021F03F03C01803689B0828BF5208036969
:10456C004908A3EB020334BF8361C36170470000A9
:10457C0008B54FF040204021002200F08EF902498E
:10458C000020087008BDC046D808002008B50548B2
:10459C00052100F033F803480521002200F07DF9D5
:1045AC0008BDC0460040024008B54FF040204021F5
:1045BC00402200F072F902490120087008BDC04683
:1045CC00D808002008B50448C02100F00DF90348B4
:1045DC00FF2100F0E9F808BD0090024000100340F4
:1045EC00ADF1080D8DF8000003499DF80020002066
:1045FC0041F8220002B070470050024038B5012249
:10460C000C4605460823FEF77BFE21462846FFF79D
:10461C000FFF38BD0449B1F1FF3F07BF0021081C53
:10462C000868091DFFF7D3BBFFFFFFFF00F01F0059
:10463C00012101FA00F00249143108607047C046AC
:10464C0014F00F4008B58DF800009DF80010002004
:10465C0001F07F01FFF748FE08BD0000034A116816
:10466C0021F4F011084310607047C04660E00F4021
:10467C00034A62EA0101C2681140C1607047C0463A
:10468C00FEFEFFFF0349086070470249091F0860DE
:10469C0070477047EC0C00204908002201E04908E3
:1046AC00521C0029FBD10263704710B50022FFF7A2
:1046BC00BFFE01220023FEF723FE10BD10B5002221
:1046CC00FFF7B6FE01220823FEF71AFE10BD10B547
:1046DC000222FFF7ADFE01220823FEF711FE10BDEA
:1046EC0010B50222FFF7A4FE01220823FEF708FEF4
:1046FC0010BD012A19BF826822EA010182681143A8
:10470C0081607047C268D20803D3806808600120BA
:10471C0070470020704711F0FF0F18BF826211F430
:10472C007F4F18BFC2627047D0F8030020B100223F
:10473C00401E01F8012BFBD170474FF4807202FA36
:10474C0001F1026811430160704740180168890843
:10475C0034BF521E52080261704708B54FF040201A
:10476C000821002200F099F808BD08B54FF0402050
:10477C000821082200F091F808BD00000248012130
:10478C00483801607047C0464CF00F40012202FAD5
:10479C0001F10268114301607047002914BFD0F881
:1047AC001804D0F81404704740F201121140C2688A
:1047BC001143C1607047D0F80320C31D0846194649
:1047CC00FFF7A2B9EFF3108062B670470020704774
:1047DC00D0F810241143C0F8101470470918086859
:1047EC0020F00100086070470918086840F00100CB
:1047FC0008607047C268D208FCD3806808607047B4
:10480C0001490020086070470470004001490120F4
:10481C000860704704700040014800787047C0463B
:10482C00D8080020FFF73ABC7047FEE7FEE7FEE72A
:10483C0001494439086070474CF00F400149012090
:10484C00086070474CF00F40014800687047C04644
:10485C004CF00F40012202FA01F1C160704708B51B
:10486C00FFF7B0FFC0B208BDC2689208FCD38160EC
:10487C007047416821F0020141607047416841F086
:10488C000201416070478269114381617047C0F831
:10489C001C14704750F82100704740F821207047D5
:1048AC00401EFDD170470122FFF7F8BA41627047F4
:1048BC000000000018ED00E01CED00E020ED00E031
:1048CC0000E400E004E400E008E400E00CE400E0B4
:1048DC0010E400E014E400E018E400E01CE400E064
:1048EC0020E400E024E400E028E400E02CE400E014
:1048FC0030E400E034E400E038E400E03CE400E0C4
:10490C0040E400E044E400E048E400E04CE400E073
:10491C0050E400E054E400E058E400E05CE400E023
:10492C0060E400E064E400E068E400E06CE400E0D3
:10493C0070E400E074E400E078E400E07CE400E083
:10494C0080E400E084E400E088E400E00040004003
:10495C000080054000500040009005400060004081
:10496C0000A005400070004000B00540004002402F
:10497C0000C005400050024000D0054000600240DD
:10498C0000E005400070024000F0054000D00340FC
:10499C0000000640001006400010064000200640B3
:1049AC000020064000300640003006400040064023
:1049BC000040064000500640005006400060064093
:1049CC000060064000700640007006400080064003
:1049DC000080064000900640009006400007000052
:1049EC0000060000000500000004000000030000A9
:1049FC0000020000000100000000000000E100E0E7
:104A0C0004E100E008E100E00CE100E010E100E06E
:104A1C0080E100E084E100E088E100E08CE100E06E
:104A2C0090E100E000E200E004E200E008E200E0D7
:104A3C000CE200E010E200E080E200E084E200E042
:104A4C0088E200E08CE200E090E200E040420F00DF
:104A5C0000201C0080841E0000802500999E3600DA
:104A6C000040380000093D0000803E0000004B0073
:104A7C00404B4C0000204E00808D5B0000C05D0060
:104A8C000080700000127A0000007D008096980073
:104A9C00001BB7000080BB00C0E8CE00647ADA00CF
:104AAC000024F4000000FA0080A81201002D31014E
:0B4ABC0000366E0140787D01DEADBECB
:104AC800000100C046C00104009F4600009F460147
:104AD8000E00010000000000B3480000C3470000BA
:104AE800354700000000000002000000DD0800005B
:104AF800C84A0000E00C0020F04A00000000002036
:04000003000040A910
:00000001FF
