:104000006C040020F5870000FB870000FD8700009E
:10401000FF870000FF870000FF870000000000000E
:10402000000000000000000000000000FF8700000A
:10403000FF87000000000000FF870000FF870000EE
:10404000FF870000FF870000FF870000FF87000058
:10405000FF870000FF870000FF870000FF87000048
:10406000FF870000FF870000FF870000FF87000038
:10407000FF870000FF870000FF870000FF87000028
:10408000FF870000FF870000FF870000FF87000018
:10409000FF870000FF870000FF870000FF87000008
:1040A000FF870000FF870000FF870000FF870000F8
:1040B000FF870000FF870000FF870000FF870000E8
:1040C000FF870000FF870000FF870000FF870000D8
:1040D000FF870000FF870000FF870000FF870000C8
:1040E000FF8700000000000000000000FF870000C4
:1040F000FF870000FF870000FF870000FF870000A8
:10410000FF870000FF870000FF870000FF87000097
:104110000000000000000000FF870000FF87000093
:10412000FF870000FF870000FF870000FF87000077
:10413000FF870000FF870000FF870000FF87000067
:10414000000000000000000000000000000000006F
:10415000117C0000FF870000FF870000FF87000040
:10416000000000000000000000000000000000004F
:10417000000000000000000000000000000000003F
:10418000000000000000000000000000000000002F
:10419000000000000000000000000000000000001F
:1041A000000000000000000000000000000000000F
:1041B000FF870000FF870000FF870000FF870000E7
:1041C000FF870000FF870000FF870000FF870000D7
:1041D000FF870000FF870000FF870000FF870000C7
:1041E000FF870000FF870000FF870000000000003D
:1041F00000000000FF870000FF870000FF8700002D
:10420000FF870000FF8700000000000000000000A2
:10421000FF870000FF870000FF870000FF87000086
:10422000FF870000FF870000FF870000FF87000076
:10423000FF870000FF870000FF870000FF87000066
:10424000FF870000FF870000FF870000FF87000056
:10425000FF870000FF870000FF870000FF87000046
:0C426000FF870000FF870000FF870000C0
:10426C0000B5ADF1340D00900098007818B10098AD
:10427C0000781C2801DD00208DE003F018F88DF883
:10428C00240003F022F800208DF8250000F073FCC8
:10429C0000200A9001208DF82C0014E000989DF865
:1042AC002C200A99105C40180A9000999DF82C203B
:1042BC009DF82C00515C401E684401719DF82C0047
:1042CC00401C8DF82C0000989DF82C10007888422A
:1042DC00E4DA9DF82C00401E8DF82C000A98C0439F
:1042EC00401C0A900A999DF82C0000EB0D02090E57
:1042FC001171401C8DF82C000A999DF82C00090CAA
:10430C0000EB0D021171401C8DF82C000A999DF8E0
:10431C002C00090A00EB0D021171401C8DF82C00C9
:10432C009DF828109DF82C0000EB0D021171401C1B
:10433C008DF82C000098007801A9001DC0B200F087
:10434C00E5FB00F029FC4FF04020802104F068FAD6
:10435C000028F8D1202000F026FB30B1202000F0FE
:10436C003CFB01208DF8250006E0102000F01BFB23
:10437C0010B1702000F031FB02F0C1FF02F0C6FF5B
:10438C009DF8240008B102F095FF00F0EBF800F066
:10439C00D8F89DF825000DB000BDFEB5009040206A
:1043AC0000F001FB002852D000F036FC8DF805001F
:1043BC009DF80500202806DD702000F00EFB00F0B3
:1043CC00DCF8022047E000999DF80500491C00F03C
:1043DC0035FC9DF80500009B009D9DF80520009C78
:1043EC009DF80510009E9DF80570401E1B5CD21EAA
:1043FC00AA5C891E615CB85D120642EA014242EA7F
:10440C000322104302909DF805000099001F0870CC
:10441C0001208DF804000BE000989DF8042002990F
:10442C00105C401802909DF80400401C8DF80400AC
:10443C0000989DF8041000788842EDDA402000F0D6
:10444C00CCFA029808B9002005E0012003E07020A6
:10445C0000F0C3FA0320FEBD00B5ADF1140D8DF8CC
:10446C00000001208DF8010033208DF80400042099
:10447C008DF8060000208DF8050000208DF808004E
:10448C0000208DF8070000208DF8020006208DF822
:10449C00030005208DF809009DF800008DF80A0036
:1044AC0001208DF80B000DF1010000F029F900201E
:1044BC00002100F0D3FC0020012100F075FC01204C
:1044CC00002100F071FC0220002100F06DFC0320A3
:1044DC00002100F069FC0420002100F065FC05209F
:1044EC00002100F061FC012000F01FFC022000F014
:1044FC001CFC032000F019FC042000F016FC052025
:10450C0000F013FC59208DF80E00AD208DF80D0035
:10451C00BC208DF80C0003A9002000F046FB03A87A
:10452C0000F0AAFA00F00DF805B000BD08B58DF842
:10453C0000009DF80010052001F07F0100F081FAC9
:10454C0008BD08B500F0D3F900F017F8402000F0D2
:10455C0044FAC148007840F0030000F064F902F01E
:10456C00F3FE08BD08B502F0E4FEE12002F008FFFE
:10457C00C249087002F0D2FE08BD08B502F0D9FE9F
:10458C00E22002F0FDFEBD49087002F0C7FE08BD36
:10459C0008B50090009802F078FE08BD0CB480B508
:1045AC0002AFADF1380D8DE8030002F080FE8DF8FE
:1045BC00080002F08AFE00208DF8090027F00300A5
:1045CC00001D03900021202206A803F0DFFD00202F
:1045DC00002104AA82E803009DE8030004AA0CCA87
:1045EC008B4200D1824227D202F07AFE70B102F0E7
:1045FC0086FE06A8FFF7D1FE40B93A68039906A8D3
:10460C00904718B101208DF8090015E0012002F047
:10461C003CFE04A890E80C0000210120801804AA9C
:10462C0041EB030182E803009DE8030004AA0CCAD5
:10463C008B4200D18242D7D302F061FE02F066FEBB
:10464C009DF8080008B102F035FE9DF809000EB087
:10465C00BDE8804002B070470CB480B502AFADF13C
:10466C00180D8DE8030002F022FE8DF8080002F010
:10467C002CFE00208DF8090027F00300001D03908C
:10468C000021002004AA82E803009DE8030004AA8C
:10469C000CCA8B4200D1824222D202F021FE48B1D8
:1046AC0002F02DFE39680398884718B101208DF867
:1046BC00090015E0012002F0E8FD04A890E80C00C8
:1046CC0000210120801804AA41EB030182E80300B9
:1046DC009DE8030004AA0CCA8B4200D18242DCD3B1
:1046EC0002F00DFE02F012FE9DF8080008B102F077
:1046FC00E1FD9DF8090006B0BDE8804002B07047AE
:10470C0008B5009002F04AFD0098407A02F090FD46
:10471C0002F004FE02F026FE41F2883002F0B5FDF4
:10472C00702000F05AF900F02EFB0098807900F010
:10473C00D7FB0098C07900F0F0FB009A0099009824
:10474C0052788978807A1143084300F07CF80098FD
:10475C00C078FFF7EBFE0098007800F07FF8C549B1
:10476C00002008700098007A00F011F8FFF7FAFEAC
:10477C00FFF703FF009900980A79407936491043F6
:10478C0008700098CD490078801C087008BD08B5E9
:10479C008DF80000B7490A789DF800009DF80010CC
:1047AC00104081420FD0B3499DF800000A781043A5
:1047BC000870B049087800F007000870AD4801781F
:1047CC001D2000F03EF908BD08B58DF80000A94881
:1047DC009DF80010007801420AD0A6499DF80020EF
:1047EC00087890430870A34801781D2000F029F93F
:1047FC0008BD08B5082000F00DF9C0F3031008BD82
:10480C0008B5032000F006F98DF800009DF80010A3
:10481C00002011F0FC0F05D19DF8001011F0030FD2
:10482C0000D0012008BD08B58DF800009DF80010DF
:10483C00002001F07F0100F004F908BD08B500204C
:10484C0000F0E8F808BD08B58DF800009DF80010E0
:10485C00062000F0F6F808BD065C002008B58DF8BF
:10486C0000009DF8000000F003008DF800009DF89A
:10487C000010032000F0E5F808BDC046085C0020DD
:10488C0008B5FFF7BDFF08B9002025E0002000F0B7
:10489C00C1F88DF800009DF80000800801D20120BD
:1048AC001AE002F080FD08B9022015E09DF8000026
:1048BC00400809D3062000F0ADF810F0900F01D09D
:1048CC00202009E0102007E0172000F0A3F8400991
:1048DC0001D3042000E0082008BD08B502F042FD19
:1048EC00CC48007840F00100FFF79DFF08BD08B5EB
:1048FC00002000F08FF88DF8000002F033FD9DF8D9
:10490C000000800814D29DF80000400806D3C1486E
:10491C00007840F00300FFF786FF05E0BD48007803
:10492C0040F00200FFF77FFF41F2883002F0ADFC4F
:10493C0008BD08B540F2FF30ADF8000000208DF83E
:10494C000200FFF79DFF8DF803009DF8030010286F
:10495C0001D0FFF7F6FDBDF90000002819DD092094
:10496C0000F058F820B19DF80200401C8DF80200B0
:10497C00822002F08AFCFFF700FE402000F02DF8A8
:10498C00BDF90000401EADF80000BDF90000002884
:10499C00E5DC9DF80300102801D0FFF7A8FF9DF877
:1049AC000200801008BD08B58DF8000002F0C1FCB3
:1049BC00FF2002F0E5FCCB49087002F0AFFCC949BE
:1049CC00087800F070000870C6499DF800000A785D
:1049DC0010400870C348007808BD08B58DF8000079
:1049EC0002F0A7FC272002F0CBFCBE490870BD49A1
:1049FC00087800F00F000870BA489DF80010007895
:104A0C0008438DF800009DF8000002F0B9FC02F09C
:104A1C0085FC08BD08B58DF8000002F08AFC9DF8F5
:104A2C00000000F01F0002F0ABFCAE490870FF2044
:104A3C0002F0A6FC8DF8010002F070FC9DF801005C
:104A4C0008BD08B58DF801108DF8000002F071FC5E
:104A5C009DF8000000F01F0040F0200002F090FCD8
:104A6C00A04908709DF8010002F08AFC02F056FC87
:104A7C0008BDC046075C00200EB5009002F059FC42
:104A8C00302002F07DFC9749087000208DF804005E
:104A9C000AE000989DF90410085C02F071FC9DF985
:104AAC000400401C8DF80400BE489DF904100078E9
:104ABC008842EEDC02F032FC0EBDC046055C0020E4
:104ACC000EB501918DF8000000208DF8080002F061
:104ADC0030FCA02002F054FC8249087000208DF8B4
:104AEC0008000AE001989DF80810085C02F048FCE8
:104AFC009DF80800401C8DF808009DF800009DF8FA
:104B0C0008108842EEDC02F009FC0EBD0EB50191D6
:104B1C008DF8000000208DF80800CF480078400880
:104B2C001DD302F006FCB02002F02AFC6D4908707F
:104B3C0000208DF808000AE001989DF80810085C28
:104B4C0002F01EFC9DF80800401C8DF808009DF832
:104B5C0000009DF808108842EEDC02F0DFFB0EBD71
:104B6C0008B502F0E6FBE32002F00AFC5D49087090
:104B7C0002F0D4FB08BD08B5FFF7B9FEFFF7F2FC55
:104B8C002448007840F00200FFF74DFE3020FFF77C
:104B9C0024FF02F0E7FB08BD08B502F0D5FB0F209F
:104BAC0002F073FB02F0DEFB08BD0EB501918DF82F
:104BBC0000009DF8000005282ADC02F0BAFB9DF8E5
:104BCC0000000A3040F0200002F0DAFB4549087082
:104BDC009DF80000012804DD0198007802F0D0FB5C
:104BEC0014E000208DF808000AE001989DF90810E7
:104BFC00085C02F0C5FB9DF90800401C8DF808000C
:104C0C0068489DF9081000788842EEDC02F086FBBB
:104C1C000EBDC046065C002008B502F08AFB602081
:104C2C0002F0AEFB2F490870FF2002F0A9FB8DF8B3
:104C3C00000002F073FB9DF8000008BD0EB5019159
:104C4C008DF8000002F075FB612002F099FB2549FC
:104C5C00087000208DF808000BE0FF2002F090FB9C
:104C6C0001999DF8082050549DF80800401C8DF8BF
:104C7C0008009DF800009DF808108842EDDC02F059
:104C8C004DFB1848007800F00E0040100EBD08B522
:104C9C001720FFF7BFFE8DF800009DF800004008BC
:104CAC0001D3012000E0002008BD0EB501928DF863
:104CBC0001108DF800009DF80000052827DC6648DF
:104CCC000078800823D302F034FB9DF8000040F0FC
:104CDC00A80002F055FB0349087000208DF808006D
:104CEC000DE0C046085C002001989DF80810085C97
:104CFC0002F046FB9DF80800401C8DF808009DF85A
:104D0C0001009DF808108842EEDC02F007FB0EBD96
:104D1C0008B50920FFF77EFE8DF800009DF8001005
:104D2C000020490800D3012008BD08B58DF800000B
:104D3C009DF80000052825DC0220FFF76BFE8DF89E
:104D4C0001000120FFF766FE8DF802009DF800209F
:104D5C009DF801100120904081438DF801109DF8C1
:104D6C0000209DF802100120904081438DF8021024
:104D7C009DF801100220FFF764FE9DF8021001203F
:104D8C00FFF75FFE08BD08B502200021FFF759FEB2
:104D9C0001200021FFF755FE1C200021FFF751FEDA
:104DAC0008BDC046055C002008B58DF801108DF8D3
:104DBC0000000220FFF72EFE8DF802000120FFF705
:104DCC0029FE8DF803009DF8010048B19DF80020E4
:104DDC009DF803100120904008438DF8030008E073
:104DEC009DF800209DF803100120904081438DF820
:104DFC0003109DF800209DF80210012090400843FC
:104E0C008DF802009DF802100220FFF71AFE9DF8A3
:104E1C0003100120FFF715FE08BD1CB58DF800002E
:104E2C009DF80000052801DD002013E00220FFF7AB
:104E3C00F1FD8DF801009DF800409DF800309DF8C3
:104E4C00010001210122A1409A4001400020914221
:104E5C0000D101201CBDC046075C002008B58DF8B0
:104E6C0001108DF800001C20FFF7D4FD8DF8020016
:104E7C009DF80100002815DC3A480078C0082ED3B4
:104E8C009DF800109DF8022001208840024221D19B
:104E9C009DF800209DF802100120904008438DF8E9
:104EAC00020017E09DF800209DF8021001209040B0
:104EBC0081438DF802109DF80100202802DD20208E
:104ECC008DF801009DF800009DF801101130C0B262
:104EDC00FFF7B7FD9DF802101C20FFF7B2FD08BDCF
:104EEC0008B58DF800009DF8000000F0F0008DF87A
:104EFC0000000420FFF78EFD8DF801009DF80100E5
:104F0C0000F00F008DF801009DF800009DF80110D5
:104F1C0001430420FFF795FD08BD08B58DF800008E
:104F2C009DF8000000F00F008DF800000420FFF742
:104F3C0071FD8DF801009DF8010000F0F0008DF876
:104F4C0001009DF800009DF8011001430420FFF7BB
:104F5C0078FD08BD08B50820FFF75CFD00F00F00D8
:104F6C0008BDC046075C0020EF487047EF4870470B
:104F7C001CB5EF48006880690146EE488847EC484C
:104F8C000068D0F8881002208847EB480068C06D94
:104F9C000246EA4802219047E7480068C06D024685
:104FAC00E64808219047E4480068C06B0246E34895
:104FBC0005219047E048006800680346DF4805215A
:104FCC0000229847DA48006880690146DC48884727
:104FDC00D7480068D0F8881002208847D648006867
:104FEC00C06D0246D74802219047D14800688069BD
:104FFC000146D5488847D5480068806B0246D4489E
:10500C0008219047D1480068C0690446D048022165
:10501C0000220123A047CD480068006A0446CC4812
:10502C00022100226623A047C84800684069024656
:10503C00C74802219047C5480068C0690446C44867
:10504C00032105220023A047C0480068006A0446DB
:10505C00BF48032100226223A047BC480068406976
:10506C000246BB4803219047B948032103F07CFB5F
:10507C00AF48006880690146F0488847B34800682B
:10508C00806B0246EE4808219047B0480068C06922
:10509C000446EB48002100220123A047AB480068DE
:1050AC00006A0446E648002100220023A047A748D6
:1050BC000068006A0446E248002101220023A04750
:1050CC00A2480068006A0446DD4800210222002341
:1050DC00A0479E480068006A0446D9480021032274
:1050EC000023A04799480068006A0446D448002170
:1050FC0004220023A04795480068006A0446D04863
:10510C00002105220023A04790480068006A04464D
:10511C00CB48002106220023A0478C480068006A77
:10512C000446C748002107226023A047874800682F
:10513C0040690246C24800219047C148002103F053
:10514C0013FB82480068C0690446BD480321052250
:10515C000023A0477D480068006A0446B848032134
:10516C0000226023A0477948006840690246B44891
:10517C0003219047B248032103F0F6FA6C4800680B
:10518C0080690146CF488847DE4800684068804700
:10519C00DC480068006A0146CB488847D94800685B
:1051AC00C06D014610208847D6480068006B0E2160
:1051BC00024610209047D3480068806B4FF05D4149
:1051CC00024610209047CF480068E04AE04B006848
:1051DC0001210446009110200121A047C948006814
:1051EC004069014610208847C6480068C06D0146DA
:1051FC0011208847C3480068006B0E21024611201D
:10520C009047C0480068806B4FF0BA4102461120AD
:10521C009047BC480068CF4A434B00684FF49671E6
:10522C000446009111200121A047B648006840694E
:10523C00014611208847B3480068C06D0146C64836
:10524C008847B0480068006B0E2102461820904732
:10525C00AC48C2490068806B024618209047A948A8
:10526C000068DD4ADD4B00680821009104460121ED
:10527C001820A047A34800684069014618208847B9
:10528C00A0480068C06D0146D54888479D48006815
:10529C00006B0E2102461B2090479A480068806BD9
:1052AC004FF0BA4102461B20904796480068CD4A01
:1052BC001E4B00684FF49671044600911B2001218F
:1052CC00A04790480068406901461B208847C648A3
:1052DC00006880694021024621209047C24800683E
:1052EC0080694021024643209047BF48006880698E
:1052FC000021024620209047BB480068806940216D
:10530C00024640209047B949212003F057F9D6496D
:10531C00432003F053F9D549202003F04FF9D44929
:10532C00402003F04BF915E070520020C8540020C7
:10533C0044000001040800F020000001004002407D
:10534C00030800F000700040003800F02400000159
:10535C0000800340C7493F2003F030F9A2480068A1
:10536C0000680146212088479F4800680068014674
:10537C00432088479C4800680068014620208847E5
:10538C0099480068006801464020884796480068A4
:10539C00006801463F208847BB4800688069014689
:1053AC00B5488847B548006880680246B448FF2174
:1053BC009047B348002103F039FAB0480068C06840
:1053CC000246AF4822219047AF480068006E8047E4
:1053DC00AA49AC4A0968896BB0FBF2F2A8480B46A3
:1053EC00FF219847A548006840690346A448FF215F
:1053FC00012298471CBD08B5A44900200870A44997
:10540C00002008704FF47A7002F037FD9B4800685A
:10541C00406802469A48FF21904708BD08B58DF8B0
:10542C000000C9499DF800000870C8480068406B2E
:10543C000246C7480221904708BDC046013800F01B
:10544C00009003400EB5CDED010A8DED000A9DEDE7
:10545C00000ADDED010AF4EEC00AF1EE10FA03D8F1
:10546C00C54800EE100A20E09DED000ADDED010AB2
:10547C00C24801EE100A30EEC00A81EE000A8DED32
:10548C00020A00F013F8BE4800780028FBD0BD4893
:10549C009DED020A007800EE900AF8EE600A80EEAC
:1054AC00800ADDED000A30EE800A0EBD08B5B44965
:1054BC0000200870A5480068406B0246B2480021E5
:1054CC00904708BD000C00F0005800201FB59F4805
:1054DC000068C06803469E4803210122984701904A
:1054EC009A48006801990069024699489047054816
:1054FC000068006C0146112088470290029818BB86
:10550C0002E0C046540000015C4800688068024616
:10551C005B48FF2190479E4800680E4A9B4B0068F1
:10552C004FF496710446009111200121A047984830
:10553C0000684069014611208847544901200870D1
:10554C00534800780028FFD100901FBD888003408D
:10555C0034570020A88003401800010000C0000C44
:10556C001FB57A480068C0680346874803210122AA
:10557C009847019075480068019900690246824875
:10558C00904783480068006C01461B2088470290B6
:10559C000298F8B939480068806802463848FF21FB
:1055AC0090477B4800680F4A7A4B00684FF496711D
:1055BC00044600911B200121A047754800684069F2
:1055CC0001461B2088473249012008702F4800787B
:1055DC000028FFD100901FBD4890034021570020A8
:1055EC001B000100A890034048000001D9540000A2
:1055FC001FB556480068C068034655480221012271
:10560C00984701905148006801990069024650483A
:10561C0090475F480068006C014610208847029054
:10562C000298F8B95A4800685B4A5C4B0068012143
:10563C000446009110200121A0475548006840699C
:10564C000146102088474048007858B1534A03203F
:10565C000A21022301F0ABF93B4900200870082015
:10566C0002F06CFD00901FBD6D550000FD55000053
:10567C00A156000061570000000400F03C0000013E
:10568C0000000340A08601004400000130570020B8
:10569C00315700201FB52D480068C06803463A48B2
:1056AC00002101229847019028480068019900695F
:1056BC0002463548904736480068006C0146182071
:1056CC0088470290029800283BD131480068344A40
:1056DC00344B006808210446009118200121A04792
:1056EC002B4800684069014618208847254900204E
:1056FC000870002003900398082810DA0398294AB0
:10570C002049039B105C0A7800F00100984010437C
:10571C0008700398401C039003980828EEDB194886
:10572C00007818B117480078FF2807D1074800689F
:10573C00406B024614480021904702E010490120BA
:10574C00087000901FBDC046325700202400000195
:10575C000080034008B50E480068C0688047009080
:10576C00009838B10A480068006980470E490868FB
:10577C00401C086008BDC0460000000000007F43CC
:10578C002057002029570020009003407052002021
:10579C0054000001C8540020888003403457002076
:1057AC0048900340215700202C570020ADF1080DE4
:1057BC008DF8000022499DF80000087002B0704777
:1057CC001F4800787047ADF1080D00901D490098F6
:1057DC00086002B070471B4800687047ADF1080DB7
:1057EC008DF800009DF80000401C00F00F0002B086
:1057FC007047ADF1080D8DF8000013499DF80000BD
:10580C00087002B07047104800787047ADF1080D71
:10581C008DF80000BC499DF80000087002B070477C
:10582C00B94800787047ADF1080DADF80000B749E4
:10583C00BDF80000088002B07047B448008870477B
:10584C0049570020445700204857002000B5ADF1BF
:10585C00540D8DF80C3002920191009000200690AE
:10586C000298079000211C220DF1220002F08EFC00
:10587C0010A81390FFF7AFFF1190009812900298A8
:10588C0010280BD91B208DF840009DF8410020F00A
:10589C00700040F040008DF841000BE002980B3096
:1058AC008DF840009DF8410020F0700040F0300071
:1058BC008DF84100FFF7A7FFFFF790FFFFF799FF67
:1058CC00FFF7A1FF9DF8411060F303018DF8411023
:1058DC009DF80C0008B1002000E001209DF841105B
:1058EC0060F3C7118DF841100020ADF84200002084
:1058FC00049004980C280CD21399049A0498515CC7
:10590C00684480F822100498401C049004980C28D9
:10591C00F2D39DF84100C0F30210042830D1029A52
:10592C00029902989DF80830120E8DF82E20090C61
:10593C008DF82F10000A8DF830008DF831301020C2
:10594C008DF816000020049011E00699019A049835
:10595C004B1C0693895C1030684480F822109DF82B
:10596C001600401C8DF816000498401C04900798F3
:10597C000499884224D99DF816001C28E5DB1FE009
:10598C000C208DF816000020049011E00699019A65
:10599C0004984B1C0693895C0C30684480F82210E8
:1059AC009DF81600401C8DF816000498401C0490BD
:1059BC0007980499884203D99DF816001C28E5DB4A
:1059CC0004990798401A07900798002801D50020E1
:1059DC0000E0079807900020ADF82000002004900C
:1059EC009DF816000499884210D90498BDF820102F
:1059FC00684490F822004018ADF820000498401C30
:105A0C0004909DF8160004998842EED8BDF8200049
:105A1C00C043401CADF842009DF842008DF82400B4
:105A2C00BDF8420000128DF8250000208DF81400FE
:105A3C000F208DF815000DF12200FEF711FC08B3B4
:105A4C009DF80C0018B901208DF8140023E0B24A1F
:105A5C0040F2DC50002110ABFEF7A0FD012803D171
:105A6C0001208DF8140016E09DF91500401E8DF8EC
:105A7C0015009DF9150000280DDD4FF4FA60FEF7B6
:105A8C0087FD04E09DF91500401E8DF815009DF969
:105A9C0015000028CFDC9DF8140088B30798002867
:105AAC0001DC01202EE0079810280BDD1B208DF85F
:105ABC0040009DF8410020F0700040F050008DF83F
:105ACC0041000BE007980B308DF840009DF8410029
:105ADC0020F0700040F060008DF84100FFF793FE5D
:105AEC00FFF77CFEFFF785FEFFF78DFE9DF841105A
:105AFC0060F303018DF841100020ADF84200F6E68A
:105B0C000020FFE715B000BD4A5700204C5700207D
:105B1C0000B5ADF1140D019100900198C01C20F05E
:105B2C000300001D0190019850F8040C029000989D
:105B3C000390039800780B281FD1029803994068B2
:105B4C008968884219D1029803998068496888420B
:105B5C0013D10298407800F00F00FFF73FFE039935
:105B6C00497801F00F01884207D103984078C0F3BF
:105B7C000210012801D1012000E0002005B000BD79
:105B8C0000B5ADF14C0D0391029000200590002062
:105B9C008DF8240000200A901C2200210BA802F092
:105BAC00F5FA0BA8FEF7F9FB8DF81800A9E005A88B
:105BBC000BA900F0B3F8022840F0A88005984078B3
:105BCC00C0F30210032806D005984078C0F30210E9
:105BDC00042840F09B8005984078C0F302100428FC
:105BEC0016D19DF838009DF839309DF83A209DF873
:105BFC003B10000640EA034040EA022001430791B3
:105C0C00059800780F38089010208DF819000AE0DC
:105C1C009DF82C000B380790059800780B380890ED
:105C2C000C208DF81900079802F02CFD02990860E1
:105C3C000020049008980499884259D9049B9DF837
:105C4C0019000A99029AC018684490F82C004B1C51
:105C5C000A93126888540498401C0490089804997C
:105C6C008842EBD844E00798089988424ED10898AE
:105C7C000399086001204DE0FFF7D2FDBA4A09A94B
:105C8C0003460BA8009042F2107001910021FEF720
:105C9C0085FC012823D1002004909DF82400049950
:105CAC00884212D904980A99029A0C30684490F8E8
:105CBC002C004B1C0A93126888540498401C0490C6
:105CCC009DF8240004998842ECD808999DF824008A
:105CDC0040180890FFE7079808998842CCD8079895
:105CEC000899884212D1089803990860012011E0A4
:105CFC0005984078C0F30210C01EB4D0401EBBD033
:105D0C0004E09DF8180000283FF451AF03980021DF
:105D1C000160002013B000BD1D5B00000EB50191A9
:105D2C000090019800990860009800684078C0F3D2
:105D3C000210072806D0FFF74EFD00990968896804
:105D4C0088424FD10098006800780C2837DD009805
:105D5C0000684078C011400811D200980068407863
:105D6C00C0F3021007280AD000980099009A006826
:105D7C000968126800684968926800F09DF8FFF79E
:105D8C004FFD00990968497801F00F01884208D14C
:105D9C00FFF753FD009909684988884201D1012019
:105DAC0021E000980068407800F00F00FFF72EFD0E
:105DBC00009800684088FFF736FD022013E0009839
:105DCC0000684078C0F3021060B900980099009AFE
:105DDC0000680968126800684968926800F06CF8FD
:105DEC00032000E000200EBD00B5ADF1240D0191A3
:105DFC0000900198C01C20F00300001D0190019838
:105E0C0010F8040C8DF808000198C01C20F0030059
:105E1C00001D0190019850F8040C03900198C01CCF
:105E2C0020F00300001D0190019850F8040C049020
:105E3C0000200690009906A8FFF770FF8DF81C0053
:105E4C009DF81C00022834D19DF80800FFF7C6FC11
:105E5C000699497801F00F0188422AD106984078BA
:105E6C00C0F30210052805D006984078C0F3021044
:105E7C0006281ED10698049900780B38087000206B
:105E8C008DF814009DF814001C2810DA00989DF869
:105E9C001410039A9DF81430085C98549DF8140063
:105EAC00401C8DF814009DF814001C28EEDB01201A
:105EBC0000E0002009B000BD07B401B480B502AF0A
:105ECC00ADF1180D0B208DF804009DF8050040F085
:105EDC0080008DF805009DF8050020F0700040F062
:105EEC0010008DF80500787900F00F00FFF776FCB4
:105EFC009DF8051060F303018DF80510FFF76BFC9E
:105F0C000290B86803900020ADF806000020ADF8B0
:105F1C00100000208DF800009DF800000C2811DA0C
:105F2C009DF80000BDF81010684400794018ADF8D9
:105F3C0010009DF80000401C8DF800009DF800003A
:105F4C000C28EDDBBDF81000C043401CADF806007A
:105F5C004FF4FA70FEF71CFB01A8FEF781F906B0AE
:105F6C00BDE8804004B07047F55D000008B50090B6
:105F7C00009820B1009802F04CFC0020009008BD65
:105F8C0008B5E2480068406E01464FF4B0108847EF
:105F9C00DE480068D0F8881002208847DB4800688B
:105FAC0080690146DA488847D8480068006E804707
:105FBC0000090090D749009843F69822B0FBF2F004
:105FCC000860D248006880690146D3488847CF48AA
:105FDC000068D0F8881002208847D0480068C06B51
:105FEC000246CF4801219047C848006880690146A5
:105FFC00CC488847C5480068D0F8881002208847EC
:10600C00C6480068C06B0246C74830219047C34859
:10601C00006800680346C448302100229847E348D2
:10602C00006840690246E448C0219047DF48006898
:10603C0040680346E048C02100229847DB48B54938
:10604C0000680A6880680346DB48C0219847D74837
:10605C00006800680346D848C42100229847D348FA
:10606C000068C06A0346D448102100229847CF48E4
:10607C00006840680346D048C02100229847CB48AE
:10608C00A44900680A6880680346CB48C021984739
:10609C00C648006800680346C748C52100229847D7
:1060AC00C2480068C06A0346C348202100229847B2
:1060BC0096480068806901469C4888479348006868
:1060CC00D0F888100220884794480068C06B0246BC
:1060DC00E248302190479148006800680346DF4849
:1060EC00302100229847B148006840690246B24806
:1060FC0080219047AD48006840680346AE48802137
:10610C0000229847A948834900680A6880680346BA
:10611C00A94880219847A548006800680346A6480E
:10612C00822100229847A1480068C06A0346A24811
:10613C000421002298479D480068406803469E4809
:10614C008021002298479948724900680A68806843
:10615C000346994880219847944800680068034694
:10616C00954883210022984790480068C06A0346EE
:10617C00914808210022984708BD08B500F009F89D
:10618C0000F06EF900F094F908BDDD4901200860BB
:10619C007047DB4900200860704703B480B502AF3C
:1061AC00FFF7F7FF81480068406902468248C0212A
:1061BC0090477E480068406902467F48802190479E
:1061CC00388800F017F8B88800F0B2F87748006803
:1061DC00006902467848C0219047744800680069FD
:1061EC000246754880219047FFF7CFFFBDE88040FD
:1061FC0002B0704701B401B480B502AFADF1080D27
:10620C0078792D2802DA00F02BF97AE07879FA28DF
:10621C0001DDFA2078713F4978790968C0F5807002
:10622C004143080A00903879A0BB3C480068C06B19
:10623C0002463D48202190473848006800680346D4
:10624C00394820212022984734480068406C024687
:10625C0035481021904731480068806E0146A948A6
:10626C00884752480068009A006803465248C42187
:10627C0098474E480068C06A03464F4820210022C8
:10628C0098474A480068C06A03464B4810210122CF
:10629C00984736E03879012833D120480068406CA3
:1062AC0002462148202190471C480068806E014618
:1062BC00954888473D480068009A006803463E4868
:1062CC00C521984715480068C06B02461648102136
:1062DC0090471248006800680346134810211022AA
:1062EC00984732480068C06A03463348202101228F
:1062FC0098472E480068C06A03462F481021002298
:10630C00984702B0BDE8804002B0704744000001DD
:10631C00004000F0005C0020030800F020000001A9
:10632C0000700040040800F000400240010800F03A
:10633C0001B401B480B502AFADF1080D78792D2808
:10634C0002DA00F0B5F883E07879FA2801DDFA205A
:10635C007871734978790968C0F580704143080AEF
:10636C000090387900283CD16A480068C06B02461E
:10637C003A48202190476748006800680346374830
:10638C0020212022984763480068406C024633481D
:10639C00102190475F480068806E01465B48884733
:1063AC005D480068009A006802E0C04630000001B9
:1063BC0003465A4802E0C0460080024082219847BA
:1063CC0055480068C06A0346544808210022984783
:1063DC0051480068C06A034650480421012298477E
:1063EC0036E03879012833D14A480068406C0246BF
:1063FC001A482021904747480068806E014644485F
:10640C00884745480068009A006803464348832142
:10641C00984740480068C06B0246104810219047CE
:10642C003C480068006803460C481021102298472D
:10643C0039480068C06A0346384808210122984749
:10644C0035480068C06A0346344804210022984746
:10645C0002B0BDE8804002B07047C046005000401A
:10646C0008B52D480068406902462C48C021904769
:10647C0029480068C06A0346284820210122984711
:10648C0025480068C06A0346244810210122984719
:10649C0020480068C06B02462248302190471D48B6
:1064AC000068006803461F4830210022984708BD49
:1064BC0008B5194800684069024618488021904781
:1064CC0015480068C06A0346144808210022984702
:1064DC0011480068C06A03461048042100229847FE
:1064EC000C480068C06B02460F48302190470948A1
:1064FC000068006803460C4830210022984708BD0C
:10650C000470004004100400041404000410010082
:10651C000414010020000001300000010080024042
:10652C00005C0020004002400050004008B58DF88F
:10653C0000000FE0012001F065F916E0022001F0E7
:10654C0061F912E001F0E8F90FE001F069F90CE0F3
:10655C0000200BE09DF80000401EF6D0401EE9D054
:10656C00401EEBD0401EEDD0F2E7012008BD0EB569
:10657C0001918DF800004EE00198801C00F0EBF8C2
:10658C0070E00198801C00F06EF86BE00E2001F0BA
:10659C00E1FD67E0FEF72FFF64E000F01BF961E01E
:1065AC0001F055FA5EE00198801C00F01BF959E0EF
:1065BC00FFF756FF56E0FFF77BFF53E0042001F096
:1065CC00B0FDFEF7D1FC4FF4167100F029FA00284B
:1065DC0048D0042001F0B2FD44E0042001F0A1FDFC
:1065EC00FEF7C4FC4FF4167100F01AFA002839D0EB
:1065FC00042001F0A3FD35E00198801C00F00BF99C
:10660C0030E00198801C00F087F92BE09DF8000029
:10661C00FFF78CFF26E09DF80000401F0E28F5D8F0
:10662C0001A151F820008746856500008F650000A8
:10663C0099650000A1650000C9650000E7650000D0
:10664C00A7650000AD650000B3650000BD650000E6
:10665C00C3650000056600000F660000716600004F
:10666C00716600000EBD0EB5009000984178009840
:10667C000078000640EA01400099897840EA012040
:10668C000099C97801430191082001F04AFD9F4A05
:10669C00019B9FA003C8FDF7DFFF68B103208DF8B5
:1066AC0008000A208DF80900022102A800F0B8F9B0
:1066BC00082001F043FDFFE70EBD00B5ADF1140D50
:1066CC0000900098C01C20F00300001D0090009862
:1066DC0050F8040C019000208DF80A000020039063
:1066EC000020049003A904A8FFF74AFA58B30198B4
:1066FC000399884227D10020ADF808000198BDF815
:10670C00081088421DD90498BDF808109DF80A207D
:10671C00085C904206D0049810B10498FFF726FC50
:10672C00002016E09DF80A00401C8DF80A00BDF808
:10673C000800401CADF808000198BDF8081088420C
:10674C00E1D8012005E0049810B10498FFF70EFC85
:10675C00002005B000BD00B5ADF1140D00900098FF
:10676C00009B009A009900785B789278C9780006B3
:10677C0040EA034040EA0220014301910198401095
:10678C00400000F0B1F902900020ADF80C000BE0D5
:10679C00BDF80C10029ABDF80C0022F81100BDF8DF
:1067AC000C00401CADF80C000198BDF80C10B1EBBE
:1067BC00500FEDD3082001F0B4FC0298019900F0C1
:1067CC002FF910B1082001F0B9FC029800F0BDF9C6
:1067DC0005B000BD08B5082001F0A3FC0120FEF7B0
:1067EC001DFE08BD0EB50090009800788DF80400D1
:1067FC00009840788DF80500009880788DF8060098
:10680C000098C0788DF80700BDF80610BDF804009C
:10681C00FFF7C3FC0EBD00B5ADF1240D0090009840
:10682C00007801900199480000EB8100401C8DF824
:10683C0008009DF8080000F057F903909DF804003B
:10684C0003990870012006900120ADF81C0043E06C
:10685C000099BDF81C30BDF81C00009A595C401C16
:10686C00105C40EA0120ADF81000BDF8100001F0FA
:10687C008EFB05900099BDF81C200698039B515C7B
:10688C00421C0692C154009ABDF81C000699039B49
:10689C00401C105C4A1C0692C85405980399069A31
:1068AC00000E5054039A05990698090C80184170F3
:1068BC000599039A0698090A80188170039A9DF825
:1068CC00141006988018C1700698001D0690BDF82B
:1068DC001C00801CADF81C000198BDF81C10B1EB1D
:1068EC00400FB5D9082001F01CFC9DF80830039A24
:1068FC0003200A2100F05BF810B1082001F01EFC07
:10690C00039800F022F909B000BDC046C76600002C
:10691C0040420F0000000000F0B5ADF1140D0090E6
:10692C00009800788DF8040001208DF8100033E0F9
:10693C0000999DF810309DF81000009A595C401C8D
:10694C00105C40EA012002909DF81040009F9DF8D9
:10695C001020009B9DF81050009E9DF8100000998F
:10696C00A41C3C5D921C9B185A78AD1C801C76199B
:10697C000918F0788B78210641EA024141EA03219B
:10698C00084303900298039901F0EBFA68B19DF863
:10699C001000801D8DF810009DF804209DF810103B
:1069AC00500000EB82008842C2DA05B0F0BD00B5A1
:1069BC00ADF11C0D029301928DF801108DF80000C1
:1069CC000298801C0590059800F08EF806909DF8B2
:1069DC000000069908709DF8010006994870002087
:1069EC0003900298039988420DD90199039B03984F
:1069FC00069A595C801C11540398401C0390029811
:106A0C0003998842F1D80698059900F009F88DF899
:106A1C001000069800F099F89DF8100007B000BD22
:106A2C000EB5019100900C48019A00990123FEF7D4
:106A3C000DFF08B1012000E000200EBDADF1100DDE
:106A4C0002920191009004B07047ADF1080D8DF8E1
:106A5C000410009002B0704702ACC100BE4810B5E3
:106A6C0000688047A84BA74ABC48A84C00219960F5
:106A7C00916000685C60191D5160804710BDA14990
:106A8C00091D0A6800230AE0904206D1002B08BFBA
:106A9C00406807D040685860704713465268002A17
:106AAC00F2D1002008607047964970B5091D0E6838
:106ABC003246002A08BF086013D000250EE0036898
:106ACC001468A34208D8002D04BF466008600AD0A1
:106ADC0042600146284605E015465268002AEED170
:106AEC0068600021416070BDF8B504469CB1854DCD
:106AFC002D1D686808B1FFF7B1FF97480068804703
:106B0C002E680B3424F00704241F00E07668934FA2
:106B1C001EB9386880470020F8BD3568AC42F5D8FE
:106B2C003046FFF7ACFF2D1B072D06D9A0192D1FE2
:106B3C00001D0560FFF7B8FF34603168386841F01C
:106B4C00010131608047301DF8BDF8B50546002DB8
:106B5C005AD06C480830006808B1FFF77FFF7E48B8
:106B6C000068804768482D1F041DA54208D921687C
:106B7C00264621F001017418241DA542F7D800E027
:106B8C000026764FA5423DD121684A083AD35F4A88
:106B9C0021F0010165182160121D2D1D1218AA4249
:106BAC0038BF00251EB13068400828BF00261DB133
:106BBC002868400828BF002556B93DB12846FFF784
:106BCC005EFF216828684018001D2060204617E0F1
:106BDC0045B93046FFF753FF316820684018001D57
:106BEC0030600CE03046FFF74AFF2846FFF747FFBE
:106BFC0032682068296880180918083131603046DD
:106C0C00FFF752FF38688047F8BD2DE9F047814601
:106C1C008A46B9F1000FA9F1040704D10846FFF721
:106C2C0063FF044657E07D480068BAF1000F05D1B8
:106C3C004846FFF78AFF0020BDE8F08708B1FFF750
:106C4C000DFF45480068804744493D6808680AF1D3
:106C5C000B0424F00704241F6A082FD36D1EA542D1
:106C6C004CD0A542884638D86E4B6D49EA19101D98
:106C7C00C91881421BD951684A0818D26E18361BA4
:106C8C00361D14D4FFF7FBFED8F80000082E09D3EC
:106C9C0044F00101E019361F3960001D0660FFF752
:106CAC0003FF29E0A41944F001043C6026E050469F
:106CBC00FFF71AFF0446D8F800000CB98047BAE772
:106CCC00204649462A4601F07FF94846FFF73DFF2A
:106CDC00D8F800008047A14611E02D1B082D0DD3DC
:106CEC0044F00101E0192D1F3960001D45F001052C
:106CFC000560001DFFF729FFD8F8000080474846C3
:106D0C00BDE8F08738570020702A0020F8270000D3
:106D1C002DE9F84F05460C46681E002C804641D0E4
:106D2C00092D04D33C4E706815EA080F04D00846B0
:106D3C00FFF7DAFE064658E008B1FFF78FFE06486B
:106D4C000068804737680B3424F00704A4F1040A68
:106D5C00DFF808B01FB303E0505700205457002051
:106D6C006FEA08013C6807F1040908EB090001EA25
:106D7C000006A6F1040CA9EB0600241807F1080084
:106D8C00A4EB0A0402E0AC44AE19641B8445FAD3AC
:106D9C00002C03D57F68002FE4D100E02FB95846B2
:106DAC00006880470020BDE8F88F3846FFF767FE83
:106DBC00351F4AF00100B145CCF8000005D0A5EB19
:106DCC00090038603846FFF76FFE072C03D8286897
:106DDC0024182C6006E0241F0AEB06004AF8064033
:106DEC00FFF762FE5846006880473046BDE8F88FD2
:106DFC0010B500FB01F42046FFF776FE0146002992
:106E0C0008BF002007D0E41CA20804D00023521EA7
:106E1C0041F8043BFBD110BD3C57002040570020EB
:106E2C006C2A00200028000008B5C9480068806959
:106E3C000146A4488847C748002101F0F7FCC64822
:106E4C000068C0680246C34821219047C2489E4949
:106E5C000068C0680246BF489047BF480068C06CD5
:106E6C000246BC4801219047BB480068C06C0246F2
:106E7C00B8484FF480719047B748006800680246E4
:106E8C00B44801219047B448006800680246B148F4
:106E9C004FF480719047BC4900200870BB4900201A
:106EAC00087008BD1CB501910090B748007820B956
:106EBC000098019900F01BF818E0B448007820B94C
:106ECC000098019900F055F810E0A149A048096814
:106EDC000068D1F88840006E8047019902460098FE
:106EEC0001EB4101B2FBF1F14843A0471CBD00B5D9
:106EFC00ADF1140D019100900098002837D0944802
:106F0C000068006E8047019A0099B0FBF2F048438C
:106F1C00039091480068039A806B03468D48FF21CB
:106F2C0098478D480068006802468A4801219047BE
:106F3C0089480068406802468648FF21904792497C
:106F4C000120087084480068406D02468148002189
:106F5C009047029002984008F4D37F48006800687C
:106F6C0002467C480121904787490020087005B0F3
:106F7C0000BD00B5ADF1140D0191009000980028F2
:106F8C003BD073480068006E8047019A0099B0FBB3
:106F9C00F2F04843039070480068039A806B0346F4
:106FAC006C484FF47F4198476B4800680068024674
:106FBC0068484FF480719047674800684068024603
:106FCC0064484FF47F419047704901200870624833
:106FDC000068406D02465F4800219047029002987D
:106FEC00400AF4D35C4800680068024659484FF4E4
:106FFC008071904765490020087005B000BD08B548
:10700C00009000984FF47A71FFF74CFF08BD08B55B
:10701C0000905F490098FFF745FF08BD0FB480B59D
:10702C0002AFADF1100D00900098002844D0381D2F
:10703C0020F00300001D019045480068006E804759
:10704C0000994FF47A72B0FBF2F048430390424837
:10705C000068039A806B03463E48FF2198473E48E0
:10706C000068006802463B48012190473A48006896
:10707C00406802463748FF21904743490120087079
:10708C0035480068406D0246324800219047029016
:10709C000298400800D305E07A680098019990475F
:1070AC000028EDD02C4800680068024629480121D0
:1070BC00904735490020087004B0BDE8804004B00A
:1070CC007047C046015C00F0212100040FB480B56C
:1070DC0002AFADF1100D0090009800284FD0381D74
:1070EC0020F00300001D019019480068006E8047D5
:1070FC0000994FF47A72B0FBF2F0484303901648B3
:10710C000068039A806B034612484FF47F419847FE
:10711C0011480068006802460E484FF48071904791
:10712C000D480068406802460A484FF47F4190477A
:10713C0016490120087008480068406D0246054851
:10714C000021904702900298400A0DD206E0C046FA
:10715C0044000001007003403C0000017968019874
:10716C0088470028E7D0FFE70A4800680068024615
:10717C0009484FF48071904704490020087004B00E
:10718C00BDE8804004B070473657002037570020C8
:10719C0040420F003C000001007003400EB58348D4
:1071AC0001F026FA012000F070F8FFE7804801F0AA
:1071BC001FFA032000F069F87E4801F01BFB022047
:1071CC0000F063F840F6020001F0D4F841F202003E
:1071DC0001F0D0F841F2024001F0CCF84FF0402021
:1071EC00342101F0A6FA00F09BFD01467248009094
:1071FC00082001906F480022002301F06BF94FF03A
:10720C004020802101F08CFA4FF04020082101F041
:10721C0064FA4FF04020402101F05FFA654801F01C
:10722C00EEFA644802A901F08DFA0028F9D10EBDDE
:10723C0008B58DF8000080214FF0402001F0EDFAE8
:10724C009DF8000000B35D480068C06880210022F2
:10725C0003464FF040209847594800688069002148
:10726C000246102090475749102001F0A7F94FF023
:10727C004020802101F094FA51480068406A014690
:10728C001020884700F016F808BD1CB500904E4938
:10729C004D4809680068D1F88840006E80474B4A19
:1072AC0001460098B1FBF2F14843A0471CBD484889
:1072BC000078704708B54248006800680146102005
:1072CC00884743490120087008BD08B53C48006850
:1072DC00C0680146102088473D490020087008BD51
:1072EC0008B54FF04020002101F046FA014600227B
:1072FC000020090A00D3012202B1012008BD08B503
:10730C004FF04020802101F088FA08BD08B52C48C8
:10731C000068406A01461020884708BD08B5274818
:10732C00006800680821082203464FF04020984767
:10733C0008BD08B5214800680068082100220346F2
:10734C004FF04020984708BD08B51C4800680068FD
:10735C004021402203464FF0402098471D49012010
:10736C00087008BD08B51548006800684021002267
:10737C0003464FF04020984716490020087008BD7E
:10738C000EB5009014480068009900680246094840
:10739C00904711480068406A0246064801A9904788
:1073AC009DF804000EBD0B4800787047000800F0F3
:1073BC00001C00F00080004080841E0020000001B2
:1073CC0048000001D97C000044000001C0C62D001B
:1073DC004E570020045C0020180000012DE9F043FA
:1073EC00002B08BF002A10D10026474276EB01077C
:1073FC00BCBF6FF000006FF00041C4BF00204FF025
:10740C00004100F0FAF8BDE8F0835FEA530898EA0F
:10741C00610803D50026404266EB01015FF00009CC
:10742C0013F0004E03D00026524266EB03031C46B9
:10743C001546002C08BF8D429CBF2C1C0025070C48
:10744C0047EA01470E0CB44208BFBD429EBF24045C
:10745C0044EA15442D04070A47EA01670E0AB442B0
:10746C0008BFBD429EBF240244EA15642D024708A2
:10747C0047EAC1774E08B44208BFBD4200F2928081
:10748C00870847EA81778E08B44208BFBD427BD893
:10749C00C70847EA4177CE08B44208BFBD4265D859
:1074AC00070947EA01770E09B44208BFBD424FD81D
:1074BC00470947EAC1674E09B44208BFBD4239D8F3
:1074CC00870947EA81678E09B44208BFBD4223D8B9
:1074DC00C70947EA4167CE09B44208BFBD420DD87F
:1074EC00E60146EA5566EF01B14208BFB84201D346
:1074FC00C01BB14159EB09094EEB0E0EA60146EA31
:10750C009566AF01B14208BFB84201D3C01BB1416F
:10751C0059EB09094EEB0E0E660146EAD5666F0172
:10752C00B14208BFB84201D3C01BB14159EB0909A4
:10753C004EEB0E0E260146EA15762F01B14208BF1E
:10754C00B84201D3C01BB14159EB09094EEB0E0EE9
:10755C00E60046EA5576EF00B14208BFB84201D3C7
:10756C00C01BB14159EB09094EEB0E0EA60046EAC1
:10757C009576AF00B14208BFB84201D3C01BB141F0
:10758C0059EB09094EEB0E0E660046EAD5766F00F4
:10759C00B14208BFB84201D3C01BB14159EB090934
:1075AC004EEB0E0EA14208BFA84201D3401BA141D5
:1075BC0059EB09094EEB0E0EA34208BFAA423EBF7F
:1075CC002D0A45EA0465240A8AD373464A465FEAC3
:1075DC00080803D50026404266EB01015FEA480823
:1075EC0003D50026524266EB03031E4617460B4694
:1075FC00024631463846BDE8F0837047704708B5FF
:10760C008DF800007E489DF8001001F0FDF808BDD3
:10761C0008B5009006E000980078FFF7F0FF00989E
:10762C00401C0090009800780028F4D108BD08B5E3
:10763C0000900098FFF7ECFF0D20FFF7E0FF0A2009
:10764C00FFF7DDFF08BD00B5ADF11C0D8DF808206E
:10765C008DE803009DE8030004AA82E8030004A857
:10766C0003C800290DDA2D20FFF7C9FF04A890E804
:10767C0006000020494260EB020204A880E80600E4
:10768C002DE004A803C84FF0000342428B4118DAE6
:10769C0004A803C80A220023FFF7A0FE8DE803000C
:1076AC009DE803000022FFF7CEFF04A803C80A22BE
:1076BC000023FFF793FE30208018C0B2FFF79FFF26
:1076CC000DE004AA002100200CCA8B4200D182429A
:1076DC0005D19DF8080010B13020FFF790FF07B0DE
:1076EC0000BD0EB58DF80410009000989DF8042094
:1076FC00C117FFF7A8FF0EBD08B58DF80210ADF845
:10770C000000BDF900009DF80220C117FFF79BFF98
:10771C0008BD00B5ADF12C0D02AA8DED000A82E872
:10772C000300009806909DED060AB5EEC00AF1EE36
:10773C0010FA0BD22D20FFF762FF9DED060A2F48A1
:10774C0000EE900A30EEC00A8DED060A069800F0A5
:10775C0055FD08AA82E8030008A803C80122FFF718
:10776C0072FF2E20FFF74BFF0020002104AA82E8B5
:10777C00030002A803C804AA0CCA82428B413ADA5D
:10778C0008A803C800F03EFE00EE900A9DED060A24
:10779C0030EE600AF2EE040A20EE200ABDEEC00ABA
:1077AC0010EE100A0A2290FBF2F15143401A3030CD
:1077BC00C0B2FFF724FF9DED060AF2EE040A20EE9C
:1077CC00800A8DED060A069800F018FD08AA82E8DA
:1077DC00030004A890E80C0000210120801804AAE2
:1077EC0041EB030182E8030002A803C804AA0CCAF7
:1077FC0082428B41C4DB0BB000BDC04600000000D0
:10780C0000C0004008B58DF800004C499DF8000000
:10781C000870352000F0CAFF08BD48480078704752
:10782C00484847490860704708B5352000F0BEFF4E
:10783C0008BD08B505E000F050F809E000F063F869
:10784C0006E03E480078401EF5D0401EF6D0FFE71B
:10785C0008BD08B53C480068006A01463B488847AB
:10786C0039480068006A014639488847394800F0B1
:10787C00AFFF012000F0B2FF3749012000F0F4FC0B
:10788C0031480068806A0146304888472E480068B5
:10789C00806A01462E488847304800F093FF232029
:1078AC0000F08AFF28480068006B014601208847D9
:1078BC002B4800688069E021024635209047294911
:1078CC00352000F07BFE2648006800680146352014
:1078DC0088471A490020087008BD08B51A48006886
:1078EC00C06D014643F6110088470E2000F026FCBF
:1078FC00082000F016FC1448006800688047082037
:10790C0000F01CFC08BD08B50E2000F017FC0E485A
:10791C000068006D804708BD08B50B480068C06D55
:10792C000146114888470549002008700648006840
:10793C00D0F888100D48884708BDC0464F57002026
:10794C000CED00E00400FA0544000001000800F012
:10795C00015C00F017000080320000401200008033
:10796C00480000013F7800004005C001A0860100DE
:10797C001CB54E480068406E01464FF4B010884765
:10798C004A480068D0F888100220884747480068A9
:10799C00806901464648884744480068D0F88810FA
:1079AC000220884741480068806901464148884761
:1079BC003E480068D0F88810022088473F483E496E
:1079CC0008603F49086840F0010008603A4900200F
:1079DC00086036480068006E8047000900900098E7
:1079EC004FF4FA51B0FBF1F0019036480068806E0C
:1079FC0001464FF00510884732480068406803463E
:107A0C0031480121022298472E48006840690446FB
:107A1C002D48012166220823A0472C4800684068A5
:107A2C0003462B48C0210022984728480068019A39
:107A3C00806803462648C02198472448019900686D
:107A4C000068034622484A08C42198471CBD08B563
:107A5C004FF47A7000F011FA1C480068C06A0346B3
:107A6C001B481021012298471848006800690246FB
:107A7C001748C02190474FF4FA6000F0FEF9134804
:107A8C000068406902461248C02190470F480068C0
:107A9C00806A02460E48042190470C480068C06A70
:107AAC0003460B4810210022984708BD44000001F2
:107ABC00014000F0050800F0205502404B434F4CAC
:107ACC00245502402000000100500240300000010B
:107ADC0000900240F8B5844600254FF0010E0327B4
:107AEC000EFA05F001420FD0DCF8C44F6E0007FA15
:107AFC0006F08443CCF8C44FDCF8C40FC2F3411435
:107B0C00B4400443CCF8C44F6D1C082DE8DB50087E
:107B1C0027BFDCF800050843DCF800058843CCF8E7
:107B2C000005900827BFDCF804050843DCF80405C1
:107B3C008843CCF80405D00827BFDCF808050843B7
:107B4C00DCF808058843CCF80805100927BFDCF8D9
:107B5C0018050843DCF818058843CCF818055009BB
:107B6C0027BFDCF83C050843DCF83C058843CCF81F
:107B7C003C05580827BFDCF80C050843DCF80C055D
:107B8C008843CCF80C05980827BFDCF8100508438F
:107B9C00DCF810058843CCF81005D80827BFDCF8B2
:107BAC0014050843DCF814058843CCF814051809AF
:107BBC0027BFDCF81C050843DCF81C058843CCF80F
:107BCC001C05980A27BFDCF844050843DCF844057B
:107BDC00884313F4407FCCF8440519BFDCF840050A
:107BEC000843DCF840058843002BCCF8400519BF4E
:107BFC00DCF8280520EA0101DCF828050143CCF863
:107C0C002815F8BD70470EB500F026FDFFF7F6FC01
:107C1C0000F072FAFFF71DFE00F00EF9FDF7A8F95F
:107C2C00FFF7A6FEFEF7ACF900F07CF9FFF7FCF8C5
:107C3C000120FCF711FC0E2000F080FA3748FDF70C
:107C4C00C2FDFDF791F901900020ADF80000BDF8E0
:107C5C000000B0F5167F0FDA0199BDF800209DF8F1
:107C6C0000005054BDF80000401CADF80000BDF8F9
:107C7C000000B0F5167FEFDB40F2EE20FFF7BFF906
:107C8C00022000F067FAF7E70EB50191009000981A
:107C9C000290FFF7C2FD98B102980078012801D03C
:107CAC00FFF7C2FD02984078FEF740FC68B9FFF779
:107CBC00BBFD0AE0029800994078FEF758FC04E0FE
:107CCC0002980078401EF5D0FFE70EBD0EB50020DF
:107CDC000190FFF705FBD8B1FFF711FBFFF7F5FAA1
:107CEC00022000F01EFA01A86946FDF749FF18B101
:107CFC0001980099FFF7C8FF019820B1019800F096
:107D0C0088FD00200190FFF7D5FA022000F016FA4A
:107D1C00FFF783FD08B1FFF787FD0EBDFFADBE0079
:107D2C00F8B53F4D2B6D2A6E10082CBF02F0700178
:107D3C0003F0300191B13B48103914D010390BD0FD
:107D4C00103906D0403918BF002067D14FF40040DD
:107D5C0009E047F2305006E0800804E03249180987
:107D6C0000F07C00085811084FF0FF3402D2190BB8
:107D7C0002D33CE0110B3AD2D5F85071D5F854111E
:107D8C00C1F30426761C01F01F01B6B2491C89B25E
:107D9C0071434900B0FBF1F0C7F30906C7F3892121
:107DAC004143704300EB9120296801F470461F4950
:107DBC0043F48003B6F5805618D0B6F5805613D030
:107DCC001B4DB6F580560DD0B6F5805608D0B6F5DD
:107DDC00405603D0B6F5005609D10D466C0806E0A6
:107DEC000C4604E02C4602E0124C00E04C00D90D8D
:107DFC0011D311080AD3D10F05D3110B3CBFC2F319
:107E0C008651400004D3C2F3C55101E0C3F3C35102
:107E1C00491CB0FBF1F0A04288BF201CF8BDC04645
:107E2C0010E00F400024F400D4880000005A6202D5
:107E3C0080F0FA02AA40F90308B535480068806959
:107E4C000146344888473448002100F0EFFC3348A1
:107E5C000068C06802463048212190472F480068CE
:107E6C00C06C02462C48012190472C4800680068E1
:107E7C00024629480121904708BD08B500902849C1
:107E8C00009800F009F808BD08B5009000984FF470
:107E9C007A7100F001F808BD00B5ADF1140D019137
:107EAC000090009888B31A480068006E8047019AC9
:107EBC000099B0FBF2F04843039018480068039A0D
:107ECC00806B03461448FF219847144800680068EB
:107EDC00024611480121904710480068406802464C
:107EEC000D48FF2190470D480068406D02460A4836
:107EFC0000219047029002984008F4D3074800688C
:107F0C000068024604480121904705B000BDC046F8
:107F1C0044000001010400F0001003403C0000018B
:107F2C0040420F0008B52548006880690146244886
:107F3C00884724480068406C80470028F9D12148C4
:107F4C000068406A014604208847012000F030F8A0
:107F5C0008BD08B540210422684600F015FB0098C6
:107F6C0008BD0EB50191009000988000009001981A
:107F7C00009900F0DBF900F00DFC30B1042000F0AA
:107F8C00E9FA00F007FC0028F8D101200EBD0EB56F
:107F9C0000900021042201A800F0F8F8009880005D
:107FAC0000900099042201A800F0EEFA01980EBD91
:107FBC00ADF1080D8DF8000002B0704744000001CF
:107FCC00005800F070000001002A4AD05FEA000C53
:107FDC008B071CD1830722D1102A08D370B4103A16
:107FEC0078C978C0103AFBD270BC103238D0042A51
:107FFC002CD3082A05D30C2A24BF08C908C008C9E9
:10800C0008C008C908C092072AD0920F22E00B784A
:10801C000370491C401C521E22D08B07F7D1C3079A
:10802C0014D18307D8D0121F12D308C903801B0C9C
:10803C004380001D121FF8D20AE008C903701B0A06
:10804C0043701B0A83701B0AC370001D121FF4D2ED
:10805C00121D05D00B780370491C401C521EF9D11F
:10806C0060467047F0B51E480127F84201D000F079
:10807C00EDF91E4D1E4F1F4EBD4206D203CD0478A6
:10808C00A4003459401CA047F6E7164D164FBD42CC
:10809C0002D210CDA047FAE7F0BD03251BE04168E2
:1080AC0008300A1C2A400BD11A1C2A40AB4305D0BD
:1080BC00046804300C600431043BF9D1131C05D066
:1080CC00047801300C700131013BF9D1021C2A40BB
:1080DC0001D0A84304300368002BE0D17047C046A0
:1080EC00FFFFFFFF0000000000000000908900006F
:1080FC00A88900007489000008B51E4800688069D2
:10810C0001461D4888471B480068D0F8881002209B
:10811C0088471A480068C06B024619480E219047E0
:10812C0008BDADF1080D8DF8000015489DF8002034
:10813C009DF8001040F8221002B07047ADF1080D08
:10814C008DF800000E499DF80020002041F8220017
:10815C0002B07047ADF1080D8DF8000008489DF88D
:10816C00001000EB8100016881F0FF01016002B09A
:10817C007047C04644000001050800F020000001D3
:10818C0000500240002213460A46194671B510F001
:10819C00030F0AD0002A82BF00F8011B521E10F0F8
:1081AC00030FF7D1002A08BF71BD11F0FF0141EA9E
:1081BC000121042A18D341EA0141082A0FD30E46A3
:1081CC00102A08D30C460D46B2F10F0312F00F0221
:1081DC0072C0103BFCD812F0080F18BF42C012F04E
:1081EC00040F18BF40F8041B12F0020F18BF20F840
:1081FC00021B12F0010F18BF017071BD1CB54FEAC4
:10820C0040044FEA14647F3C42BF002000211CBD97
:10821C00D4F13F041DD9021C4FEA002040F000406D
:10822C000021202C22BF011C0020203C21FA04F14B
:10823C003FBFC4F1200300FA03F31943E040002AC6
:10824C0003D50023494263EB00008646084671467D
:10825C001CBD00284FF000414FF0000048BF1CBD72
:10826C00401E61F100011CBD10B5164B144A1C6870
:10827C002240154C944219D011F07002A0F101006B
:10828C0009D0303A04D0403A08BF40F4800004E0F2
:10829C0040F4001001E040F440108A0828BF40F080
:1082AC000040C90F28BF40F0804005E0C00521F018
:1082BC00FC51A0F500000843C3F8440110BDC046B2
:1082CC000000FF7000E00F400000051070B510F8C2
:1082DC00014B1BE0401C5AB11D0A09D1022510F8B4
:1082EC00016B6D1E46EA0323F9D101E0042B02D386
:1082FC0010F8015B03E0254601E001F8015B5B1E11
:10830C00B3F1FF3FF9D101E001F8013B10F8013B5B
:10831C009C42F9D110F8013B002BE7D110F8015B1E
:10832C0003782D025B19D5D170BD704738B50C465A
:10833C000D4905460B480A6810400C4A824206D18A
:10834C0008686FF31F4010B9204600F0E5F80848A4
:10835C00A10914380160C4F38301416005614069CF
:10836C0038BDC0460000FF7000E00F400000051053
:10837C0018F00A4010B50F4B1C68C0F307410122DE
:10838C008A400D4B224208BF53F8311004D004220E
:10839C0002EBC10219468958D1F82C35C0F30724D9
:1083AC000F2200F00F00A240A04093431843C1F8E5
:1083BC002C0510BD6CE00F40448800004EF688512F
:1083CC00CEF2000108684FF0F00340EA0340086069
:1083DC0009488546094885446F4607208743BD46B2
:1083EC0007486F460760FFF73DFE00F083F9012058
:1083FC0000F054F8FEE7C0466C0200200028000094
:10840C0060570020002804BF002970471CB50246A5
:10841C0008461146021CBE23002804D500244942FC
:10842C0074EB000006D45B1E400040EAD1704FEAAA
:10843C004101F8D580302CBF5B1C4000400A40EA5B
:10844C00C350002A48BF40F000401CBD70B50F4D12
:10845C0006467388002416E0A00000EBC400301818
:10846C004168C26880684AB92A6852B10A7855F8DE
:10847C0022304A1C01461046984701E0FFF7A4FD44
:10848C007388641CA4B2A342E6DC70BD748900003E
:10849C0000BF704708B5FFF7FBFFFEE738B5054690
:1084AC00094800688047094C201D006810B101463E
:1084BC0028468847206800B18047054800688047F7
:1084CC00FFF7E8FF38BDC046505700205857002032
:1084DC005457002010B5022B0CBF082400240BB1FC
:1084EC0044F004044460029BB1FBF3F400239B1C96
:1084FC00B4FBF3F1491EFF29F9D8036102F0030321
:10850C009C01039B02F030025B1E43EA01231A43D9
:10851C001443046010BD000038B505460A2000F075
:10852C0082F90A4C032020600A2000F07CF901201B
:10853C00E90988400649C04308600A2000F073F935
:10854C00002020600A2000F06EF938BDFCD00F40EE
:10855C00C0E20A400B480421001D0160074906488F
:10856C000A681040064A824205D108686FF31F4022
:10857C0008B900F057B870470000FF7000E00F40DA
:10858C000000051010D00F4010B50B4B8C09920851
:10859C00A3F114031C60C1F3830159600AD005E0F8
:1085AC00596811B91968491C1960001D1969521EC6
:1085BC000160F5D110BDC04618F00A40F8B50B4D5E
:1085CC00094B2A681C4693420AD02A689C469B2673
:1085DC001768761E02F104024CF8047BF8D12B606C
:1085EC0044F82010F8BDC0460000002008ED00E063
:1085FC000B49C0F3072289180A0FC10801F4FF5177
:10860C0000F0FF00A1F5503121F07E4141EA0271EA
:10861C0041EA800141F00070012101607047C046C1
:10862C0000E60F4038B50A2000F0FDF8084D032095
:10863C0028600A2000F0F7F80648002404600A209D
:10864C0000F0F1F80A202C6000F0EDF838BDC046BF
:10865C00FCD00F40C0E20A4008B50748006800682B
:10866C008047054800680069804704480068C06D71
:10867C0001460348884708BD78000001440000010A
:10868C004005C001F8B5054605B90125064F074E52
:10869C002846FEF729FA3C6828B904B93446A047A5
:1086AC00A642F5D10020F8BD6457002037830000A6
:1086BC00530827BFD0F800340B43D0F800348B4359
:1086CC009208C0F8003427BFD0F820240A43D0F811
:1086DC0020248A43C0F82024704738B501220C4668
:1086EC0005460823FFF7F6F921462846FFF7E0FF79
:1086FC0038BD00000449B1F1FF3F07BF0021081C41
:10870C000868091DFFF77FBAFFFFFFFF03490860E8
:10871C0070470249091F0860704770475457002082
:10872C0010B50022FFF7C4FF01220823FFF7D2F98E
:10873C0010BD10B50222FFF7BBFF01220823FFF783
:10874C00C9F910BDC268D20803D380680860012043
:10875C00704700207047D0F8030020B10022401E63
:10876C0001F8012BFBD170474FF4807202FA01F132
:10877C000268114301607047002914BFD0F8180437
:10878C00D0F814047047D0F80320C31D08461946CE
:10879C00FFF71ABC014800687047C04618F00A4041
:1087AC00D0F810241143C0F8101470470149103848
:1087BC000860704700EF00E0014908607047C04650
:1087CC008CE10F4001496C310860704750E10F405B
:1087DC00014964310860704750E10F40014908605D
:1087EC007047C04688E10F40FFF7E8BD7047FEE7D1
:1087FC00FEE7FEE7416821F00201416070474168E5
:10880C0041F002014160704782699209FCD201601B
:10881C00704708B1FEF799B97047C0F81C1470473F
:10882C0050F821007047401EFDD17047C0F8C81F9A
:08883C0070470122FFF74ABD5D
:10884400004000400080054000500040009005407A
:108854000060004000A005400070004000B00540EA
:108864000040024000C005400050024000D00540D6
:108874000060024000E005400070024000F0054046
:1088840000D00340000006400010064000100640DF
:10889400002006400020064000300640003006401C
:1088A400004006400040064000500640005006408C
:1088B40000600640006006400070064000700640FC
:1088C400008006400080064000900640009006406C
:1088D40040420F0000201C0080841E000080250000
:1088E400999E36000040380000093D0000803E009B
:1088F40000004B00404B4C0000204E00808D5B007C
:1089040000C05D000080700000127A0000007D004D
:1089140080969800001BB7000080BB00C0E8CE0022
:10892400647ADA000024F4000000FA0080A812013E
:0C893400002D310100366E0140787D01FD
:108940000102020004BA00C046020700C000000194
:108950000100280000702A002001000000015ABD1B
:10896000020400C0020400278700002787021200CB
:1089700002000000638700003F880000938700002A
:108980000000000009040000000000006C0200006C
:1089900040890000705200208089000000580020AB
:0889A00088890000000000209E
:04000003000083C9AD
:00000001FF
