:10200000241C0020B93200003D330000453300009D
:102010004D3300004D3300004D3300000000000040
:102020000000000000000000000000004D33000030
:102030004D330000000000004D3300005533000018
:10204000F53300004D3300004D3300004D330000E8
:102050004D3300004D3300004D3300004D33000080
:102060004D3300004D3300004D3300004D33000070
:102070004D3300004D3300004D3300004D33000060
:1020800095440000014200004D3300004D33000034
:102090004D330000A94600004D3300004D330000D1
:1020A0004D3300004D3300004D3300004D33000030
:1020B0004D3300004D3300004D3300004D33000020
:1020C0004D3300004D3300004D3300004D33000010
:1020D0004D3300004D3300004D3300004D33000000
:1020E0004D33000000000000000000004D330000F0
:1020F0004D3300004D3300004D33000051430000CC
:102100004D3300004D3300004D330000A942000064
:1021100000000000000000004D3300004D330000BF
:102120004D3300004D3300004D3300004D330000AF
:102130004D3300004D3300004D3300004D3300009F
:10214000000000000000000000000000000000008F
:102150004D3300004D3300004D3300004D3300007F
:10216000000000000000000000000000000000006F
:10217000000000000000000000000000000000005F
:10218000000000000000000000000000000000004F
:10219000000000000000000000000000000000003F
:1021A000000000000000000000000000000000002F
:1021B0004D3300004D3300004D3300004D3300001F
:1021C0004D3300004D3300004D3300004D3300000F
:1021D0004D3300004D3300004D3300004D330000FF
:1021E0004D3300004D3300004D330000000000006F
:1021F000000000004D3300004D3300004D3300005F
:102200004D3300004D3300000000000000000000CE
:102210004D3300004D3300004D3300004D330000BE
:102220004D3300004D3300004D3300004D330000AE
:102230004D3300004D3300004D3300004D3300009E
:102240004D3300004D3300004D3300004D3300008E
:102250004D3300004D3300004D3300004D3300007E
:0C2260004D3300004D3300004D330000F2
:10226C0010402DE928409FE50030D4E5000053E3F1
:10227C000500001A1C309FE5000053E318009F1561
:10228C0000F020130130A0E30030C4E51040BDE89D
:10229C001EFF2FE1000C002000000000687C0000F5
:1022AC0008402DE934309FE5000053E330009F15C2
:1022BC0030109F1500F020132C009FE5003090E5A6
:1022CC00000053E30300000A20309FE5000053E3B5
:1022DC000FE0A01113FF2F110840BDE81EFF2FE1E6
:1022EC0000000000687C0000040C00203404002076
:1022FC0000000000F0309FE5000053E3E4309F0540
:10230C0003D0A0E100200FE10F0012E31500000A3A
:10231C00D1F021E303D0A0E101AA4DE20A30A0E103
:10232C00D7F021E303D0A0E1013A43E2DBF021E353
:10233C0003D0A0E1013A43E2D2F021E303D0A0E1C3
:10234C00023A43E2D3F021E303D0A0E1023943E2A5
:10235C00FF30C3E3FF3CC3E3043003E5002053E943
:10236C00C02082E302F021E101A843E20010B0E3B7
:10237C0001B0A0E10170A0E178009FE578209FE515
:10238C00002052E0A50A00EB60309FE5000053E30B
:10239C000100000A0FE0A0E103F0A0E150309FE53E
:1023AC00000053E30100000A0FE0A0E103F0A0E1FC
:1023BC000000B0E30010B0E30040A0E10150A0E148
:1023CC000000B0E334109FE50020B0E30030B0E330
:1023DC00150A00EB6F0A00EB0400A0E10510A0E168
:1023EC00E10300FA4D0A00EB00000800E028002091
:1023FC000000000000000000000C0020E02800207D
:10240C00604D000080B584B000AF78607B685B7A6B
:10241C00184600F049FE00F0D9FE00F001FF4FF025
:10242C001403FB7309E04DF29000C0F2030000F0BE
:10243C0025FFFB7B03F1FF33FB73FB7B002BF2D1FE
:10244C004FF0700000F038FA00F008FD7B689B79C3
:10245C00184600F0DDFD7B68DB79184600F0F8FDCE
:10246C007B685A787B689B781343DAB27B689B7ADB
:10247C001343DBB2184600F0E1F87B68DB781846B2
:10248C0000F0F0F87B681B78184600F0FDF840F679
:10249C001F43C2F200034FF000021A707B681B7AD4
:1024AC00184600F01DF800F019FB00F0FDFB7B68EE
:1024BC001A797B685B791343DAB240F61C43C2F29B
:1024CC0000031A707B681B7803F10203DAB240F642
:1024DC001D43C2F200031A7007F11007BD4680BD00
:1024EC0080B582B000AF0346FB7140F61F43C2F2C9
:1024FC0000031A78FB791340DBB2FA799A4223D0A5
:10250C0040F61F43C2F200031A78FB791343DAB288
:10251C0040F61F43C2F200031A7040F61F43C2F28A
:10252C0000031B7803F00703DAB240F61F43C2F234
:10253C0000031A7040F61F43C2F200031B784FF0E1
:10254C001D00194600F00CFA07F10807BD4680BDC6
:10255C0080B582B000AF0346FB7140F61F43C2F258
:10256C0000031A78FB791340DBB2002B1CD0FB79EB
:10257C006FEA0303DBB2DAB240F61F43C2F2000388
:10258C001B78DBB21340DBB2DAB240F61F43C2F267
:10259C0000031A7040F61F43C2F200031B784FF081
:1025AC001D00194600F0DCF907F10807BD4680BD97
:1025BC0080B500AF4FF0080000F0B0F903464FEAC9
:1025CC001313DBB2184680BD80B582B000AF4FF05C
:1025DC00030000F0A3F90346FB71FB7903F0FC0345
:1025EC00002B07D1FB7903F00303002B02D04FF033
:1025FC00010301E04FF00003DBB2184607F10807B6
:10260C00BD4680BD80B582B000AF0346FB71FB793F
:10261C0003F07F03DBB24FF00000194600F0A0F985
:10262C0007F10807BD4680BD80B500AF4FF0000034
:10263C0000F074F90346184680BD00BF80B582B027
:10264C0000AF0346FB71FB7903F00F03FB71FB79C1
:10265C004FF00600194600F083F907F10807BD4654
:10266C0080BD00BF80B582B000AF0346FB71FB7923
:10267C0003F07F03DBB24FF00500194600F070F950
:10268C0007F10807BD4680BD80B582B000AF034698
:10269C00FB71FB7903F00303FB71FB794FF0030033
:1026AC00194600F05DF907F10807BD4680BD00BF73
:1026BC0080B582B000AFFFF787FF0346002B02D135
:1026CC004FF0000337E04FF0000000F027F903460D
:1026DC00FB71FB7903F00203002B02D14FF00103D5
:1026EC0029E000F0D7FD0346002B02D14FF0020386
:1026FC0021E0FB7903F00103002B0ED04FF0060014
:10270C0000F00CF9034603F09003002B02D04FF0BD
:10271C00200310E04FF010030DE04FF0170000F015
:10272C00FDF8034603F01003002B02D04FF0040316
:10273C0001E04FF00803184607F10807BD4680BDBD
:10274C0080B500AF00F06CFD40F61C43C2F20003F4
:10275C001B7843F00103DBB21846FFF753FF80BD33
:10276C0080B582B000AF4FF0000000F0D7F8034600
:10277C00FB7100F055FDFB7903F00203002B21D116
:10278C00FB7903F00103002B0BD040F61C43C2F283
:10279C0000031B7843F00303DBB21846FFF732FF4C
:1027AC000AE040F61C43C2F200031B7843F002031C
:1027BC00DBB21846FFF726FF4DF29000C0F2030083
:1027CC0000F05CFD07F10807BD4680BD80B584B004
:1027DC0000AF40F2FF33FB604FF00003BB60FFF72C
:1027EC0067FF0346FB71FB79102B1BD000F06EFAD0
:1027FC0018E04FF0090000F091F80346002B03D0CD
:10280C00BB6803F10103BB6041F6641000F036FDB8
:10281C0000F04AFA4FF0400000F04EF8FB6803F16C
:10282C00FF33FB60FB68002BE3DCFB79102B01D042
:10283C00FFF796FFBB684FEA9303DBB2184607F12C
:10284C001007BD4680BD00BF80B582B000AF034607
:10285C00FB7100F0C7FC4FF0FF0000F0F3FC0346E7
:10286C001A4640F61E43C2F200031A7000F0AEFC8A
:10287C0040F61E43C2F200031B7803F07003DAB279
:10288C0040F61E43C2F200031A7040F61E43C2F219
:10289C0000031A78FB791340DAB240F61E43C2F2F9
:1028AC0000031A7040F61E43C2F200031B78184650
:1028BC0007F10807BD4680BD80B582B000AF034666
:1028CC00FB7100F08FFC4FF0270000F0BBFC0346BF
:1028DC001A4640F61E43C2F200031A7040F61E431D
:1028EC00C2F200031B7803F00F03DAB240F61E436A
:1028FC00C2F200031A7040F61E43C2F200031A78AB
:10290C00FB791343FB71FB79184600F09BFC00F03C
:10291C005DFC07F10807BD4680BD00BF80B584B0E3
:10292C0000AF0346FB7100F05DFCFB7903F01F0365
:10293C00184600F087FC03461A4640F61E43C2F2C6
:10294C0000031A704FF0FF0000F07CFC0346FB7391
:10295C0000F03CFCFB7B184607F11007BD4680BD20
:10296C0080B582B000AF02460B46FA71BB7100F025
:10297C0039FCFB7903F01F0343F02003184600F0E9
:10298C0061FC03461A4640F61E43C2F200031A705D
:10299C00BB79184600F056FC00F018FC07F108074C
:1029AC00BD4680BD80B584B000AF786000F01AFCE5
:1029BC004FF0300000F046FC03461A4640F61E432A
:1029CC00C2F200031A7040F61D43C2F200031B78DA
:1029DC0003F1FF33DBB2FB730BE097F90F307A682E
:1029EC00D3181B78184600F02DFCFB7B03F1FF334A
:1029FC00FB7397F90F30002BEFDA00F0E7FB07F1D0
:102A0C001007BD4680BD00BF80B584B000AF034643
:102A1C003960FB714FF00003FB7300F0E3FB4FF0E8
:102A2C00A00000F00FFC03461A4640F61E43C2F20B
:102A3C0000031A704FF00003FB730AE0FB7B3A684B
:102A4C00D3181B78184600F0FDFBFB7B03F1010348
:102A5C00FB73FA7BFB799A42F0D300F0B7FB07F1DA
:102A6C001007BD4680BD00BF80B584B000AF0346E3
:102A7C003960FB714FF00003FB7340F61F43C2F249
:102A8C0000031B7803F00103002B22D000F0AAFBFB
:102A9C004FF0B00000F0D6FB03461A4640F61E433A
:102AAC00C2F200031A704FF00003FB730AE0FB7BC9
:102ABC003A68D3181B78184600F0C4FBFB7B03F173
:102ACC000103FB73FA7BFB799A42F0D300F07EFB97
:102ADC0000E000BF07F11007BD4680BD80B500AF18
:102AEC0000F080FB4FF0E10000F0ACFB03461A460F
:102AFC0040F61E43C2F200031A7000F067FB80BD63
:102B0C0080B500AF00F06EFB4FF0E30000F09AFBD5
:102B1C0003461A4640F61E43C2F200031A7000F038
:102B2C0055FB80BD80B500AFFFF71AFEFFF7D6FF4F
:102B3C0040F61C43C2F200031B7843F00203DBB2E5
:102B4C001846FFF75FFD4FF03000FFF7B5FE00F0C1
:102B5C0067FB80BD80B500AF00F050FB40F2EE206B
:102B6C0000F08CFB00F05CFB80BD00BF80B584B036
:102B7C0000AF03463960FB71FB79052B36D800F0AA
:102B8C0031FBFB7903F10A0343F02003184600F0F4
:102B9C0059FB03461A4640F61E43C2F200031A7054
:102BAC00FB79012B05D93B681B78184600F04AFBD2
:102BBC0019E040F61D43C2F200031B7803F1FF330A
:102BCC00DBB2FB730BE097F90F303A68D3181B7824
:102BDC00184600F037FBFB7B03F1FF33FB7397F9CF
:102BEC000F30002BEFDA00F0F1FA00E000BF07F134
:102BFC001007BD4680BD00BF80B582B000AF00F0AD
:102C0C00F1FA4FF0600000F01DFB03461A4640F647
:102C1C001E43C2F200031A704FF0FF0000F012FBCB
:102C2C000346FB7100F0D2FAFB79184607F108074E
:102C3C00BD4680BD90B585B000AF03463960FB71D1
:102C4C0000F0D0FA4FF0610000F0FCFA03461A468F
:102C5C0040F61E43C2F200031A704FF00003FB73E0
:102C6C000CE0FB7B3A68D4184FF0FF0000F0EAFA56
:102C7C0003462370FB7B03F10103FB73FA7BFB79A7
:102C8C009A42EED300F0A2FA40F61E43C2F20003C1
:102C9C001B7803F00E034FEA6303DBB2184607F10F
:102CAC001407BD4690BD00BF80B500AF00F09AFA86
:102CBC004FF0E20000F0C6FA03461A4640F61E43F7
:102CCC00C2F200031A7000F081FA80BD80B500AF2B
:102CDC00FFF746FDFFF7E8FF4FF04000FFF7ECFD74
:102CEC0040F61C43C2F200031B7843F00303DBB233
:102CFC001846FFF787FC00F081FA80BD80B582B0E2
:102D0C0000AF4FF01700FFF709FE0346FB71FB798C
:102D1C0003F00103002B02D04FF0010301E04FF050
:102D2C000003184607F10807BD4680BD80B584B086
:102D3C0000AF0B463A600246FA71BB71FB79052B6A
:102D4C002ED840F61F43C2F200031B7803F0020397
:102D5C00002B27D000F046FAFB7963F05703DBB267
:102D6C00184600F06FFA03461A4640F61E43C2F2AC
:102D7C0000031A704FF00003FB730AE0FB7B3A6808
:102D8C00D3181B78184600F05DFAFB7B03F10103A6
:102D9C00FB73FA7BBB799A42F0D300F017FA02E08E
:102DAC0000BF00E000BF07F11007BD4680BD00BFAB
:102DBC0080B582B000AF4FF00900FFF7AFFD0346BE
:102DCC00FB71FB7903F00103002B0CBF00230123E3
:102DDC00DBB2184607F10807BD4680BD80B584B04C
:102DEC0000AF0346FB71FB79052B32D84FF0020084
:102DFC00FFF794FD0346FB734FF00100FFF78EFDC8
:102E0C000346BB73FB794FF0010202FA03F3DBB20A
:102E1C006FEA0303DAB2FB7B1340DBB2FB73FB7983
:102E2C004FF0010202FA03F3DBB26FEA0303DAB2EA
:102E3C00BB7B1340DBB2BB73FB7B4FF0020019462C
:102E4C00FFF78EFDBB7B4FF001001946FFF788FDA5
:102E5C0000E000BF07F11007BD4680BD80B500AF94
:102E6C004FF002004FF00001FFF77AFD4FF0010028
:102E7C004FF00001FFF774FD4FF01C004FF0000104
:102E8C00FFF76EFD80BD00BF80B584B000AF024679
:102E9C000B46FA71BB714FF00200FFF73FFD034682
:102EAC00BB734FF00100FFF739FD0346FB73BB7991
:102EBC00002B0AD0FB794FF0010202FA03F3DAB2CD
:102ECC00FB7B1343DBB2FB730CE0FB794FF001028D
:102EDC0002FA03F3DBB26FEA0303DAB2FB7B1340B3
:102EEC00DBB2FB73FB794FF0010202FA03F3DAB2A7
:102EFC00BB7B1343DBB2BB73BB7B4FF002001946A9
:102F0C00FFF72EFDFB7B4FF001001946FFF728FD64
:102F1C0007F11007BD4680BD80B584B000AF0346F5
:102F2C00FB71FB79052B02D94FF0000316E04FF033
:102F3C000200FFF7F3FC0346FB73FB794FF0010231
:102F4C0002FA03F2F97BFB794FF0010000FA03F36C
:102F5C000B409A4214BF00230123DBB2184607F141
:102F6C001007BD4680BD00BF80B584B000AF0246DF
:102F7C000B46FA71BB714FF01C00FFF7CFFC0346F8
:102F8C00FB73BB79002B1BD140F61F43C2F200032D
:102F9C001B7803F00403002B35D0FA7BFB7942FA43
:102FAC0003F303F00103002B26D1FB794FF0010250
:102FBC0002FA03F3DAB2FB7B1343DBB2FB731BE0C5
:102FCC00FB794FF0010202FA03F3DBB26FEA030361
:102FDC00DAB2FB7B1340DBB2FB73BB79202B02D93B
:102FEC004FF02003BB71FB7903F11103DAB2BB790B
:102FFC0010461946FFF7B4FCFB7B4FF01C0019463A
:10300C00FFF7AEFC00E000BF07F11007BD4680BD26
:10301C0080B584B000AF0346FB71FB7923F00F033E
:10302C00FB714FF00400FFF779FC0346FB73FB7B4D
:10303C0003F00F03FB73FA79FB7B1343DBB24FF006
:10304C0004001946FFF78CFC07F11007BD4680BD44
:10305C0080B584B000AF0346FB71FB7903F00F031E
:10306C00FB714FF00400FFF759FC0346FB73FB7B2D
:10307C0023F00F03FB73FA79FB7B1343DBB24FF0A6
:10308C0004001946FFF76CFC07F11007BD4680BD24
:10309C0080B500AF4FF00800FFF740FC034603F08B
:1030AC000F03DBB2184680BD80B586B002AF034675
:1030BC00FB714FF40060CFF2000003F0CDFA4FF03B
:1030CC00010000F0DBF84FF4E050CFF2000003F009
:1030DC00C3FA4FF0030000F0D1F84FF40040C4F2F3
:1030EC00000003F051F94FF0020000F0C7F840F671
:1030FC00020002F057FD41F2020002F053FD41F2D2
:10310C00024002F04FFD4FF040204FF0340102F02E
:10311C00AAFC03F0E1FD024648F28043C0F21E0314
:10312C0000934FF0080301934FF40040C4F20000E9
:10313C0011464FF000024FF0000303F0FBF84FF084
:10314C0040204FF0800102F0F4FB4FF040204FF094
:10315C00080102F0FCFB4FF040204FF0400102F060
:10316C00F6FBFB79002B19D04FF040204FF080017B
:10317C0002F056FB4FF040204FF080014FF0000260
:10318C0002F0F7F902F04FFD4FF0100002F0BEFD17
:10319C004FF010004FF0000102F096FD4FF400408C
:1031AC00C4F2000003F0EBF800BF07F10C034FF47E
:1031BC000040C4F20000194603F029F90346002B25
:1031CC00F3D107F11007BD4680BD00BF80B500AF3D
:1031DC004FF040204FF008014FF0080202F052FB74
:1031EC0080BD00BF80B500AF4FF040204FF008010C
:1031FC004FF0000202F046FB80BD00BF80B500AF6F
:10320C004FF040204FF040014FF0400202F03AFBEB
:10321C0040F62043C2F200034FF001021A7080BD49
:10322C0080B500AF4FF040204FF040014FF000024E
:10323C0002F028FB40F62043C2F200034FF00002DC
:10324C001A7080BD80B584B000AF78604FF4004038
:10325C00C4F20000796803F0C4F807F10C034FF4D2
:10326C000040C4F20000194603F0CAF8FB68DBB258
:10327C00184607F11007BD4680BD00BF80B582B06F
:10328C0000AF7860786803F021FB07F10807BD46B2
:10329C0080BD00BF80B400AF40F62043C2F20003F3
:1032AC001B781846BD4680BC704700BF80B582B005
:1032BC0000AF47F29C63C0F200037B6040F2000356
:1032CC00C2F200033B600BE07B681A683B681A6033
:1032DC003B6803F104033B607B6803F104037B60F0
:1032EC003A6840F23443C2F200039A42ECD30E48DF
:1032FC000E494FF000028842B8BF40F8042BFFF68D
:10330C00FAAF4EF68853CEF200034EF68852CEF248
:10331C000002126842F470021A6000F027F807F1FC
:10332C000807BD4680BD0000000C0020E0280020EE
:10333C0080B400AFFEE700BF80B400AFFEE700BF73
:10334C0080B400AFFEE700BF80B400AF42F6B40318
:10335C00C2F200031B6803F1010242F6B403C2F28D
:10336C0000031A60BD4680BC704700BF80B500AF3B
:10337C004FF01000C0F2C01003F01AFC00F05CF922
:10338C0000F0CCF901F0B0F900F04EFE01F0B2F80B
:10339C0000F0F4FF01F08AFB40F20403C2F20003D8
:1033AC001B785BB2022B02D0032B03D005E001F09B
:1033BC00C5FB17E001F0D4FB14E045F61060C0F239
:1033CC005F00FFF75BFF4FF0020000F04BF945F692
:1033DC001060C0F25F00FFF751FF4FF0020000F0E9
:1033EC0055F900BFD8E700BF80B500AF4FF04020C3
:1033FC004FF0010102F021FA0346002B01D000F03E
:10340C0001F880BD80B582B000AF4FF07000FFF7BF
:10341C001BFA0346FB71FB7903F02003002B05D04C
:10342C004FF02000FFF748FAFFF750FCFB7903F050
:10343C001003002B05D04FF01000FFF73DFAFFF7FB
:10344C0045FCFB7903F04003002B00F0E280FFF712
:10345C00D3FB0346BB71BB79184642F6C001C2F2DE
:10346C000001FFF7E7FB42F6C003C2F200031B7832
:10347C00C12B37D0C12B1CDC042B00F0B980042BE2
:10348C0009DC022B00F0A480022B00F3A980012B95
:10349C0000F0B180B9E0A12B00F08380A12B02DCFD
:1034AC00A02B77D0B1E0A32B00F08280C02B13D0DF
:1034BC00ABE0C52B13D0C52B04DCC32B1BD0C32B0B
:1034CC001CDC7CE0C72B00F0A380C72B5FDBC82B78
:1034DC0078D0C92B79D098E001F030FA99E001F05E
:1034EC00FDF996E04FF4A040C4F202004FF00E013B
:1034FC0001F058FB8DE000F01DFA8AE000F0EEF9C7
:10350C004FF40040C4F202004FF0C00102F0CFFDB6
:10351C004FF40040C4F202004FF0800102F0C7FDEE
:10352C004FF4A040C4F200004FF0010100F0E2F9AA
:10353C004FF48040C4F202004FF0010100F0DAF9C0
:10354C0042F6C003C2F200035B784FF083001946C9
:10355C0000F000FD42F6C003C2F200039B784FF06E
:10356C00C500194600F0F6FC4FF40040C4F202000E
:10357C004FF0C00102F096FD4FF40040C4F202007F
:10358C004FF0800102F08EFD00F09CF941E001F05B
:10359C0065FA3EE042F20440C2F2000001F0F2F89B
:1035AC0037E042F25C60C2F2000001F0EBF830E070
:1035BC0042F6BA00C2F2000001F0E4F829E000F093
:1035CC0005FE26E001F04CF823E000F051FF20E06E
:1035DC0040F20403C2F200034FF002021A7018E02A
:1035EC0040F20403C2F200034FF003021A7010E021
:1035FC0001F0C0FA0DE04EF60C53CEF200034FF082
:10360C000402C0F2FA521A6003E000F053F800E032
:10361C0000BFFFF773FB0346002B09D04FF04000AF
:10362C00FFF74AF94FF040204FF0800102F00CF9FF
:10363C0007F10807BD4680BD80B500AF40F6050018
:10364C00CFF2000003F008F84FF4A040C4F20200DF
:10365C004FF00E0102F07BF94FF00E0000F016F85F
:10366C0080BD00BF80B483B000AF0346FB71FB7913
:10367C004FEA830303F1804303F51433FA791A609C
:10368C0007F10C07BD4680BC704700BF80B483B007
:10369C0000AF0346FB71FB794FEA830303F18043D0
:1036AC0003F514334FF000021A6007F10C07BD4606
:1036BC0080BC704780B500AF4FF4A040C4F202004C
:1036CC004FF00E014FF0020202F0DCF848F280409D
:1036DC00C0F21E0003F0FAF84FF4A040C4F202004E
:1036EC004FF00E014FF0080202F0CCF848F2804087
:1036FC00C0F21E0003F0EAF84FF4A040C4F202003E
:10370C004FF00E014FF0040202F0BCF848F280407A
:10371C00C0F21E0003F0DAF8CEE700BF80B582B02D
:10372C0000AF4FF4B01003F0BFFB4FF0020003F0FA
:10373C00CDF84FF48040CFF2000002F08DFF03F083
:10374C00CBFA03464FEA13137B607A6844F6D353E3
:10375C00C1F26203A3FB02134FEA931241F6244316
:10376C00C2F200031A6040F60300CFF2000002F030
:10377C0073FF4FF0020003F0A9F84FF4E040C4F2DD
:10378C0000004FF0010102F0E2F840F60400CFF225
:10379C00000002F061FF4FF0020003F097F84FF4C5
:1037AC008040C4F202004FF0100102F0D0F841F258
:1037BC000440C0F2040002F0F5F94FF48040C4F26A
:1037CC0002004FF0200102F032F940F60100CFF276
:1037DC00000002F041FF4FF0020003F077F84FF4C5
:1037EC00A040C4F200004FF0100102F0B0F841F21A
:1037FC000440C0F2010002F0D5F94FF4A040C4F22D
:10380C0000004FF0200102F012F94FF40040C4F216
:10381C0002004FF0C0014FF0000202F013FC41F621
:10382C002443C2F200031B684FF40040C4F20200B0
:10383C004FF0C0011A4602F01FFC4FF40040C4F2D6
:10384C0002004FF0C5014FF0000202F035FC4FF4BE
:10385C000040C4F202004FF020014FF0010202F0D0
:10386C0060FC4FF40040C4F202004FF080014FF0B6
:10387C00000202F0E7FB41F62443C2F200031B688E
:10388C004FF40040C4F202004FF080011A4602F0DF
:10389C00F3FB4FF40040C4F202004FF083014FF0F1
:1038AC00000202F009FC4FF40040C4F202004FF099
:1038BC0008014FF0010202F034FC07F10807BD4685
:1038CC0080BD00BF80B400AF47F20403C4F2000314
:1038DC004FF001021A60BD4680BC704780B400AF47
:1038EC0047F20403C4F200034FF000021A60BD4615
:1038FC0080BC704780B582B000AF78600B46FB701F
:10390C00FB78002B07D178684FF010014FF00002C4
:10391C0001F0B8FF09E0FB78012B06D178684FF075
:10392C0010014FF0100201F0ADFF07F10807BD4682
:10393C0080BD00BF80B582B000AFFFF7C3FF4FF072
:10394C000200FFF78FFE4FF48040C4F202004FF0EC
:10395C000001FFF7CFFF4FF40040C4F202004FF01C
:10396C00C00102F09FFB4FF00800FFF77BFE4FF009
:10397C000003FB7122E0FB7903F10103FB71FA797F
:10398C0041F62443C2F200031B6803FB02F248F227
:10399C001F53C5F2EB13A3FB02134FEA53134FF45F
:1039AC000040C4F202004FF0C5011A4602F084FB3D
:1039BC004AF22010C0F2070002F088FFFB79632B5B
:1039CC00D9D94FF00800FFF761FE4FF06403FB718B
:1039DC0022E0FB7903F1FF33FB71FA7941F62443C2
:1039EC00C2F200031B6803FB02F248F21F53C5F23C
:1039FC00EB13A3FB02134FEA53134FF40040C4F232
:103A0C0002004FF0C5011A4602F056FB4AF2201094
:103A1C00C0F2070002F05AFFFB79002BD9D14FF40A
:103A2C008040C4F202004FF00101FFF763FF4FF03A
:103A3C000400FFF717FE4FF06403FB7122E0FB79E3
:103A4C0003F1FF33FB71FA7941F62443C2F2000310
:103A5C001B6803FB02F248F21F53C5F2EB13A3FBE6
:103A6C0002134FEA53134FF40040C4F202004FF01C
:103A7C00C5011A4602F020FB4AF22010C0F20700E2
:103A8C0002F024FFFB79002BD9D14FF00400FFF793
:103A9C00FDFD4FF00003FB7122E0FB7903F1010304
:103AAC00FB71FA7941F62443C2F200031B6803FB55
:103ABC0002F248F21F53C5F2EB13A3FB02134FEAB9
:103ACC0053134FF40040C4F202004FF0C5011A46E4
:103ADC0002F0F2FA4AF22010C0F2070002F0F6FEF1
:103AEC00FB79632BD9D94FF4A040C4F200004FF0FE
:103AFC000001FFF7FFFE4FF40040C4F202004FF04C
:103B0C00800102F0CFFA4FF00800FFF7ABFD4FF049
:103B1C000003FB7122E0FB7903F10103FB71FA79DD
:103B2C0041F62443C2F200031B6803FB02F248F285
:103B3C001F53C5F2EB13A3FB02134FEA53134FF4BD
:103B4C000040C4F202004FF083011A4602F0B4FAAE
:103B5C004AF22010C0F2070002F0B8FEFB79632B8A
:103B6C00D9D94FF00800FFF791FD4FF06403FB71BA
:103B7C0022E0FB7903F1FF33FB71FA7941F6244320
:103B8C00C2F200031B6803FB02F248F21F53C5F29A
:103B9C00EB13A3FB02134FEA53134FF40040C4F290
:103BAC0002004FF083011A4602F086FA4AF2201006
:103BBC00C0F2070002F08AFEFB79002BD9D14FF43A
:103BCC00A040C4F200004FF00101FFF793FE4FF04C
:103BDC000400FFF747FD4FF06403FB7122E0FB7913
:103BEC0003F1FF33FB71FA7941F62443C2F200036F
:103BFC001B6803FB02F248F21F53C5F2EB13A3FB45
:103C0C0002134FEA53134FF40040C4F202004FF07A
:103C1C0083011A4602F050FA4AF22010C0F2070053
:103C2C0002F054FEFB79002BD9D14FF00400FFF7C2
:103C3C002DFD4FF00003FB7122E0FB7903F1010332
:103C4C00FB71FA7941F62443C2F200031B6803FBB3
:103C5C0002F248F21F53C5F2EB13A3FB02134FEA17
:103C6C0053134FF40040C4F202004FF083011A4684
:103C7C0002F022FA4AF22010C0F2070002F026FEEF
:103C8C00FB79632BD9D94FF4A040C4F200004FF05C
:103C9C000001FFF72FFE4FF48040C4F202004FF0FA
:103CAC000001FFF727FE4FF40040C4F202004FF072
:103CBC00800102F0F7F94FF40040C4F202004FF01B
:103CCC00C00102F0EFF94FF00800FFF7CBFC4FF00A
:103CDC000003FB713BE0FB7903F10103FB71FA7903
:103CEC0041F62443C2F200031B6803FB02F248F2C4
:103CFC001F53C5F2EB13A3FB02134FEA53134FF4FC
:103D0C000040C4F202004FF083011A4602F0D4F9CD
:103D1C00FA7941F62443C2F200031B6803FB02F25A
:103D2C0048F21F53C5F2EB13A3FB02134FEA5313D4
:103D3C004FF40040C4F202004FF0C5011A4602F0E5
:103D4C00BBF94AF22010C0F2070002F0BFFDFB796C
:103D5C00632BC0D94FF00800FFF798FC4FF06403B9
:103D6C00FB713BE0FB7903F1FF33FB71FA7941F610
:103D7C002443C2F200031B6803FB02F248F21F53F8
:103D8C00C5F2EB13A3FB02134FEA53134FF400409D
:103D9C00C4F202004FF083011A4602F08DF9FA7951
:103DAC0041F62443C2F200031B6803FB02F248F203
:103DBC001F53C5F2EB13A3FB02134FEA53134FF43B
:103DCC000040C4F202004FF0C5011A4602F074F92B
:103DDC004AF22010C0F2070002F078FDFB79002BAC
:103DEC00C0D14FF4A040C4F200004FF00101FFF726
:103DFC0081FD4FF48040C4F202004FF00101FFF747
:103E0C0079FD4FF40040C4F202004FF0800102F043
:103E1C0049F94FF40040C4F202004FF0C00102F027
:103E2C0041F94FF00400FFF71DFC4FF06403FB71E8
:103E3C003BE0FB7903F1FF33FB71FA7941F6244344
:103E4C00C2F200031B6803FB02F248F21F53C5F2D7
:103E5C00EB13A3FB02134FEA53134FF40040C4F2CD
:103E6C0002004FF083011A4602F026F9FA7941F666
:103E7C002443C2F200031B6803FB02F248F21F53F7
:103E8C00C5F2EB13A3FB02134FEA53134FF400409C
:103E9C00C4F202004FF0C5011A4602F00DF94AF2C5
:103EAC002010C0F2070002F011FDFB79002BC0D1ED
:103EBC004FF00400FFF7EAFB4FF00003FB713BE00F
:103ECC00FB7903F10103FB71FA7941F62443C2F249
:103EDC0000031B6803FB02F248F21F53C5F2EB13FD
:103EEC00A3FB02134FEA53134FF40040C4F2020039
:103EFC004FF083011A4602F0DFF8FA7941F62443B9
:103F0C00C2F200031B6803FB02F248F21F53C5F216
:103F1C00EB13A3FB02134FEA53134FF40040C4F20C
:103F2C0002004FF0C5011A4602F0C6F84AF2201002
:103F3C00C0F2070002F0CAFCFB79632BC0D9FFF773
:103F4C00CDFC4FF00200FFF7A1FB07F10807BD46BF
:103F5C0080BD00BF80B582B000AF78600B46FB70AF
:103F6C00FA7841F62443C2F200031B6803FB02F209
:103F7C0048F21F53C5F2EB13A3FB02134FEA531382
:103F8C004FF40040C4F2020079681A4602F094F82B
:103F9C0007F10807BD4680BD80B584B000AFF8605E
:103FAC00B9607A60F86802F057FBB8684FF0080106
:103FBC0001F006FAB8684FF003014FF005024FF01C
:103FCC00000301F004F97B6843F06003B8684FF01C
:103FDC0003014FF0000201F01EF9B86800F0FEFD7D
:103FEC00B8684FF0030101F0E4F8B8684FF0030132
:103FFC0001F043FA07F11007BD4680BD80B500AF54
:10400C004FF48040C4F202004FF0050101F09FFC18
:10401C004FF48040C4F202004FF005014FF0000253
:10402C0001F030FC80BD00BF80B582B002AF40F61D
:10403C000400CFF2000002F00FFB4FF48040C4F2FA
:10404C0002004FF0020101F020FC4FF48040C4F25A
:10405C0002004FF0080101F018FC4FF46050CFF251
:10406C0000004FF40041C4F203014FF00202FFF7CD
:10407C0093FF43F60100CFF200004FF41041C4F25D
:10408C0003014FF00002FFF787FFFFF7B7FF4FF474
:10409C004060CFF2000002F0DFFA03F013F942F2B5
:1040AC000000C2F2000003F047F94FF0110003F0DA
:1040BC0095FA4FF011004FF00E0103F081F94FF01B
:1040CC0011004FF0BA4103F0C9F94FF49673009305
:1040DC004FF011004FF0010148F2A802C4F20302A4
:1040EC0042F20443C2F2000303F0CAF94FF01B0082
:1040FC00C0F2010003F072FA4FF01B004FF00E01FA
:10410C0003F05EF94FF01B004FF0BA4103F0A6F933
:10411C004FF4967300934FF01B004FF0010149F2DE
:10412C00A802C4F2030242F25C63C2F2000303F081
:10413C00A7F94FF0110003F0DDF84FF01B0003F06E
:10414C00D9F84FF0210001F0E1FD4FF0430001F0F0
:10415C00DDFD4FF03F0001F0D9FD4FF48060CFF250
:10416C00000002F079FA4FF00000C4F203004FF0A7
:10417C00FF0102F040FF4FF00000C4F203004FF0CB
:10418C00220102F041FF02F0A7FD03464FEA531251
:10419C0045F6C523C0F67C23A3FB02134FEAD313C9
:1041AC004FF00000C4F203004FF0FF011A4602F07A
:1041BC00FDFF4FF00000C4F203004FF0FF014FF081
:1041CC00010202F063FFBD4680BD00BF80B500AFA9
:1041DC00FFF784FB41F62843C2F200034FF00002C4
:1041EC001A704FF00000C4F203004FF0FF0102F010
:1041FC00F9FE80BD80B584B002AF4FF40040C4F22C
:10420C0003004FF003014FF0010200F0B3FF7860A0
:10421C004FF40040C4F20300796800F0C6FF4FF081
:10422C00110003F0A9F938603B68002B32D14FF034
:10423C000000C4F203004FF0FF0102F0DCFE4FF46B
:10424C00967300934FF011004FF0010148F2A80251
:10425C00C4F2030242F20443C2F2000303F010F969
:10426C004FF0110003F046F841F62843C2F2000368
:10427C001B7803F10103DAB241F62843C2F20003C2
:10428C001A7041F62843C2F200031B78022B01D1AD
:10429C00FFF718FB07F10807BD4680BD80B584B059
:1042AC0002AF4FF41040C4F203004FF003014FF083
:1042BC00010200F05FFF78604FF41040C4F203007D
:1042CC00796800F072FF4FF01B0003F055F938606D
:1042DC003B68002B32D14FF00000C4F203004FF0CA
:1042EC00FF0102F088FE4FF4967300934FF01B0011
:1042FC004FF0010149F2A802C4F2030242F25C63DE
:10430C00C2F2000303F0BCF84FF01B0002F0F2FF06
:10431C0041F62843C2F200031B7803F10103DAB221
:10432C0041F62843C2F200031A7041F62843C2F248
:10433C0000031B78022B01D1FFF7C4FA07F1080721
:10434C00BD4680BD80B582B000AF02F0C7FF78607B
:10435C007B68002B0DD002F0C7FF41F62C43C2F254
:10436C0000031B6803F1010241F62C43C2F2000367
:10437C001A6007F10807BD4680BD00BF80B582B04A
:10438C0002AF40F60300CFF2000002F065F94FF0E7
:10439C00020002F09BFA4FF4E040C4F200004FF030
:1043AC00020101F072FA4FF40040C4F203004FF026
:1043BC0002014FF000024FF0010300F008FF4FF430
:1043CC000040C4F203004FF002014FF000024FF026
:1043DC00660300F020FF4FF40040C4F203004FF0DE
:1043EC00020100F0E6FE4FF40040C4F203004FF06F
:1043FC00020100F0DAFE4FF44060CFF2000002F050
:10440C002BF902F05FFF42F20000C2F2000002F052
:10441C0093FF4FF0100003F0E1F84FF010004FF055
:10442C000E0102F0CDFF4FF010004FF05D4103F094
:10443C0015F84FF0010300934FF010004FF00101FD
:10444C0048F28802C4F2030242F6BA03C2F2000335
:10445C0003F016F84FF0100002F04CFF4FF0200064
:10446C0001F054FC4FF03F0001F050FCBD4680BD04
:10447C0080B500AF4FF40040C4F203004FF00201CE
:10448C0000F031FF80BD00BF80B584B002AF4FF4A7
:10449C000040C4F203004FF002014FF0010200F0A3
:1044AC0069FE78604FF40040C4F20300796800F0B4
:1044BC007CFE4FF0100003F05FF838603B68002B77
:1044CC0014D14FF0010300934FF010004FF0010195
:1044DC0048F28802C4F2030242F6BA03C2F20003A5
:1044EC0002F0CEFF4FF0100002F004FF07F10807B6
:1044FC00BD4680BD80B582B000AF4FF4B01002F065
:10450C00D3FC4FF0020002F0E1F944F20100CFF2CB
:10451C00000002F0A1F84FF0020002F0D7F945F2CA
:10452C002053C4F2020344F24B32C4F64F421A60D9
:10453C0045F22453C4F2020345F22452C4F202029F
:10454C00126842F001021A6045F22053C4F20203D1
:10455C004FF000021A6002F0BFFB03464FEA131340
:10456C007B607A6841F6F113C0F27653A3FB021319
:10457C004FEA13233B604FF0051001F013FB4FF48F
:10458C00A040C4F202004FF001014FF0020200F013
:10459C00C7FF4FF4A040C4F202004FF001014FF0EE
:1045AC0066024FF0080301F036F84FF41040C4F2E5
:1045BC0002004FF0C0014FF0000201F043FD4FF438
:1045CC001040C4F202004FF0C0013A6801F054FDF3
:1045DC003B684FEA53034FF41040C4F202004FF013
:1045EC00C4011A4601F068FD40F20140CFF2000010
:1045FC0002F032F84FF48050C4F203004FF0FF0188
:10460C0002F0F9FC4FF48050C4F203004FF021018A
:10461C0002F0FAFC02F060FB024641F25973CDF253
:10462C00B713A3FB02134FEA13334FF48050C4F2B9
:10463C0003004FF0FF011A4602F0B8FD01F0F3FA47
:10464C004FF48050C4F203004FF0010102F00BFE56
:10465C004FF0250001F05AFB07F10807BD4680BD5D
:10466C0080B500AF4FF41040C4F202004FF01001BF
:10467C004FF0010201F055FD4FF41040C4F202005E
:10468C004FF0C00101F00EFD4FF48050C4F2030056
:10469C004FF0FF0102F0A6FC80BD00BF80B500AF5B
:1046AC004FF48050C4F203004FF0010102F0E9FD19
:1046BC004FF41040C4F202004FF0C00101F0F7FCBF
:1046CC004FF41040C4F202004FF0040101F027FD3A
:1046DC004FF41040C4F202004FF010014FF00002F2
:1046EC0001F01FFD80BD00BF80B584B000AF4FF05E
:1046FC0001033B714FF00003FB714FF004037B721D
:10470C004FF008033B724FF00F03FB724FF0300376
:10471C00BB724FF000037B714FF00603BB714FF07F
:10472C0005033B734FF001037B734FF00103BB7325
:10473C0007F104031846FDF765FE4FF000004FF03B
:10474C000001FEF711FC4FF000004FF00101FEF7E5
:10475C009BFB47F29C63C0F200033A4619889B7896
:10476C00118093703B464FF000001946FEF7FEF99E
:10477C003B461846FEF716F9FEF7A8FA07F11007A4
:10478C00BD4680BD80B58EB000AF78604FF4A040C0
:10479C00C4F202004FF00E014FF0080201F072F863
:1047AC0042F6C003C2F200035B787B637B6B4FEA7B
:1047BC0003237B637B6B4FEA032242F6C003C2F2F6
:1047CC0000039B78D3187B637B6B4FEA032242F682
:1047DC00C003C2F20003DB78D3187B637B6B4FEA18
:1047EC00032242F6C003C2F200031B79D3187B6389
:1047FC004FF000033B63FEF757FA4FF04000FEF713
:10480C005BF8FEF78FF94FF00F00FEF721FC4FF02D
:10481C000000FEF7FDFB4FF00003FB6210E07A682E
:10482C003B6BD3181A7807F10C01FB6ACB181A7082
:10483C003B6B03F101033B63FB6A03F10103FB6276
:10484C00FA6A7B6B9A4202D2FB6A1F2BE7D9FB6A8E
:10485C00DAB207F10C0310461946FEF7D5F8FEF74D
:10486C0079F900E000BF4FF040204FF0800101F0DB
:10487C0006F80346002BF5D14FF02000FDF7E4FFBE
:10488C000346002B0DD14FF01000FDF7DDFF034662
:10489C00002BE7D04FF01000FEF70EF8FEF716FADB
:1048AC0018E000BF4FF02000FEF706F87B6B202BC2
:1048BC0004D97B6BA3F120037B63ACE7FEF706FA0C
:1048CC004FF4A040C4F202004FF00E014FF0020270
:1048DC0000F0D8FF07F13807BD4680BD80B500AFAA
:1048EC004DF29000C0F20300FEF7C8FC1FE04FF43D
:1048FC00A040C4F202004FF004014FF0040200F09B
:10490C00C1FF45F61060C0F25F00FEF7B7FC4FF434
:10491C00A040C4F202004FF004014FF0000200F07E
:10492C00B1FF45F61060C0F25F00FEF7A7FCFEF782
:10493C003FFA0346002BDAD180BD00BF80B584B0AE
:10494C0000AF4FF4A040C4F202004FF00E014FF044
:10495C00080200F097FF42F6C003C2F200035B7836
:10496C00FB60FB684FEA0323FB60FB684FEA032202
:10497C0042F6C003C2F200039B781343FB60FB6852
:10498C004FEA032242F6C003C2F20003DB78134362
:10499C00FB60FB684FEA032242F6C003C2F200033D
:1049AC001B791343FB604FF00003FB724FF0400088
:1049BC00FDF782FF00BF4FF04000FDF745FF0346B7
:1049CC00002BF8D0FEF718F90346FB70FB7818465D
:1049DC0042F6C001C2F20001FEF72CF94FF00003C1
:1049EC007B601CE042F6C003C2F200037A689B189D
:1049FC001B78FA7A9A420AD04FF4A040C4F2020013
:104A0C004FF002014FF0020200F03CFF21E0FB7A74
:104A1C0003F10103FB727B6803F101037B607A688D
:104A2C00FB689A4202D27B681F2BDBD9FB68202BD8
:104A3C0004D9FB68A3F12003FB60B7E74FF4A04057
:104A4C00C4F202004FF00E014FF0020200F01AFF08
:104A5C0000BF07F11007BD4680BD00BF80B5ADF5A6
:104A6C00187D00AF4FF00003C7F85C320EE0D7F8AA
:104A7C005C3299B207F10403D7F85C2223F81210C8
:104A8C00D7F85C3203F10103C7F85C32D7F85C222B
:104A9C0040F22B139A42EAD907F104031846FFF7A8
:104AAC0071FE07F51877BD4680BD00BF80B500AF1D
:104ABC004FF40060CFF2000001F0FEFD4FF4804097
:104ACC00CFF2000001F0F8FD40F60300CFF2000039
:104ADC0001F0F2FD40F60100CFF2000001F0ECFD18
:104AEC004FF01700C8F2000001F0A4FE4FF00100D7
:104AFC0001F0B8FE4FF001004FF03201C4F200019A
:104B0C0002F09EF94FF40060CFF2000001F004FEB9
:104B1C004FF01200C8F2000001F098FE4FF0230095
:104B2C0001F0A6FE4FF0010001F026FE40F2040356
:104B3C00C2F200034FF001021A7080BD80B500AFC5
:104B4C0043F6110002F034F84FF00E00FEF79EFD14
:104B5C004FF00400FEF786FD01F098FE80BD00BF0B
:104B6C0080B500AF4FF00E00FEF790FD01F090FE07
:104B7C0080BD00BF80B500AF40F20403C2F2000359
:104B8C001B785BB2022B05D14FF01000C0F2C010A5
:104B9C0002F00EF840F20403C2F200034FF00102DF
:104BAC001A7080BD80B483B000AF78600B46FB7088
:104BBC00FB784FEA83031A467B68D318FA784FEADE
:104BCC00820211467A688A18126882F0FF021A6013
:104BDC0007F10C07BD4680BC704700BF80B483B0A2
:104BEC0000AF78607B6803F138037A6802F1380211
:104BFC00126842F040021A6007F10C07BD4680BCF7
:104C0C00704700BF80B483B000AF78607B6803F15D
:104C1C0038037A6802F13802126822F040021A60F6
:104C2C0007F10C07BD4680BC704700BFE4C09FE590
:104C3C00F0412DE900409CE548C194E500005CE39F
:104C4C0053CF840204509CE548C184051F0055E3F2
:104C5C0010D04DE20060A0E1150000DAB8009FE52D
:104C6C00000050E30100001A0000E0E3180000EA25
:104C7C00190EA0E30C108DE508208DE504308DE5B0
:104C8C0000F020E300C050E20C109DE508209DE5EB
:104C9C0004309DE5F3FFFF0A485194E50000A0E3C2
:104CAC0004008CE500508CE548C184E588018CE556
:104CBC008C018CE5000056E304409CE50700001ACB
:104CCC00023084E2014084E203118CE704408CE55D
:104CDC000000A0E310D08DE2F041BDE81EFF2FE1F3
:104CEC000100A0E31004A0E104818CE0020056E373
:104CFC0088719CE5083188E58C319C05007087E152
:104D0C00000083010850A0E1882088E588718CE5BB
:104D1C008C018C05E9FFFFEAA4760000000000007E
:104D2C0008402DE90010A0E30040A0E1820000EB58
:104D3C0018309FE5000093E53C3090E5000053E30C
:104D4C000FE0A01113FF2F110400A0E1E10000EB14
:104D5C00A476000038402DE930509FE530409FE5A7
:104D6C00044065E04441B0E1045185100400000AA0
:104D7C00043035E50FE0A0E113FF2FE1014054E2D0
:104D8C00FAFFFF1A3A0A00EB3840BDE81EFF2FE18C
:104D9C00000000000000000070402DE96C509FE501
:104DAC006C609FE5066065E04661B0E10450451219
:104DBC000040A0130500000A0430B5E5014084E270
:104DCC000FE0A0E113FF2FE1040056E1F9FFFF1AF9
:104DDC0040509FE540609FE5066065E01E0A00EBD1
:104DEC004661B0E1045045120040A0130500000AD2
:104DFC000430B5E5014084E20FE0A0E113FF2FE1A0
:104E0C00040056E1F9FFFF1A7040BDE81EFF2FE1C8
:104E1C0000000000000000006076000068760000D2
:104E2C00030010E330002DE90030A0E13700000A48
:104E3C00000052E3012042E23200000AFF4001E28E
:104E4C00020000EA000052E3012042E22D00000AB9
:104E5C000140C3E4030013E303C0A0E1F8FFFF1A11
:104E6C00030052E32000009AFF4001E20F0052E3DE
:104E7C00044484E1044884E10C30A0810250A081F8
:104E8C000E00009A105045E20F0055E3004083E5F8
:104E9C00044083E5084083E50C4083E5103083E251
:104EAC00F7FFFF8A103042E20F30C3E30F2002E21B
:104EBC00103083E2030052E303C08CE00A00009A36
:104ECC000C50A0E10230A0E1043043E2030053E3B4
:104EDC00044085E4FBFFFF8A043042E20330C3E365
:104EEC00043083E2032002E203C08CE0000052E3B2
:104EFC00FF10011202208C100200000A0110CCE4F9
:104F0C0002005CE1FCFFFF1A3000BDE81EFF2FE140
:104F1C0000C0A0E1D1FFFFEA08402DE910309FE569
:104F2C00000053E30C009F156200001B0840BDE815
:104F3C001EFF2FE100000000604D0000F04F2DE936
:104F4C0068319FE5003093E514D04DE204308DE5D7
:104F5C00523F83E208008DE50C308DE50170A0E135
:104F6C000180A0E304309DE5486193E5000056E321
:104F7C000CB09DE53300000A045096E5014055E263
:104F8C0088A086521F50855205518A500700005A3E
:104F9C00290000EA003095E5070053E10500000AFE
:104FAC00014044E2010074E3045045E22200000A8F
:104FBC00000057E3F6FFFF1A043096E505206AE07F
:104FCC00013043E2022086E0040053E1783012E520
:104FDC000010A0130440860578100215000053E35E
:104FEC00EEFFFF0A1824A0E1881196E5010012E1FA
:104FFC00049096E51600000A8C1196E5010012E16A
:10500C001600001A08009DE5801015E50FE0A0E1E0
:10501C0013FF2FE1043096E5090053E1D0FFFF1A8E
:10502C0000309BE5060053E1CDFFFF1A014044E23E
:10503C00010074E3045045E2DCFFFF1A70109FE599
:10504C00000051E30900001A14D08DE2F04FBDE8C6
:10505C001EFF2FE10FE0A0E113FF2FE1ECFFFFEAB1
:10506C00800015E50FE0A0E113FF2FE1E8FFFFEA58
:10507C00043096E5000053E3003096E50800001A72
:10508C00000053E30600000A0600A0E100308BE5A7
:10509C0000F020E300609BE5000056E3B5FFFF1A2B
:1050AC00E8FFFFEA06B0A0E10360A0E1F9FFFFEA28
:1050BC00A4760000000000000010A0E10000A0E3B6
:1050CC0008402DE90020A0E10030A0E1D6FEFFEB66
:1050DC000840BDE81EFF2FE1FEFFFFEA0D4A0E4B14
:1050EC0010B5146804EA03030C4CA34209D01268EF
:1050FC00094B02EA03030A4A934208D1094B98422E
:10510C0002D101F11E0010BD01F13E0010BD0020C6
:10511C0010BD00BF00E00F400000FF700000051044
:10512C0000000A100080034070B51546FFF7D6FF4B
:10513C002946044600F086FD2046BDE8704000F08C
:10514C00E5BD10B5FFF7CAFF044600F00FFE204680
:10515C00BDE8104000F08EBD836801228A4023EA2E
:10516C0002038360704701238B40C3608268134342
:10517C00836070473AB1C3684FF0011010FA01F127
:10518C0001EA0300704743680120884040F48030F6
:10519C00184010F4803F07D04FF4803340F4702057
:1051AC0013FA01F120EA0100704701238B40C36020
:1051BC007047036801228A4042EA03030360704788
:1051CC00036801228A4023EA020303607047F0B5AA
:1051DC008C000F254769A540ED4302F00F0605EA48
:1051EC000707A64047EA06064661066A03F0030372
:1051FC0013FA04F4354025430562C469C900302311
:10520C008B4002F0300224EA030312FA01F143EA64
:10521C000101C161F0BD02314901F0B592000F26C8
:10522C000D589640F64303F00F07974006EA050524
:10523C003D430C180D5003F47061A069090A30400D
:10524C00914040EA0101A161606803F0F001090995
:10525C003040914040EA01016160E06903F4700163
:10526C00090D9140304040EA010113F4702FE161C7
:10527C000FD0616903F4E0231B0C934001EA06068E
:10528C001E4366612369012111FA02F243EA02020C
:10529C0005E02369012111FA02F223EA02022261DC
:1052AC00F0BD0369012088401840704701238B40F2
:1052BC0003617047836901208840184070470123BF
:1052CC008B4083617047023149010918002003E0CB
:1052DC008B6842F8043B0130CB6813F4807F01D11A
:1052EC000828F5D17047826A0B0C1B0442EA0303B1
:1052FC0001F00F01012212FA01F10B438362704796
:10530C005208002301E001335208002AFBD1014A64
:10531C005354704700240020F0B58C1C64012018F5
:10532C001A4C615C04248C40624303F470660124C3
:10533C0003F0F00514FA01F1360A2D0923E00F24CD
:10534C0007689440E44304EA070C03F00F07974006
:10535C004CEA07070760876906FA02FC04EA0707AC
:10536C0047EA0C07876147683C4015FA02F73C4353
:10537C000129446005D047680624944027EA0404B8
:10538C004460043201390029D9D1F0BD0024002039
:10539C00F0B58C1C640120180DE0084C675C0126EC
:1053AC00BE40002502E08468013E2D19002EFAD182
:1053BC00FD4042F8045B013BEFD2F0BD002400201D
:1053CC004908002301E0013349080029FBD103639C
:1053DC00704700F5606040F82120704700F564606C
:1053EC0042EA034340F82130704710B522B101F175
:1053FC001002012414FA02F21BB1012313FA01F179
:10540C000A43C0F8002D10BD83684FF480328A40E7
:10541C0023EA02038360704783684FF480328A402A
:10542C0042EA030383607047406B704741637047E7
:10543C00836823EA01038360704783680B438360AE
:10544C00704709B1C0687047406810F4803F18BFBE
:10545C0040F470207047C3680B43C3607047836B84
:10546C0023F003030B4383637047806B00F003004E
:10547C00704741627047406A704703684FF480720E
:10548C008A4042EA03030360704703684FF480725A
:10549C008A4023EA0203036070470068C0F30040AF
:1054AC0070470B09013A01F00F0103F00F0341EAB9
:1054BC000211C0F8C43FC0F8C81F7047D0F8C83FED
:1054CC0021B103F47C731B0901330B60D0F8C40FBA
:1054DC00000100F0F00070470C4B0D491A680D4BA1
:1054EC0010B502EA03030C4C0C4AA34218BF0A463F
:1054FC000023D458844202EB030101D1486810BD4B
:10550C000833C02BF5D1002010BD00BF00E00F40C8
:10551C00F87700000000FF7000000A10A876000069
:10552C00D0F8003412F0010F10B500F5806414BFF0
:10553C000B438B43236012F0020FD0F8202400F5AC
:10554C00846314BF114322EA0101196010BD0123C9
:10555C008B4010B5D0F80044D0F82024DBB22342A5
:10556C000CBF0021012113400CBF18460220084338
:10557C0010BDD0F8083410B512F0010F00F581649D
:10558C0014BF0B438B432360D0F8044400F58063B5
:10559C0012F0020F03F1040314BF0C438C431C6084
:1055AC00D0F80C4400F5806312F0040F03F10C03E7
:1055BC0014BF214324EA01011960D0F8383512F4E4
:1055CC00803F00F5A76214BF43F0010323F00103F1
:1055DC00136010BD012370B58B40D0F80864D0F86F
:1055EC000454D0F80C44D0F83825DBB233420CBF4D
:1055FC00002101211D4018BF02251C4018BF0424A6
:10560C000D4345EA040302F001021A430CBF104695
:10561C004FF4803070BDF0B5560906F00306002437
:10562C0051FA04F515F0010F11D0D0F8C47F6500C4
:10563C004FF0030C0CFA05FC27EA0C07C0F8C47FEA
:10564C00D0F8C47F16FA05F53D43C0F8C45F0134A9
:10565C00082CE5D1D0F8004512F0010F00F5A0653B
:10566C0014BF0C438C432C60D0F8045500F5A06497
:10567C0012F0020F04F1040414BF0D438D43256096
:10568C00D0F8084512F0040F00F5A16514BF0C43C7
:10569C008C432C60D0F8184512F0080F00F5A36568
:1056AC0014BF0C438C432C60D0F83C4512F0100F07
:1056BC0000F5A66202F10C0214BF0C438C4314607B
:1056CC00D0F80C4500F5A06213F0010F02F10C02AA
:1056DC0014BF0C438C431460D0F8102513F0020F48
:1056EC0000F5A26414BF0A438A432260D0F8144523
:1056FC0000F5A26213F0040F02F1040214BF0C4374
:10570C008C431460D0F81C4500F5A26213F0080F0E
:10571C0002F10C0214BF0C438C431460D0F84445C6
:10572C0000F5A86213F4007F02F1040214BF0C43CD
:10573C008C431460D0F8402513F4407F00F5A86426
:10574C0014BF0A438A43226000F5A56223B9D0F83E
:10575C00283543EA010103E0D0F8283523EA01019A
:10576C001160F0BD2DE9F04301248C40D0F80015F8
:10577C00E4B20C42D0F804150CBF002701272140DD
:10578C000CBF8C464FF0020CD0F8081521400CBF12
:10579C0088464FF00408D0F8181521400CBF0E466F
:1057AC000826D0F83C15D0F8C49F21400CBF0D46FC
:1057BC001025610029FA01F101F0030147EA4111BA
:1057CC0041EA0C0141EA0801314329431160D0F848
:1057DC000C25D0F8101514420CBF0025012514EA35
:1057EC000102D0F8141518BF0222214018BF042161
:1057FC002A430A43D0F81C15214018BF08210A433C
:10580C00D0F840150C4208D0D0F844150C420CBF0F
:10581C004FF480714FF400710A431A60BDE8F083B5
:10582C00D0F810340B43C0F810347047D0F8103453
:10583C0023EA0103C0F81034704711B1D0F81804F2
:10584C007047D0F814047047C0F81C14704770B53A
:10585C000D46FFF741FE2946044600F0F3F92046B9
:10586C00BDE8704000F052BA10B5FFF735FE0446A3
:10587C0000F07CFA2046BDE8104000F0FBB950F86F
:10588C002100704740F82120704770B50022054672
:10589C000C46FFF745FE2846214601220023BDE8B1
:1058AC007040FFF7B8BE70B5022205460C46FFF7F4
:1058BC0037FE2846214666220823BDE87040FFF7D4
:1058CC00AABE70B5002205460C46FFF729FE2846F5
:1058DC00214601220023BDE87040FFF79CBE70B545
:1058EC00022205460C46FFF71BFE2846214666227F
:1058FC000823BDE87040FFF78EBE70B50222054646
:10590C000C46FFF70DFE2846214666220823BDE80B
:10591C007040FFF780BE70B5022205460C46FFF7BB
:10592C00FFFD2846214666220823BDE87040FFF79C
:10593C0072BE70B5002205460C46FFF7F1FD2846F5
:10594C00214601220823BDE87040FFF764BE70B504
:10595C000122082305460C46FFF75DFE284621462A
:10596C000122BDE87040FFF7DBBD70B501220923B1
:10597C0005460C46FFF74FFE284621460122BDE89E
:10598C007040FFF7CDBD70B5022205460C46FFF7FF
:10599C00C7FD2846214601220923BDE87040FFF7C8
:1059AC003ABE70B5022205460C46FFF7B9FD2846F3
:1059BC00214601220823BDE87040FFF72CBE70B5CC
:1059CC00022205460C46FFF7ABFD2846214666220F
:1059DC000823BDE87040FFF71EBE70B502220546D5
:1059EC000C46FFF79DFD2846214666220823BDE89C
:1059FC007040FFF710BE70B5002205460C46FFF74D
:105A0C008FFD2846214601220023BDE87040FFF798
:105A1C0002BE70B5022205460C46FFF781FD2846F2
:105A2C00214601220823BDE87040FFF7F4BD70B594
:105A3C00022205460C46FFF773FD2846214601223B
:105A4C000823BDE87040FFF7E6BD70B5022205469D
:105A5C000C46FFF765FD2846214601220A23BDE8C6
:105A6C007040FFF7D8BD70B5022205460C46FFF713
:105A7C0057FD2846214601220823BDE87040FFF758
:105A8C00CABD70B5022205460C46FFF749FD2846F3
:105A9C00214601220823BDE87040FFF7BCBD70B55C
:105AAC00022205460C46FFF73BFD28462146012203
:105ABC000823BDE87040FFF7AEBD70B50022054667
:105ACC000C46FFF72DFD2846214601220023BDE898
:105ADC007040FFF7A0BD70B5022205460C46FFF7DB
:105AEC001FFD2846214601220823BDE87040FFF720
:105AFC0092BD70B5002205460C46FFF711FD2846F5
:105B0C00214601224FF40273BDE87040FFF783BDBC
:105B1C0070B5002205460C46FFF702FD28462146CB
:105B2C0001224FF48473BDE87040FFF774BD70B56B
:105B3C00022205460C46FFF7F3FC284621460122BB
:105B4C000823BDE87040FFF766BD70B5022205461C
:105B5C000C46FFF7E5FC2846214601220A23BDE846
:105B6C007040FFF758BD70B5022205460C46FFF792
:105B7C00D7FC2846214666220823BDE87040FFF773
:105B8C004ABD70B5022205460C46FFF7C9FC2846F3
:105B9C00214601220823BDE87040FFF73CBD00F50B
:105BAC00A9607047104B020C1B6802F0FF02012128
:105BBC00914019424FEA420218BF01320B4B53F885
:105BCC002230020A10B502F0FF02D3F82C450F2147
:105BDC00914000F00F0024EA010110FA02F241EAB0
:105BEC000202C3F82C2510BD6CE00F406877000052
:105BFC00D0F834350B43C0F834357047D0F8343511
:105C0C0023EA0103C0F834357047D0F830350B4324
:105C1C00C0F830357047D0F8303523EA0103C0F8AE
:105C2C0030357047FEE708B501F007FD003818BFA6
:105C3C00012008BD08B501F0F9FC003818BF01209F
:105C4C0008BD0000094B0A4A70B51C689442144602
:105C5C0009D01D6800235E59E6500433B3F51B7F51
:105C6C00F9D1024B1A6044F8201070BD08ED00E029
:105C7C0000080020024A034B43F82020704700BF65
:105C8C00315C000000080020044B054A53F820301A
:105C9C0043F0BE6343F4202313607047B8780000D0
:105CAC000CED00E0064B1A68064B02F4E062002093
:105CBC0053F8041F8A4202D001300828F8D17047EB
:105CCC000CED00E0B47800008208084B53F8223049
:105CDC0000F0030010B5C0001C68FF22824024EACB
:105CEC00020211FA00F002431A6010BD00790000A4
:105CFC008208054B53F8223000F003001B68C000EB
:105D0C0033FA00F0C0B2704700790000042804D1C7
:105D1C00134B1A6842F4803205E0052805D1104B6C
:105D2C001A6842F400321A607047062804D10C4BF2
:105D3C001A6842F48022F6E70F2804D1094B1A683E
:105D4C0042F00202EFE70AD910384209064B00F084
:105D5C001F0053F82230012212FA00F0186070472D
:105D6C0024ED00E010E000E09C790000042804D150
:105D7C00134B1A6822F4803205E0052805D1104B2C
:105D8C001A6822F400321A607047062804D10C4BB2
:105D9C001A6822F48022F6E70F2804D1094B1A68FE
:105DAC0022F00202EFE70AD910384209064B00F044
:105DBC001F0053F82230012212FA00F018607047CD
:105DCC0024ED00E010E000E0D8780000042804D1B5
:105DDC00144B186800F480307047052804D1114B1F
:105DEC00186800F400307047062804D10D4B186871
:105DFC0000F4802070470F2804D10B4B186800F07A
:105E0C00020070470CD910384209084B53F8223065
:105E1C0000F01F001B68012212FA00F018407047B6
:105E2C000020704724ED00E010E000E09C790000B9
:105E3C00022804D1104B1A6842F0004205E00E28EB
:105E4C0005D10D4B1A6842F080521A6070470F282A
:105E5C0004D1094B1A6842F08062F6E70AD910386F
:105E6C004209064B00F01F0053F82230012212FAAF
:105E7C0000F01860704700BF04ED00E0EC78000003
:105E8C000E2804D10C4B1A6842F0006205E00F2872
:105E9C0005D1094B1A6842F000721A6070470AD992
:105EAC0010384209054B00F01F0053F82230012234
:105EBC0012FA00F01860704704ED00E0B0790000B1
:105ECC0001F0C1BB01F0C2BB014B10381860704728
:105EDC0000EF00E0404B0918994241D009D8803BB3
:105EEC00994227D0403399422FD0803B99426ED1B2
:105EFC000EE03A4B994249D003D8403B994266D1C7
:105F0C0039E0374B99424CD0403399425FD153E042
:105F1C00344A354B116801EA030334498B4258D09B
:105F2C001268314B324802EA030383420CBF1A2039
:105F3C00002070472B4B2E481A682B4B02EA0303A8
:105F4C0083420CBF1B2000207047264B28481A6840
:105F5C00254B02EA030383420CBF1C200020704730
:105F6C00204B23481A68204B02EA030383420CBFE0
:105F7C003B20002070471B4B1C481A681A4B02EA46
:105F8C00030383420CBF962000207047154B174823
:105F9C001A68154B02EA030383420CBF97200020BA
:105FAC007047104B11481A680F4B02EA03038342E7
:105FBC000CBF9820002070470A4B0C481A680A4BFB
:105FCC0002EA030383420CBF992000207047002093
:105FDC0070471A20704700BF008102408090024039
:105FEC00C090024000E00F400000FF700000051060
:105FFC0000000A100E4A0F4B116801EA03030E4908
:10600C008B4205D10D4B984214BF9A201920704732
:10601C001268084B02EA0303094A934205D1074B65
:10602C0098420CBF1920002070470020704700BF19
:10603C0000E00F400000FF700000051000800240DF
:10604C0000000A1030B50D580A4C05EA040414433C
:10605C0012F0020F01EB00030C5004D0B0221A62B4
:10606C004FF4306203E08C221A6240F60C025A6242
:10607C0030BD00BF0100F8FF0B18095811F0020FDA
:10608C0001D0520800E0013A1A6170470A5812F028
:10609C00020F01EB000302D0186940007047186929
:1060AC00013070470B5843F001030B5070470B58ED
:1060BC0023F001030B50704710B521F03F04231857
:1060CC00205810F0020F186918BF5208821A11F0EC
:1060DC00010F14BFDA619A6110BD10B521F03F04B5
:1060EC002218034611F0010F106914BFD26992698E
:1060FC00E358801A13F0020F18BF400010BD0918A6
:10610C00CA620B638B6A43F001038B6270472830C1
:10611C00435823F0010343507047016070474160BE
:10612C0070471AB1836843EA010102E0836823EAED
:10613C000101816070471AB1C36843EA010102E0B2
:10614C00C36823EA0101C16070471AB1436A43EA8C
:10615C00010102E0436A23EA0101416270471AB16E
:10616C00036943EA010102E0036923EA01010161C9
:10617C00704770B51546FFF7ADFE29460446FFF78C
:10618C0061FD2046BDE87040FFF7C0BD10B5FFF7BC
:10619C00A1FE0446FFF7EAFD2046BDE81040FFF7DC
:1061AC0069BD70B50D46FFF725FF29460446FFF77C
:1061BC0049FD2046BDE87040FFF7A8BD10B5FFF7BC
:1061CC0019FF0446FFF7D2FD2046BDE81040FFF74B
:1061DC0051BD043043581343435070470430435867
:1061EC0023EA02034350704709180AB1C868704784
:1061FC00886870470C304250704743690B434361C9
:10620C007047436923EA0103436170474FF48033BD
:10621C00C361704709B1C069704780697047C1613B
:10622C00704710B500F13C0400F50060625001F1BC
:10623C000041403940F8113010BD0AB9343000E04B
:10624C0038304350704712B93430405870473830AA
:10625C004058704701F1004100F5006040391AB90F
:10626C00043050F811007047083050F81100704796
:10627C0001F1004100F5006040390AB9043000E03A
:10628C00083040F811307047D0F8C83F23F48273BF
:10629C0023F003030B43C0F8C83F7047D0F8C83F46
:1062AC0013F4807306D0D0F8C83F40F2071003EA0D
:1062BC0000007047184670470023F0B51C461D4679
:1062CC0001260E4205D012FA03F73C4303279F40E8
:1062DC003D430233102B01D07600F2E7836A23EAA8
:1062EC00050545EA04048462F0BD00000C4B0D4921
:1062FC001A680D4B10B502EA03030C4C0C4AA3426E
:10630C0018BF0A460023D458844202EB030101D182
:10631C00486810BD0833202BF5D1002010BD00BFFC
:10632C0000E00F40C47900000000FF7000000A106C
:10633C00E4790000022B10B502D023B1002300E059
:10634C000823042400E01C4623434360029BB1FB5A
:10635C00F3F100230233B1FBF3F4013CFF2CF9D829
:10636C000361930103F0FF0302F0300243EA0202DF
:10637C00039B013B1A4342EA0424046010BD4368AA
:10638C0043F0020343607047436823F00203436009
:10639C00704770B50D46FFF7A9FF29460446FFF775
:1063AC0051FC2046BDE87040FFF7B0BC10B5FFF7BC
:1063BC009DFF0446FFF7DAFC2046BDE81040FFF7CE
:1063CC0059BC43690B4343617047436923EA01039A
:1063DC004361704709B1C0697047806970470162B9
:1063EC007047C36813F0020FFBD081607047C3681D
:1063FC0013F0020302D081600120704718467047E9
:10640C00C36813F0040FFBD083680B607047C3683C
:10641C0013F0040303D0836801200B607047184607
:10642C007047436A0B4343627047436A23EA010394
:10643C0043627047C068C0F300107047C0F8C81FB3
:10644C007047D0F8C80F7047436823F4E0730B43D0
:10645C0043607047C36813F0020FFBD0436843F4EA
:10646C000063436081607047C36813F0020306D079
:10647C00436843F400634360816001207047184611
:10648C007047436843F4806343607047436823F468
:10649C00806343607047000010B50023064A52F831
:1064AC003340D900A04202D85218506810BD0133B5
:1064BC00062BF3D1002010BD2C7B0000024B18687A
:1064CC0001300002704700BFC4DF0F400A4B1A684E
:1064DC000A4B02EA03030A4A934206D1094B186895
:1064EC0080B2C00200F500607047074B186880B29C
:1064FC000130C002704700BF00E00F400000FF7089
:10650C000000051008E00F40C0DF0F400A4B1A686E
:10651C000A4B02EA03030A4A934209D1094B186851
:10652C0000F4E020000C0A30012313FA00F070474D
:10653C004FF48060704700BF00E00F400000FF7018
:10654C0000000A10C0DF0F400B4B00F47F4200F03C
:10655C00FF0003EB1223800003F0704240F0007048
:10656C0023F07F43104323F4700340EA431318686D
:10657C00003818BF0120704700E30F400B4B00F4AC
:10658C007F4200F0FF0003EB1223800003F0704207
:10659C0040F0007023F07F43104323F4700340EA73
:1065AC0043131868003818BF0120704700EA0F40E9
:1065BC000A4B00F47F4200F0FF0003EB1223800033
:1065CC0003F0704240F0007023F07F43104323F43B
:1065DC00700340EA431301221A60704700E90F4030
:1065EC000A4B00F47F4200F0FF0003EB1223800003
:1065FC0003F0704240F0007023F07F43104323F40B
:10660C00700340EA431300221A60704700E90F4000
:10661C0000F47F420F4B120A00F0FF00D3188000E9
:10662C0003F0704240F0007023F07F43104323F4DA
:10663C00700340EA431301221A6082B0013A01E070
:10664C00019A01320192019A0F2AF9D900221A609B
:10665C0002B0704700E50F400A4B00F47F4200F097
:10666C00FF0003EB1223800003F0704240F0007037
:10667C0023F07F43104323F4700340EA43130122B9
:10668C001A60704700E60F400A4B00F47F4200F09E
:10669C00FF0003EB1223800003F0704240F0007007
:1066AC0023F07F43104323F4700340EA431300228A
:1066BC001A60704700E60F400A4B00F47F4200F06E
:1066CC00FF0003EB1223800003F0704240F00070D7
:1066DC0023F07F43104323F4700340EA4313012259
:1066EC001A60704700E70F400A4B00F47F4200F03D
:1066FC00FF0003EB1223800003F0704240F00070A7
:10670C0023F07F43104323F4700340EA4313002229
:10671C001A60704700E70F400A4B00F47F4200F00C
:10672C00FF0003EB1223800003F0704240F0007076
:10673C0023F07F43104323F4700340EA43130122F8
:10674C001A60704700E80F400A4B00F47F4200F0DB
:10675C00FF0003EB1223800003F0704240F0007046
:10676C0023F07F43104323F4700340EA43130022C9
:10677C001A60704700E80F400E4B1A680E4B02EA85
:10678C0003030E4A934209D10D4B18B11A6842F01B
:10679C0000620CE01A6822F0006208E0094B18B1A4
:1067AC001A6842F0005202E01A6822F000521A6095
:1067BC00704700BF00E00F400000FF7000000510A4
:1067CC0060E00F40B0E00F4010B501462C20FFF701
:1067DC0039FA2C20BDE81040FFF798BA10B52C20E0
:1067EC00FFF7C4FA2C20BDE81040FFF743BA0000B5
:1067FC00024B1A6840EA02021A60704754E00F40DC
:10680C00024B1A6822EA00021A60704754E00F40EB
:10681C00014B1860704700BF58E00F4010B1034B9C
:10682C0018687047024B1868704700BF58E00F405B
:10683C0050E00F40014B1860704700BFB4E10F40AF
:10684C00014B1868704700BFB4E10F40014B186052
:10685C00704700BFBCE10F40014B1868704700BF88
:10686C00BCE10F40014B1860704700BF88E10F403E
:10687C00014B1860704700BF8CE10F40014A024B7E
:10688C001A60FEE70400FA050CED00E000F0D9BE3A
:10689C0010B5064C236843F00403236000F0D1FECE
:1068AC00236823F00403236010BD00BF10ED00E04B
:1068BC00014B1868704700BF5CE00F40024B1A6830
:1068CC0022EA00021A6070475CE00F400138FDD1EB
:1068DC0070470000014B1860704700BF7CE00F4010
:1068EC00104B00EA03033BB10F4A00F00043136066
:1068FC000E4B00EA030313600B4B10F4007F18607F
:10690C000DD00B4B1A6812F4407FFAD0186800F4C3
:10691C004070A0F58073584240EB03007047012093
:10692C00704700BF0001008050E10F407F000080E5
:10693C0054E10F40014B1860704700BFD8E10F4085
:10694C00014B1868704700BFD8E10F402DE9F843A0
:10695C00864B1A68864B02EA0303864A93420C461E
:10696C0000F0FC8000F03803102B1BD000F4F8670B
:10697C00BF09302B1AD0382B1DD00BBBA7F1090245
:10698C00112A00F2ED807C4A7C4952F827600A6893
:10699C00062F22F01C02C8BF42F010020A604FF012
:1069AC004C750FE00025764E15270BE04FF40015C3
:1069BC0047F2305606E04FF480054FF4004601E0F4
:1069CC0000252E4610F4605240F09B8013B1102B22
:1069DC0040F0C880000E00F007086A48FFF75CFD25
:1069EC00694B6A4A18601168694B01EA030343F06A
:1069FC0000431360674B093F1868674B122101FB7A
:106A0C00087103EBC10252689042184609D1DFF8B5
:106A1C0090E153F83130DEF800E043F400039E457A
:106A2C0015D05A4B196845EA010119601221C3F8B7
:106A3C00B42001FB0877D3F8B02050F8371002F4DB
:106A4C0000020A43C3F8B0204FF0010901E04FF0F7
:106A5C000009524B524F53F828304E49621E02EB3C
:106A6C0003083A684F4BB8FBF4F802EA03033A68A0
:106A7C0008680C6804F01F040134D90BB6FBF4F65B
:106A8C0001FB06F44901C1EB932373439B0A03EB0F
:106A9C005414920500F4F853920D1B0A013302FBB7
:106AAC000646B6FBF3F4B4FBF8F42046FFF7F4FC0F
:106ABC00354B18603B6813F4000F08D0B9F1000F88
:106ACC0009D0324B1A6842F080421A6003E03B68EE
:106ADC0043F400033B604FF40043334A126812F056
:106AEC00010F02D1013BF8D13AE0284B1A6808F1AA
:106AFC00FF3842F0104242EA080848EA05051D60DA
:106B0C0031E01F48FFF7C8FC1F4B1860D3F8A020DA
:106B1C0022F40002C3F8A0201C4A244B116801EA9D
:106B2C00030343F0004313603CB1B6FBF4F707B129
:106B3C00013F7C1CB6FBF4F400E027462046FFF72F
:106B4C00ABFC114B186053F8102C42F0004242EA97
:106B5C00050545EA872743F8107C04E0002402E091
:106B6C001C4600E014462046BDE8F88300E00F40C8
:106B7C000000FF70000005105C7B00007CE00F4003
:106B8C000024F40040787D01C0E00F40B0E00F40DD
:106B9C0000FC0FE064E10F40047A0000247B00004D
:106BAC0060E10F4000FC0F0068E10F40FF0300EFB5
:106BBC004149F0B5414E0D68346845F4006525F443
:106BCC00800344F4006415F0010F0B60346016D0A0
:106BDC0010F0010F13D160F001021340384A4FF44A
:106BEC00807515600B604FF4002201E0013A62D011
:106BFC003449096811F4807FF8D0002A5BD000F486
:106C0C00FE6223F4FE6330492D4E134324F0004200
:106C1C0000EA010122F0700241EA020200F00801D0
:106C2C0042EAC102244C2549236000F400550A6055
:106C3C0023F4005322F400522B4340272A4337609D
:106C4C004EBF0A6023600A60204948BF236023F0CE
:106C5C00F86300EA010123F001030B4322F0FC521C
:106C6C0000F0FC5110F0804F42EA010208D01849A4
:106C7C0022F4800200EA010143F480030A4301E09C
:106C8C0022F0804210F4006F0CD14FF400411148F7
:106C9C00006810F0010F01D10139F8D123F4006321
:106CAC0022F4006204490B60044B10201A60BDE80A
:106CBC00F040FFF70BBEF0BD60E00F4070E00F40FE
:106CCC0058E00F4050E00F40300000800100C0073A
:106CDC000000404068E10F40494B19681A69002ACE
:106CEC00B4BF02F0700301F03003202B30B519D083
:106CFC0004D853B1102B40F0818004E0302B0BD022
:106D0C00702B7BD10BE03F4B0DE001F4F860800958
:106D1C003D4B53F8203006E047F2305303E04FF47C
:106D2C00004300E0394B002A02DA12F4006F01E054
:106D3C0011F4006F3DD136480568043041F48001F0
:106D4C00006800F01F0400F4F8500134000A6400DD
:106D5C00013060432F4C05EA0404B3FBF0F3A40AA2
:106D6C005C43A805800DA40A00FB03432A48006875
:106D7C0000F47040B0F5405F13D006D8B0F5805FDA
:106D8C001AD0B0F5005F14D109E0B0F5E04F0CD08B
:106D9C00B0F5104F0BD0B0F5804F0AD103E01F486F
:106DAC000BE01F4809E01F4807E01F4805E01F489B
:106DBC0003E04FF0FF3000E01D4811F4800F19D0B4
:106DCC00002A11DA12F0804F07D012F4006F04D1B0
:106DDC0002F0FE525B00920D02E002F0FC52D20D6A
:106DEC000132B3FBF2F305E001F0F061C90D0131A2
:106DFC00B3FBF1F3834238BF184630BD002030BDE1
:106E0C0060E00F400024F4005C7B000000093D00B2
:106E1C0060E10F4000FC0F0010E00F40AA40F903A6
:106E2C0080F0FA02005A620240787D01002D310197
:106E3C0000B4C404014B1860704700BF44E10F401C
:106E4C00154B1A68154B02EA0303154A934200F1DD
:106E5C00FF3004D121F0FC5141EAC05018E001F0A0
:106E6C007003302B05D0702B06D03BB940F440108A
:106E7C0004E040F4001001E040F4800011F0020F37
:106E8C0018BF40F0004011F0804F18BF40F0804018
:106E9C00044B1860704700BF00E00F400000FF700B
:106EAC000000051044E10F40034B1A6822F4F01265
:106EBC0040EA02021A60704760E00F40044B186809
:106ECC0010F480101CBF186800F4F010704700BF5D
:106EDC0060E00F40054B00F00F001A68012111FA19
:106EEC0000F040EA02021A60704700BF6CE00F40ED
:106EFC00054B00F00F001A68012111FA00F022EA8C
:106F0C0000021A60704700BF6CE00F40024B1A6819
:106F1C0022F480421A60704770E00F40024B1A68EE
:106F2C0042F480421A60704770E00F40014B1860C9
:106F3C00704700BF38E00F40014B1868704700BF26
:106F4C0060E00F40024B1A6840EA02021A60704778
:106F5C0060E00F40014B1868704700BF64E00F40C1
:106F6C00024B1A6822EA00021A60704764E00F4074
:106F7C00013901F0FF01024B01431960704700BF5A
:106F8C0048E10F40014B1860704700BF38E10F40DB
:106F9C000F4B1A680F4B02EA03030F4A93420F4A36
:106FAC000F4B30B508BF13460CBF08240C2400222D
:106FBC001D68854205D1B1F57F4F586806D1013067
:106FCC0030BD01320833A242F2D3002030BD00BFE5
:106FDC0000E00F400000FF7000000A10C87B0000AA
:106FEC00087C0000C26840F2011301EA030342EA84
:106FFC000303C3607047C26840F2011301EA030344
:10700C0022EA0303C3607047C36823F4807323F040
:10701C000103C3600B0E0360114B1A68114B02EA9B
:10702C000303114A934201F0FF030ED101F47022C5
:10703C0043F4007343EA1213436001F47003090A2A
:10704C0001F0FF0141EA132105E043F40073090A42
:10705C00436001F0FF0141F400718160704700BF93
:10706C0000E00F400000FF7000000A1044F24003E3
:10707C0001EA030300F10C011AB1C26842EA0303EE
:10708C0002E0C26822EA03030B607047134B30B571
:10709C001C68134B04EA0303124CA3420ED140F2BA
:1070AC00011301EA030300F170041AB1056F45EAFC
:1070BC00030302E0056F25EA0303236042F2200379
:1070CC0001EA030300F10C011AB1C26842EA03039E
:1070DC0002E0C26822EA03030B6030BD00E00F40FF
:1070EC000000FF7000000A1040F60C4301EA030395
:1070FC00C16821EA030102EA03031943C160704726
:10710C0040F2022301EA030300F10C011AB1C26838
:10711C0042EA030302E0C26822EA03030B607047F1
:10712C0011F0FF0F08D01AB1436843F0400302E09E
:10713C00436823F04003436011F47F4F09D022B120
:10714C00836843F0400383607047836823F04003F7
:10715C0083607047C36843F01003C3607047C36813
:10716C0023F01003C3607047C0F8C81F7047D0F8F5
:10717C00C80F704711F0FF0F18BF826311F47F4FD7
:10718C0018BFC2637047FF290CBF806BC06B704780
:10719C0011F0FF0F18BF026411F47F4F18BF426447
:1071AC007047FF290CBF006C406C704711F0FF0F4B
:1071BC0018BF826211F47F4F18BFC2627047FF295B
:1071CC000CBF806AC06A7047C3628262704710B598
:1071DC00C16A846AC36A9942FAD1002222431046DA
:1071EC0010BDFF290CBF806CC06C704710B5C16C12
:1071FC00846CC36C9942FAD100222243104610BD14
:10720C0011F0FF0F18BF026311F47F4F18BF4263D8
:10721C007047FF290CBF006B406B704743630263E0
:10722C00704710B5416B046B436B9942FAD1002245
:10723C002243104610BD70B51546FFF7A9FE29462E
:10724C000446FEF7FFFC2046BDE87040FEF75EBD2D
:10725C0010B5FFF79DFE0446FEF788FD2046BDE8FD
:10726C001040FEF707BD83690B4383617047836948
:10727C0023EA01038361704709B1006A7047C06952
:10728C007047416270470161704701677047006F3A
:10729C007047C1667047C06E704701F0FF03FF2B4B
:1072AC0004D1436823F4A0631343436001F47F418A
:1072BC00B1F57F4F05D1836823F4A06343EA020242
:1072CC0082607047014B01221A60704704F00F4036
:1072DC00014B00221A60704704F00F40014B1868F4
:1072EC00704700BF4CF00F40014B01221A607047F1
:1072FC004CF00F40012300F01F0013FA00F0014B7B
:10730C001860704728F00F40012300F01F0013FA9B
:10731C0000F0014B186070472CF00F40054B012218
:10732C001B6800F01F0012FA00F018420CBF00207E
:10733C000120704728F00F40014B1860704700BFC8
:10734C0008F00F40014B1868704700BF08F00F4061
:10735C00014B1868704700BF0CF00F40012300F080
:10736C001F0013FA00F0014B1860704714F00F4027
:10737C0011F0010F00F01F0003D001220C4B8240D2
:10738C001A6011F0020F03D001220A4B82401A60DE
:10739C0011F0040F03D00122074B82401A6011F048
:1073AC00080F04D0012313FA00F0044B1860704747
:1073BC0018F00F4030F00F4038F00F4020F00F4025
:1073CC0011F0010F00F01F0003D001220C4B824082
:1073DC001A6011F0020F03D001220A4B82401A608E
:1073EC0011F0040F03D00122074B82401A6011F0F8
:1073FC00080F04D0012313FA00F0044B18607047F7
:10740C001CF00F4034F00F403CF00F4024F00F40C4
:10741C000E4B00F01F001B68012282401A420C4BDD
:10742C001B680CBF002001201A420A4B1B6818BFB6
:10743C0040F002001A42084B1B6818BF40F00400D1
:10744C001A4218BF40F00800704700BF18F00F40F8
:10745C0030F00F4038F00F4020F00F40064B074A39
:10746C001B6800F03F0003EB0013986800EA02026F
:10747C0041EA02029A60704708F00F40F73FFC00A7
:10748C002DE9F0411E4C069D266800F03F0C4FEA9A
:10749C000C1806EB080410F0200FA76827F47E5791
:1074AC0027F0770705D0042901D0062901D141F036
:1074BC000101681E47EA0010084300F04067B7F16D
:1074CC00406F04D0BF0E013A15FA07F7D21946F8EF
:1074DC00082000F04042B2F1404F0DD0042901D0F9
:1074EC00062905D14CF0200306EB03130C3303E003
:1074FC00920F013B95405B196360A060BDE8F08181
:10750C0008F00F40F0B54F1E8901104C103900F0F7
:10751C001F0041F02A412468060102EB0717002BDB
:10752C000CBF0423062341F4004140F02002194310
:10753C000C370123A519A75113FA00F004EB021420
:10754C00034BA9600C346C601860F0BD08F00F4060
:10755C0034F00F40074B1B6800F03F0003EB0013A7
:10756C0043F6F7709B6803EA000008B1000901308C
:10757C00704700BF08F00F40084B1B6800F03F003D
:10758C0003EB0013986800F0070300F006000428D2
:10759C0003D0062814BF18460620704708F00F4089
:1075AC0010B50446FEF74EFB2046BDE81040FEF732
:1075BC00ADBB10B50446FEF7D9FB2046BDE8104024
:1075CC00FEF758BB014B1868704700BF04F50F401D
:1075DC00014B1860704700BF04F50F400A4B00F0D8
:1075EC00FF0203EBD2039B0000F0070210B59200E0
:1075FC001C680F219140000C24EA010110FA02F2E0
:10760C0041EA02021A6010BD44FD0310024B1A68D5
:10761C0040EA02021A60704700F50F40024B1A68EC
:10762C0022EA00021A60704700F50F40EFF3108059
:10763C0072B67047EFF310807047EFF3108062B6AC
:10764C00704730BF704780F311887047EFF311809B
:10765C0070470000AC220000244F00000DC0A0E1D8
:10766C00F8DF2DE904B04CE228D04BE2F06F9DE836
:10767C001EFF2FE10DC0A0E1F8DF2DE904B04CE2B4
:10768C006C22000028D04BE2F06F9DE81EFF2FE12A
:10769C00DEADBE00430000000800002000400040AA
:1076AC001000000000800540100000000050004059
:1076BC001100000000900540110000000060004027
:1076CC001200000000A005401200000000700040F5
:1076DC001300000000B00540130000000040024001
:1076EC001400000000C005401400000000500240CF
:1076FC002E00000000D005402E000000006002406B
:10770C002F00000000E005402F0000000070024038
:10771C003000000000F005403000000000D00340B5
:10772C00430000000000064043000000001006402B
:10773C0044000000002006404500000000300640D8
:10774C005800000000400640590000000050064060
:10775C005C00000000600640640000000040004037
:10776C000080054000500040009005400060004043
:10777C0000A005400070004000B0054000400240F1
:10778C0000C005400050024000D00540006002409F
:10779C0000E005400070024000F0054000D00340BE
:1077AC000000064000100640001006400020064075
:1077BC0000200640003006400030064000400640E5
:1077CC000040064000500640005006400060064055
:1077DC0000600640007006400070064000800640C5
:1077EC00008006400090064000900640004000409B
:1077FC001000000000800540100000000050004008
:10780C0011000000009005401100000000600040D5
:10781C001200000000A005401200000000700040A3
:10782C001300000000B005401300000000400240AF
:10783C001400000000C0054014000000005002407D
:10784C002E00000000D005402E0000000060024019
:10785C002F00000000E005402F00000000700240E7
:10786C003000000000F005403000000000D0034064
:10787C0046000000000006404600000000100640D4
:10788C004700000000200640480000000030064081
:10789C007F000000004006408000000000500640C1
:1078AC0084000000006006408C000000000700000F
:1078BC0000060000000500000004000000030000AA
:1078CC0000020000000100000000000080E100E068
:1078DC0084E100E088E100E08CE100E090E100E070
:1078EC0000E200E004E200E008E200E00CE200E06C
:1078FC0010E200E00000000018ED00E01CED00E0DC
:10790C0020ED00E000E400E004E400E008E400E026
:10791C000CE400E010E400E014E400E018E400E003
:10792C001CE400E020E400E024E400E028E400E0B3
:10793C002CE400E030E400E034E400E038E400E063
:10794C003CE400E040E400E044E400E048E400E013
:10795C004CE400E050E400E054E400E058E400E0C3
:10796C005CE400E060E400E064E400E068E400E073
:10797C006CE400E070E400E074E400E078E400E023
:10798C007CE400E080E400E084E400E088E400E0D3
:10799C0000E100E004E100E008E100E00CE100E0BF
:1079AC0010E100E080E200E084E200E088E200E028
:1079BC008CE200E090E200E0008000401700000044
:1079CC00009000403200000000A000404900000080
:1079DC0000B000404A00000000800040170000008A
:1079EC00009000403200000000A000404600000063
:1079FC0000B0004047000000400000000000000004
:107A0C003E00080000000000A00000000200000082
:107A1C0034540100000000002B7006000000000030
:107A2C0028000000000000002700010000000000FA
:107A3C0020000000000000005000000002000000C8
:107A4C001AAC0000000000001794090000000000B0
:107A5C001698050000000000140000000000000053
:107A6C001380080000000000A000000008000000C7
:107A7C0010000000000000002800000002000000C0
:107A8C004000000004000000600000000000000046
:107A9C005D000C0000000000500000000000000021
:107AAC004E0002000000000041AC0100000000008C
:107ABC003C000000000000003A80090000000000BB
:107ACC003000000000000000280000000000000052
